{
  "contractName": "DogeWar",
  "abi": [
    {
      "anonymous": false,
      "inputs": [
        {
          "indexed": true,
          "internalType": "address",
          "name": "attacker",
          "type": "address"
        },
        {
          "indexed": true,
          "internalType": "address",
          "name": "defender",
          "type": "address"
        },
        {
          "indexed": false,
          "internalType": "uint8",
          "name": "status",
          "type": "uint8"
        },
        {
          "indexed": false,
          "internalType": "uint256",
          "name": "reward",
          "type": "uint256"
        }
      ],
      "name": "AttackDoge",
      "type": "event"
    },
    {
      "anonymous": false,
      "inputs": [
        {
          "indexed": false,
          "internalType": "address",
          "name": "account",
          "type": "address"
        }
      ],
      "name": "Paused",
      "type": "event"
    },
    {
      "anonymous": false,
      "inputs": [
        {
          "indexed": true,
          "internalType": "bytes32",
          "name": "role",
          "type": "bytes32"
        },
        {
          "indexed": true,
          "internalType": "bytes32",
          "name": "previousAdminRole",
          "type": "bytes32"
        },
        {
          "indexed": true,
          "internalType": "bytes32",
          "name": "newAdminRole",
          "type": "bytes32"
        }
      ],
      "name": "RoleAdminChanged",
      "type": "event"
    },
    {
      "anonymous": false,
      "inputs": [
        {
          "indexed": true,
          "internalType": "bytes32",
          "name": "role",
          "type": "bytes32"
        },
        {
          "indexed": true,
          "internalType": "address",
          "name": "account",
          "type": "address"
        },
        {
          "indexed": true,
          "internalType": "address",
          "name": "sender",
          "type": "address"
        }
      ],
      "name": "RoleGranted",
      "type": "event"
    },
    {
      "anonymous": false,
      "inputs": [
        {
          "indexed": true,
          "internalType": "bytes32",
          "name": "role",
          "type": "bytes32"
        },
        {
          "indexed": true,
          "internalType": "address",
          "name": "account",
          "type": "address"
        },
        {
          "indexed": true,
          "internalType": "address",
          "name": "sender",
          "type": "address"
        }
      ],
      "name": "RoleRevoked",
      "type": "event"
    },
    {
      "anonymous": false,
      "inputs": [
        {
          "indexed": false,
          "internalType": "address",
          "name": "account",
          "type": "address"
        }
      ],
      "name": "Unpaused",
      "type": "event"
    },
    {
      "inputs": [],
      "name": "CEO_ROLE",
      "outputs": [
        {
          "internalType": "bytes32",
          "name": "",
          "type": "bytes32"
        }
      ],
      "stateMutability": "view",
      "type": "function",
      "constant": true
    },
    {
      "inputs": [],
      "name": "DEFAULT_ADMIN_ROLE",
      "outputs": [
        {
          "internalType": "bytes32",
          "name": "",
          "type": "bytes32"
        }
      ],
      "stateMutability": "view",
      "type": "function",
      "constant": true
    },
    {
      "inputs": [],
      "name": "accRubyPerShare",
      "outputs": [
        {
          "internalType": "uint256",
          "name": "",
          "type": "uint256"
        }
      ],
      "stateMutability": "view",
      "type": "function",
      "constant": true
    },
    {
      "inputs": [],
      "name": "accWODPerShare",
      "outputs": [
        {
          "internalType": "uint256",
          "name": "",
          "type": "uint256"
        }
      ],
      "stateMutability": "view",
      "type": "function",
      "constant": true
    },
    {
      "inputs": [
        {
          "internalType": "uint256",
          "name": "",
          "type": "uint256"
        }
      ],
      "name": "allHeroOwners",
      "outputs": [
        {
          "internalType": "address",
          "name": "",
          "type": "address"
        }
      ],
      "stateMutability": "view",
      "type": "function",
      "constant": true
    },
    {
      "inputs": [],
      "name": "devAddress",
      "outputs": [
        {
          "internalType": "address",
          "name": "",
          "type": "address"
        }
      ],
      "stateMutability": "view",
      "type": "function",
      "constant": true
    },
    {
      "inputs": [],
      "name": "dogeHero",
      "outputs": [
        {
          "internalType": "contract DogeHero",
          "name": "",
          "type": "address"
        }
      ],
      "stateMutability": "view",
      "type": "function",
      "constant": true
    },
    {
      "inputs": [],
      "name": "geneScience",
      "outputs": [
        {
          "internalType": "contract GeneScience",
          "name": "",
          "type": "address"
        }
      ],
      "stateMutability": "view",
      "type": "function",
      "constant": true
    },
    {
      "inputs": [
        {
          "internalType": "bytes32",
          "name": "role",
          "type": "bytes32"
        }
      ],
      "name": "getRoleAdmin",
      "outputs": [
        {
          "internalType": "bytes32",
          "name": "",
          "type": "bytes32"
        }
      ],
      "stateMutability": "view",
      "type": "function",
      "constant": true
    },
    {
      "inputs": [
        {
          "internalType": "bytes32",
          "name": "role",
          "type": "bytes32"
        },
        {
          "internalType": "address",
          "name": "account",
          "type": "address"
        }
      ],
      "name": "grantRole",
      "outputs": [],
      "stateMutability": "nonpayable",
      "type": "function"
    },
    {
      "inputs": [
        {
          "internalType": "bytes32",
          "name": "role",
          "type": "bytes32"
        },
        {
          "internalType": "address",
          "name": "account",
          "type": "address"
        }
      ],
      "name": "hasRole",
      "outputs": [
        {
          "internalType": "bool",
          "name": "",
          "type": "bool"
        }
      ],
      "stateMutability": "view",
      "type": "function",
      "constant": true
    },
    {
      "inputs": [
        {
          "internalType": "address",
          "name": "",
          "type": "address"
        }
      ],
      "name": "heroEntered",
      "outputs": [
        {
          "internalType": "uint256",
          "name": "",
          "type": "uint256"
        }
      ],
      "stateMutability": "view",
      "type": "function",
      "constant": true
    },
    {
      "inputs": [
        {
          "internalType": "address",
          "name": "",
          "type": "address"
        }
      ],
      "name": "heroInfo",
      "outputs": [
        {
          "internalType": "uint64",
          "name": "rank",
          "type": "uint64"
        },
        {
          "internalType": "uint64",
          "name": "share",
          "type": "uint64"
        },
        {
          "internalType": "uint64",
          "name": "health",
          "type": "uint64"
        },
        {
          "internalType": "uint64",
          "name": "maxHealth",
          "type": "uint64"
        },
        {
          "internalType": "uint64",
          "name": "attack",
          "type": "uint64"
        },
        {
          "internalType": "uint64",
          "name": "defense",
          "type": "uint64"
        },
        {
          "internalType": "uint64",
          "name": "healthRecovery",
          "type": "uint64"
        },
        {
          "internalType": "uint64",
          "name": "lastRecoverBlock",
          "type": "uint64"
        },
        {
          "internalType": "uint256",
          "name": "rubyDebt",
          "type": "uint256"
        },
        {
          "internalType": "uint256",
          "name": "wodDebt",
          "type": "uint256"
        }
      ],
      "stateMutability": "view",
      "type": "function",
      "constant": true
    },
    {
      "inputs": [],
      "name": "lastRewardBlock",
      "outputs": [
        {
          "internalType": "uint256",
          "name": "",
          "type": "uint256"
        }
      ],
      "stateMutability": "view",
      "type": "function",
      "constant": true
    },
    {
      "inputs": [],
      "name": "lowerPointsThreshold",
      "outputs": [
        {
          "internalType": "uint16",
          "name": "",
          "type": "uint16"
        }
      ],
      "stateMutability": "view",
      "type": "function",
      "constant": true
    },
    {
      "inputs": [],
      "name": "paused",
      "outputs": [
        {
          "internalType": "bool",
          "name": "",
          "type": "bool"
        }
      ],
      "stateMutability": "view",
      "type": "function",
      "constant": true
    },
    {
      "inputs": [
        {
          "internalType": "bytes32",
          "name": "role",
          "type": "bytes32"
        },
        {
          "internalType": "address",
          "name": "account",
          "type": "address"
        }
      ],
      "name": "renounceRole",
      "outputs": [],
      "stateMutability": "nonpayable",
      "type": "function"
    },
    {
      "inputs": [
        {
          "internalType": "bytes32",
          "name": "role",
          "type": "bytes32"
        },
        {
          "internalType": "address",
          "name": "account",
          "type": "address"
        }
      ],
      "name": "revokeRole",
      "outputs": [],
      "stateMutability": "nonpayable",
      "type": "function"
    },
    {
      "inputs": [],
      "name": "rubyPerBlock",
      "outputs": [
        {
          "internalType": "uint112",
          "name": "",
          "type": "uint112"
        }
      ],
      "stateMutability": "view",
      "type": "function",
      "constant": true
    },
    {
      "inputs": [],
      "name": "rubyToken",
      "outputs": [
        {
          "internalType": "contract RubyToken",
          "name": "",
          "type": "address"
        }
      ],
      "stateMutability": "view",
      "type": "function",
      "constant": true
    },
    {
      "inputs": [
        {
          "internalType": "bytes4",
          "name": "interfaceId",
          "type": "bytes4"
        }
      ],
      "name": "supportsInterface",
      "outputs": [
        {
          "internalType": "bool",
          "name": "",
          "type": "bool"
        }
      ],
      "stateMutability": "view",
      "type": "function",
      "constant": true
    },
    {
      "inputs": [],
      "name": "totalShare",
      "outputs": [
        {
          "internalType": "uint256",
          "name": "",
          "type": "uint256"
        }
      ],
      "stateMutability": "view",
      "type": "function",
      "constant": true
    },
    {
      "inputs": [],
      "name": "upperPointsThreshold",
      "outputs": [
        {
          "internalType": "uint16",
          "name": "",
          "type": "uint16"
        }
      ],
      "stateMutability": "view",
      "type": "function",
      "constant": true
    },
    {
      "inputs": [],
      "name": "wodPerBlock",
      "outputs": [
        {
          "internalType": "uint112",
          "name": "",
          "type": "uint112"
        }
      ],
      "stateMutability": "view",
      "type": "function",
      "constant": true
    },
    {
      "inputs": [],
      "name": "wodToken",
      "outputs": [
        {
          "internalType": "contract WODToken",
          "name": "",
          "type": "address"
        }
      ],
      "stateMutability": "view",
      "type": "function",
      "constant": true
    },
    {
      "inputs": [],
      "name": "initialize",
      "outputs": [],
      "stateMutability": "nonpayable",
      "type": "function"
    },
    {
      "inputs": [
        {
          "internalType": "address",
          "name": "newDev",
          "type": "address"
        }
      ],
      "name": "setDev",
      "outputs": [],
      "stateMutability": "nonpayable",
      "type": "function"
    },
    {
      "inputs": [
        {
          "internalType": "address",
          "name": "_rubyToken",
          "type": "address"
        }
      ],
      "name": "setRubyToken",
      "outputs": [],
      "stateMutability": "nonpayable",
      "type": "function"
    },
    {
      "inputs": [
        {
          "internalType": "address",
          "name": "_geneScience",
          "type": "address"
        }
      ],
      "name": "setGeneScience",
      "outputs": [],
      "stateMutability": "nonpayable",
      "type": "function"
    },
    {
      "inputs": [
        {
          "internalType": "address",
          "name": "_dogeHero",
          "type": "address"
        }
      ],
      "name": "setDogeHero",
      "outputs": [],
      "stateMutability": "nonpayable",
      "type": "function"
    },
    {
      "inputs": [
        {
          "internalType": "address",
          "name": "_wodToken",
          "type": "address"
        }
      ],
      "name": "setWODToken",
      "outputs": [],
      "stateMutability": "nonpayable",
      "type": "function"
    },
    {
      "inputs": [
        {
          "internalType": "uint72",
          "name": "_rubyPerBlock",
          "type": "uint72"
        }
      ],
      "name": "setRubyPerBlock",
      "outputs": [],
      "stateMutability": "nonpayable",
      "type": "function"
    },
    {
      "inputs": [
        {
          "internalType": "uint72",
          "name": "_wodPerBlock",
          "type": "uint72"
        }
      ],
      "name": "setWODPerBlock",
      "outputs": [],
      "stateMutability": "nonpayable",
      "type": "function"
    },
    {
      "inputs": [],
      "name": "pause",
      "outputs": [],
      "stateMutability": "nonpayable",
      "type": "function"
    },
    {
      "inputs": [],
      "name": "unpause",
      "outputs": [],
      "stateMutability": "nonpayable",
      "type": "function"
    },
    {
      "inputs": [
        {
          "internalType": "uint256[]",
          "name": "heroIds",
          "type": "uint256[]"
        }
      ],
      "name": "heroEnter",
      "outputs": [],
      "stateMutability": "nonpayable",
      "type": "function"
    },
    {
      "inputs": [
        {
          "internalType": "uint256",
          "name": "amount",
          "type": "uint256"
        }
      ],
      "name": "heroLeave",
      "outputs": [],
      "stateMutability": "nonpayable",
      "type": "function"
    },
    {
      "inputs": [
        {
          "internalType": "uint256[]",
          "name": "heroIds",
          "type": "uint256[]"
        }
      ],
      "name": "heroLeave2",
      "outputs": [],
      "stateMutability": "nonpayable",
      "type": "function"
    },
    {
      "inputs": [],
      "name": "leaveAll",
      "outputs": [],
      "stateMutability": "nonpayable",
      "type": "function"
    },
    {
      "inputs": [
        {
          "internalType": "address",
          "name": "defenderAddress",
          "type": "address"
        }
      ],
      "name": "attackDoge",
      "outputs": [],
      "stateMutability": "nonpayable",
      "type": "function"
    },
    {
      "inputs": [],
      "name": "harvestReward",
      "outputs": [],
      "stateMutability": "nonpayable",
      "type": "function"
    },
    {
      "inputs": [],
      "name": "pendingReward",
      "outputs": [
        {
          "internalType": "uint256",
          "name": "pendingRuby",
          "type": "uint256"
        },
        {
          "internalType": "uint256",
          "name": "pendingWOD",
          "type": "uint256"
        }
      ],
      "stateMutability": "view",
      "type": "function",
      "constant": true
    },
    {
      "inputs": [],
      "name": "updateReward",
      "outputs": [],
      "stateMutability": "nonpayable",
      "type": "function"
    },
    {
      "inputs": [
        {
          "internalType": "address",
          "name": "_attacker",
          "type": "address"
        },
        {
          "internalType": "address",
          "name": "_defender",
          "type": "address"
        }
      ],
      "name": "areInPointsRange",
      "outputs": [
        {
          "internalType": "bool",
          "name": "",
          "type": "bool"
        }
      ],
      "stateMutability": "view",
      "type": "function",
      "constant": true
    },
    {
      "inputs": [
        {
          "internalType": "uint16",
          "name": "_lowerPointsThreshold",
          "type": "uint16"
        },
        {
          "internalType": "uint16",
          "name": "_upperPointsThreshold",
          "type": "uint16"
        }
      ],
      "name": "setPointsThreshold",
      "outputs": [],
      "stateMutability": "nonpayable",
      "type": "function"
    },
    {
      "inputs": [
        {
          "internalType": "address",
          "name": "owner",
          "type": "address"
        }
      ],
      "name": "balanceOf",
      "outputs": [
        {
          "internalType": "uint256",
          "name": "",
          "type": "uint256"
        }
      ],
      "stateMutability": "view",
      "type": "function",
      "constant": true
    },
    {
      "inputs": [
        {
          "internalType": "uint256",
          "name": "tokenId",
          "type": "uint256"
        }
      ],
      "name": "ownerOf",
      "outputs": [
        {
          "internalType": "address",
          "name": "",
          "type": "address"
        }
      ],
      "stateMutability": "view",
      "type": "function",
      "constant": true
    },
    {
      "inputs": [
        {
          "internalType": "address",
          "name": "owner",
          "type": "address"
        },
        {
          "internalType": "uint256",
          "name": "index",
          "type": "uint256"
        }
      ],
      "name": "tokenOfOwnerByIndex",
      "outputs": [
        {
          "internalType": "uint256",
          "name": "",
          "type": "uint256"
        }
      ],
      "stateMutability": "view",
      "type": "function",
      "constant": true
    },
    {
      "inputs": [],
      "name": "getTotalHeroOwner",
      "outputs": [
        {
          "internalType": "uint256",
          "name": "",
          "type": "uint256"
        }
      ],
      "stateMutability": "view",
      "type": "function",
      "constant": true
    }
  ],
  "bytecode": "0x608060405234801561001057600080fd5b5061400b806100206000396000f3fe608060405234801561001057600080fd5b50600436106102bb5760003560e01c80636352211e11610182578063c248b684116100e9578063edde9fa8116100a2578063f2b47d521161007c578063f2b47d52146106ff578063f36c0a7214610712578063faa6ab551461071a578063ff5083621461072d576102bb565b8063edde9fa8146105fd578063f037a060146106d9578063f07e8119146106ec576102bb565b8063c248b6841461057d578063d477f05f14610591578063d547741f146105a4578063d5a0416c146105b7578063d8fa33a3146105ca578063e90ae6de146105ea576102bb565b8063879a58381161013b578063879a58381461052957806391d14854146105315780639c1f6bf814610544578063a217fddf14610557578063a9f8d1811461055f578063b514be6314610568576102bb565b80636352211e146104c557806370a08231146104d85780637d36284e146104eb5780638129fc1c146104fe5780638456cb591461050657806387255e771461050e576102bb565b806336568abe11610226578063562f5e16116101df578063562f5e161461046d5780635676d3f3146104755780635a34928e146104965780635b84b9841461049e5780635c975abb146104a7578063620db609146104b2576102bb565b806336568abe146103e7578063384a9b17146103fa5780633ad10ef61461040d5780633e57a5ec146104205780633f4ba83a146104335780634ca4e38c1461043b576102bb565b80631738e97b116102785780631738e97b1461034d5780631a1d296414610378578063238314471461038b578063248a9ca31461039e5780632f2ff15d146103c15780632f745c59146103d4576102bb565b806301ffc9a7146102c0578063026c4207146102e857806306b66e1f146102ff578063137ee36e1461031457806313ab60241461033157806315ac06af14610344575b600080fd5b6102d36102ce366004613bf2565b610740565b60405190151581526020015b60405180910390f35b6102f160cb5481565b6040519081526020016102df565b61031261030d36600461398b565b610779565b005b61031c6107b6565b604080519283526020830191909152016102df565b61031261033f366004613c1a565b610965565b6102f160cd5481565b60d154610360906001600160a01b031681565b6040516001600160a01b0390911681526020016102df565b610360610386366004613bb8565b6109d9565b610312610399366004613c5b565b610a03565b6102f16103ac366004613bb8565b60009081526065602052604090206001015490565b6103126103cf366004613bd0565b610a46565b6102f16103e23660046139d7565b610a71565b6103126103f5366004613bd0565b610afb565b61031261040836600461398b565b610b79565b60ce54610360906001600160a01b031681565b61031261042e36600461398b565b610bb5565b610312610bf1565b60c95461045590600160901b90046001600160701b031681565b6040516001600160701b0390911681526020016102df565b60cf546102f1565b60c9546104839061ffff1681565b60405161ffff90911681526020016102df565b610312610c5e565b6102f160cc5481565b60975460ff166102d3565b60d054610360906001600160a01b031681565b6103606104d3366004613bb8565b610d19565b6102f16104e636600461398b565b610d88565b6102d36104f93660046139a5565b610e07565b61031261129a565b6103126113b5565b60c9546104559064010000000090046001600160701b031681565b6103126113f9565b6102d361053f366004613bd0565b611511565b61031261055236600461398b565b61153c565b6102f1600081565b6102f160ca5481565b6102f1600080516020613fb683398151915281565b60c9546104839062010000900461ffff1681565b61031261059f36600461398b565b611578565b6103126105b2366004613bd0565b6115ba565b6103126105c5366004613c5b565b6115e0565b6102f16105d836600461398b565b60d46020526000908152604090205481565b6103126105f8366004613bb8565b611621565b61067461060b36600461398b565b60d66020526000908152604090208054600182015460028301546003909301546001600160401b0380841694600160401b808604831695600160801b808204851696600160c01b928390048616968187169694820485169592820485169493909104909216918a565b604080516001600160401b039b8c168152998b1660208b0152978a16978901979097529488166060880152928716608087015290861660a0860152851660c085015290931660e0830152610100820192909252610120810191909152610140016102df565b6103126106e736600461398b565b6117c4565b60d354610360906001600160a01b031681565b60d254610360906001600160a01b031681565b610312611ba7565b610312610728366004613a00565b611c65565b61031261073b366004613a00565b611df9565b60006001600160e01b03198216637965db0b60e01b148061077157506301ffc9a760e01b6001600160e01b03198316145b90505b919050565b600080516020613fb683398151915261079381335b611f04565b5060d080546001600160a01b0319166001600160a01b0392909216919091179055565b33600090815260d66020908152604080832081516101408101835281546001600160401b038082168352600160401b808304821696840196909652600160801b808304821695840195909552600160c01b918290048116606084015260018401548082166080850152958604811660a0840152938504841660c083015290930490911660e083015260028101546101008301526003015461012082015260cc5460cd5460ca54849392919043118015610870575060cb5415155b156108e857600061088260ca54611f68565b9050600061089160ca54611f93565b60cb549091506108a68364e8d4a51000613e5a565b6108b09190613e3a565b6108ba9085613e00565b60cb549094506108cf8264e8d4a51000613e5a565b6108d99190613e3a565b6108e39084613e00565b925050505b82610100015164e8d4a510008385602001516001600160401b031661090d9190613e5a565b6109179190613e3a565b6109219190613ea2565b945082610120015164e8d4a510008285602001516001600160401b03166109489190613e5a565b6109529190613e3a565b61095c9190613ea2565b93505050509091565b600080516020613fb683398151915261097e813361078e565b60008361ffff16118015610996575060648361ffff16105b61099f57600080fd5b60008261ffff16116109b057600080fd5b5060c9805461ffff928316620100000263ffffffff199091169290931691909117919091179055565b60cf81815481106109e957600080fd5b6000918252602090912001546001600160a01b0316905081565b6000610a0f813361078e565b5060c9805471ffffffffffffffffffffffffffff00000000191668ffffffffffffffffff9290921664010000000002919091179055565b600082815260656020526040902060010154610a62813361078e565b610a6c838361212a565b505050565b6000610a7c83610d88565b8210610acf5760405162461bcd60e51b815260206004820152601960248201527f4f776e657220696e646578206f7574206f6620626f756e64730000000000000060448201526064015b60405180910390fd5b506001600160a01b038216600090815260d9602090815260408083208484529091529020545b92915050565b6001600160a01b0381163314610b6b5760405162461bcd60e51b815260206004820152602f60248201527f416363657373436f6e74726f6c3a2063616e206f6e6c792072656e6f756e636560448201526e103937b632b9903337b91039b2b63360891b6064820152608401610ac6565b610b7582826121b0565b5050565b600080516020613fb6833981519152610b92813361078e565b5060d180546001600160a01b0319166001600160a01b0392909216919091179055565b600080516020613fb6833981519152610bce813361078e565b5060d380546001600160a01b0319166001600160a01b0392909216919091179055565b600080516020613fb6833981519152610c0a813361078e565b60975460ff16610c535760405162461bcd60e51b815260206004820152601460248201527314185d5cd8589b194e881b9bdd081c185d5cd95960621b6044820152606401610ac6565b610c5b612217565b50565b60975460ff1615610c815760405162461bcd60e51b8152600401610ac690613d35565b33600081815260d4602052604090205460021415610c9e57600080fd5b6001600160a01b038116600090815260d46020526040902060029055610cc2611ba7565b33600090815260d6602052604090208054600160401b90046001600160401b031615610cf257610cf281336122aa565b610cfb816122bf565b506001600160a01b0316600090815260d46020526040902060019055565b600081815260d760205260408120546001600160a01b0316806107715760405162461bcd60e51b815260206004820152602160248201527f4f776e657220717565727920666f72206e6f6e6578697374656e7420746f6b656044820152603760f91b6064820152608401610ac6565b60006001600160a01b038216610deb5760405162461bcd60e51b815260206004820152602260248201527f42616c616e636520717565727920666f7220746865207a65726f206164647265604482015261737360f01b6064820152608401610ac6565b506001600160a01b0316600090815260d8602052604090205490565b60008060d66000856001600160a01b03166001600160a01b03168152602001908152602001600020604051806101400160405290816000820160009054906101000a90046001600160401b03166001600160401b03166001600160401b031681526020016000820160089054906101000a90046001600160401b03166001600160401b03166001600160401b031681526020016000820160109054906101000a90046001600160401b03166001600160401b03166001600160401b031681526020016000820160189054906101000a90046001600160401b03166001600160401b03166001600160401b031681526020016001820160009054906101000a90046001600160401b03166001600160401b03166001600160401b031681526020016001820160089054906101000a90046001600160401b03166001600160401b03166001600160401b031681526020016001820160109054906101000a90046001600160401b03166001600160401b03166001600160401b031681526020016001820160189054906101000a90046001600160401b03166001600160401b03166001600160401b03168152602001600282015481526020016003820154815250509050600060d66000856001600160a01b03166001600160a01b03168152602001908152602001600020604051806101400160405290816000820160009054906101000a90046001600160401b03166001600160401b03166001600160401b031681526020016000820160089054906101000a90046001600160401b03166001600160401b03166001600160401b031681526020016000820160109054906101000a90046001600160401b03166001600160401b03166001600160401b031681526020016000820160189054906101000a90046001600160401b03166001600160401b03166001600160401b031681526020016001820160009054906101000a90046001600160401b03166001600160401b03166001600160401b031681526020016001820160089054906101000a90046001600160401b03166001600160401b03166001600160401b031681526020016001820160109054906101000a90046001600160401b03166001600160401b03166001600160401b031681526020016001820160189054906101000a90046001600160401b03166001600160401b03166001600160401b03168152602001600282015481526020016003820154815250509050600082600001516001600160401b03169050600082600001516001600160401b0316905060006001600160a01b0316876001600160a01b031614806111d657506001600160a01b038616155b806111f25750856001600160a01b0316876001600160a01b0316145b15611204576000945050505050610af5565b601482101561121a576001945050505050610af5565b600081831015611260576064836112318483613e5a565b61123b9190613e3a565b6112459190613ea2565b60c95462010000900461ffff16119550610af5945050505050565b600061126c8385613ea2565b90508361127a826064613e5a565b6112849190613e3a565b60c95461ffff16119650610af595505050505050565b600054610100900460ff166112b55760005460ff16156112b9565b303b155b61131c5760405162461bcd60e51b815260206004820152602e60248201527f496e697469616c697a61626c653a20636f6e747261637420697320616c72656160448201526d191e481a5b9a5d1a585b1a5e995960921b6064820152608401610ac6565b600054610100900460ff1615801561133e576000805461ffff19166101011790555b6113466122d1565b61134e612310565b611359600033612347565b611371600080516020613fb683398151915233612347565b60ce80546001600160a01b03191633179055798ac7230489e8000000000000003635c9adc5dea0000003e8002360c9558015610c5b576000805461ff001916905550565b600080516020613fb68339815191526113ce813361078e565b60975460ff16156113f15760405162461bcd60e51b8152600401610ac690613d35565b610c5b612351565b60975460ff161561141c5760405162461bcd60e51b8152600401610ac690613d35565b33600081815260d460205260409020546002141561143957600080fd5b6001600160a01b038116600090815260d4602052604081206002905561145e33610d88565b90506000811161146d57600080fd5b611475611ba7565b33600081815260d660205260409020906114909082906122aa565b805460cb8054600160401b9092046001600160401b0316916000906114b6908490613ea2565b909155505033600081815260d6602052604081208181556001810182905560028101829055600301556114e8906123a9565b6114f233836124eb565b50506001600160a01b0316600090815260d46020526040902060019055565b60009182526065602090815260408084206001600160a01b0393909316845291905290205460ff1690565b600080516020613fb6833981519152611555813361078e565b5060d280546001600160a01b0319166001600160a01b0392909216919091179055565b6000611584813361078e565b6001600160a01b03821661159757600080fd5b5060ce80546001600160a01b0319166001600160a01b0392909216919091179055565b6000828152606560205260409020600101546115d6813361078e565b610a6c83836121b0565b60006115ec813361078e565b5060c9805471ffffffffffffffffffffffffffffffffffff1668ffffffffffffffffff92909216600160901b02919091179055565b60975460ff16156116445760405162461bcd60e51b8152600401610ac690613d35565b33600081815260d460205260409020546002141561166157600080fd5b6001600160a01b038116600090815260d4602052604081206002905561168633610d88565b90508281101561169557600080fd5b61169d611ba7565b33600081815260d660205260409020906116b89082906122aa565b6000846001600160401b038111156116e057634e487b7160e01b600052604160045260246000fd5b604051908082528060200260200182016040528015611709578160200160208202803683370190505b5090508260005b8681101561177d578461172281613f0d565b95505060006117313387610a71565b90508084838151811061175457634e487b7160e01b600052603260045260246000fd5b60200260200101818152505061176a338261252f565b508061177581613f47565b915050611710565b5061178883836125a9565b611791836122bf565b858114156117a2576117a2336123a9565b505050506001600160a01b0316600090815260d4602052604090206001905550565b60975460ff16156117e75760405162461bcd60e51b8152600401610ac690613d35565b33600081815260d460205260409020546002141561180457600080fd5b6001600160a01b038116600090815260d46020526040902060029055611828611ba7565b600061183383610d88565b1161183d57600080fd5b6118473383610e07565b61185057600080fd5b6001600160a01b038216600090815260d66020526040808220338352912061187782612831565b61188081612831565b600180820154825491840154845460009384936001600160401b03600160401b80830482169592821694600160801b948590048316949184048316938316929190041684831015611904576118d58386613eb9565b9750876001600160401b0316816001600160401b0316116118f7576000611901565b6119018882613eb9565b90505b816001600160401b0316866001600160401b03161015611957576119288683613eb9565b9650866001600160401b0316846001600160401b03161161194a576000611954565b6119548785613eb9565b93505b6000806001600160401b038316611a0a575060016119758c33612953565b91506119808c6129b1565b8b546001600160401b0316156119cd578b546001600160401b03168c60006119a783613f24565b91906101000a8154816001600160401b0302191690836001600160401b03160217905550505b8a546001600160401b03168b60006119e483613f62565b91906101000a8154816001600160401b0302191690836001600160401b03160217905550505b6001600160401b038616611aba57506002611a258b8f612953565b9150611a308b6129b1565b8a546001600160401b031615611a7d578a546001600160401b03168b6000611a5783613f24565b91906101000a8154816001600160401b0302191690836001600160401b03160217905550505b8b546001600160401b03168c6000611a9483613f62565b91906101000a8154816001600160401b0302191690836001600160401b03160217905550505b6001600160401b03891615611aed578a5467ffffffffffffffff60801b1916600160801b6001600160401b03881602178b555b6001600160401b038a1615611b20578b5467ffffffffffffffff60801b1916600160801b6001600160401b03851602178c555b8d6001600160a01b0316336001600160a01b03167f13b59dd7a0ae01abfb5345c5e33cf5ef7d4f84893dcc97426454e74375159ec08385604051611b7392919060ff929092168252602082015260400190565b60405180910390a35050506001600160a01b03909916600090815260d4602052604090206001905550505050505050505050565b60ca5460cb54438210611bbb575050611c63565b80611bcb5750504360ca55611c63565b6000611bd683611f68565b90506000611be384611f93565b9050611bef30836129e8565b611bf93082612aa3565b82611c098364e8d4a51000613e5a565b611c139190613e3a565b60cc6000828254611c249190613e00565b90915550839050611c3a8264e8d4a51000613e5a565b611c449190613e3a565b60cd6000828254611c559190613e00565b90915550504360ca55505050505b565b60975460ff1615611c885760405162461bcd60e51b8152600401610ac690613d35565b33600081815260d4602052604090205460021415611ca557600080fd5b6001600160a01b038116600090815260d46020526040902060029055611cc9611ba7565b33600090815260d6602052604090208054600160401b90046001600160401b031615611cfe57611cf981336122aa565b611d77565b33600090815260d56020526040902054600214611d775733600081815260d5602090815260408083206002905560cf805460db9093529083208290556001820181559091527facb8d954e2cfef495862221e91bd7523613cf8808827cb33edfe4904cc51bf290180546001600160a01b03191690911790555b60005b8351811015611dc657611db433858381518110611da757634e487b7160e01b600052603260045260246000fd5b6020026020010151612b33565b80611dbe81613f47565b915050611d7a565b50611dd18184612c2f565b611dda816122bf565b506001600160a01b0316600090815260d4602052604090206001905550565b60975460ff1615611e1c5760405162461bcd60e51b8152600401610ac690613d35565b33600081815260d4602052604090205460021415611e3957600080fd5b6001600160a01b038116600090815260d46020526040902060029055611e5f3383612e54565b611e6857600080fd5b611e70611ba7565b33600081815260d66020526040902090611e8b9082906122aa565b60005b8351811015611eda57611ec833858381518110611ebb57634e487b7160e01b600052603260045260246000fd5b602002602001015161252f565b80611ed281613f47565b915050611e8e565b50611ee581846125a9565b611eee816122bf565b611ef733610d88565b611dda57611dda336123a9565b611f0e8282611511565b610b7557611f26816001600160a01b03166014612ecd565b611f31836020612ecd565b604051602001611f42929190613c84565b60408051601f198184030181529082905262461bcd60e51b8252610ac691600401613d02565b60c95460009064010000000090046001600160701b0316611f898343613ea2565b6107719190613e5a565b60c9546000908190600160901b90046001600160701b0316611fb58443613ea2565b611fbf9190613e5a565b9050600060d360009054906101000a90046001600160a01b03166001600160a01b03166318160ddd6040518163ffffffff1660e01b815260040160206040518083038186803b15801561201157600080fd5b505afa158015612025573d6000803e3d6000fd5b505050506040513d601f19601f820116820180604052508101906120499190613c43565b9050600060d360009054906101000a90046001600160a01b03166001600160a01b03166332cb6b0c6040518163ffffffff1660e01b815260040160206040518083038186803b15801561209b57600080fd5b505afa1580156120af573d6000803e3d6000fd5b505050506040513d601f19601f820116820180604052508101906120d39190613c43565b905080600a6120e385600b613e5a565b6120ed9190613e3a565b6120f79084613e00565b111561212157600b6121098383613ea2565b61211490600a613e5a565b61211e9190613e3a565b92505b50909392505050565b6121348282611511565b610b755760008281526065602090815260408083206001600160a01b03851684529091529020805460ff1916600117905561216c3390565b6001600160a01b0316816001600160a01b0316837f2f8788117e7eff1d82e926ec794901d17c78024a50270940304540a733656f0d60405160405180910390a45050565b6121ba8282611511565b15610b755760008281526065602090815260408083206001600160a01b0385168085529252808320805460ff1916905551339285917ff6391f5c32d9c69d2a47ea670b442974b53935d1edc7fd64eb21e047a839171b9190a45050565b60975460ff166122605760405162461bcd60e51b815260206004820152601460248201527314185d5cd8589b194e881b9bdd081c185d5cd95960621b6044820152606401610ac6565b6097805460ff191690557f5db9ee0a495bf2e6ff9c91a7834c1ba4fdd244a5e8aa4e537bd38aeae4b073aa335b6040516001600160a01b03909116815260200160405180910390a1565b6122b48282612953565b50610a6c82826130ae565b6122c8816129b1565b610c5b81613105565b600054610100900460ff166122f85760405162461bcd60e51b8152600401610ac690613d5f565b61230061313c565b61230861313c565b611c6361313c565b600054610100900460ff166123375760405162461bcd60e51b8152600401610ac690613d5f565b61233f61313c565b611c63613163565b610b75828261212a565b60975460ff16156123745760405162461bcd60e51b8152600401610ac690613d35565b6097805460ff191660011790557f62e78cea01bee320cd4e420270b5ea74000d11b0c9f74754ebdbfc544b05a25861228d3390565b60cf546000906123bb90600190613ea2565b6001600160a01b038316600090815260db602052604090205490915080821461247957600060cf838154811061240157634e487b7160e01b600052603260045260246000fd5b60009182526020909120015460cf80546001600160a01b03909216925082918490811061243e57634e487b7160e01b600052603260045260246000fd5b600091825260208083209190910180546001600160a01b0319166001600160a01b0394851617905592909116815260db909152604090208190555b6001600160a01b038316600090815260db602052604081205560cf8054806124b157634e487b7160e01b600052603160045260246000fd5b60008281526020808220830160001990810180546001600160a01b031916905590920190925533825260d590526040902060019055505050565b8060005b82811015612529578161250181613f0d565b925050612517846125128685610a71565b61252f565b8061252181613f47565b9150506124ef565b50505050565b61253881613196565b60d1546040516323b872dd60e01b81523060048201526001600160a01b03848116602483015260448201849052909116906323b872dd906064015b600060405180830381600087803b15801561258d57600080fd5b505af11580156125a1573d6000803e3d6000fd5b505050505050565b600080808080805b86518110156126525760008060008060006125f28c87815181106125e557634e487b7160e01b600052603260045260246000fd5b60200260200101516131fc565b94509450945094509450848b6126089190613e18565b9a50612614848b613e18565b9950612620838a613e18565b985061262c8289613e18565b97506126388188613e18565b96505050505050808061264a90613f47565b9150506125b1565b50846001600160401b031660cb600082825461266e9190613ea2565b9091555050865485908890600890612697908490600160401b90046001600160401b0316613eb9565b92506101000a8154816001600160401b0302191690836001600160401b03160217905550838760000160188282829054906101000a90046001600160401b03166126e19190613eb9565b82546101009290920a6001600160401b03818102199093169183160217909155885467ffffffffffffffff60801b198116600160c01b9091048216600160801b908102919091178a5560018a018054859450909260109261274792869291900416613eb9565b92506101000a8154816001600160401b0302191690836001600160401b03160217905550828760010160008282829054906101000a90046001600160401b03166127919190613eb9565b92506101000a8154816001600160401b0302191690836001600160401b03160217905550818760010160088282829054906101000a90046001600160401b03166127db9190613eb9565b92506101000a8154816001600160401b0302191690836001600160401b03160217905550438760010160186101000a8154816001600160401b0302191690836001600160401b0316021790555050505050505050565b600181015460009061285390600160c01b90046001600160401b031643613ea2565b90508015610b7557600182015460009061287e908390600160801b90046001600160401b0316613e5a565b83549091506128a6906001600160401b03600160801b8204811691600160c01b900416613eb9565b6001600160401b031681106128e5578254600160801b6001600160401b03600160c01b8304160267ffffffffffffffff60801b1990911617835561292e565b825481908490601090612909908490600160801b90046001600160401b0316613e18565b92506101000a8154816001600160401b0302191690836001600160401b031602179055505b505060010180546001600160c01b0316600160c01b436001600160401b031602179055565b600282015460cc5483546000928392909164e8d4a510009161298491600160401b90046001600160401b0316613e5a565b61298e9190613e3a565b6129989190613ea2565b905080156129aa576129aa8382613308565b9392505050565b60cc54815464e8d4a51000916129d691600160401b90046001600160401b0316613e5a565b6129e09190613e3a565b600290910155565b60d0546040516340c10f1960e01b81526001600160a01b03848116600483015260248201849052909116906340c10f1990604401600060405180830381600087803b158015612a3657600080fd5b505af1158015612a4a573d6000803e3d6000fd5b505060d05460ce546001600160a01b0391821693506340c10f19925016612a72600a85613e3a565b6040516001600160e01b031960e085901b1681526001600160a01b0390921660048301526024820152604401612573565b8015610b755760d3546040516340c10f1960e01b81526001600160a01b03848116600483015260248201849052909116906340c10f1990604401600060405180830381600087803b158015612af757600080fd5b505af1158015612b0b573d6000803e3d6000fd5b505060d35460ce546001600160a01b0391821693506340c10f19925016612a72600a85613e3a565b60d154604051630ca0549b60e11b8152600481018390526001600160a01b0390911690631940a9369060240160206040518083038186803b158015612b7757600080fd5b505afa158015612b8b573d6000803e3d6000fd5b505050506040513d601f19601f82011682018060405250810190612baf9190613b1d565b15612bb957600080fd5b60d1546040516323b872dd60e01b81526001600160a01b03848116600483015230602483015260448201849052909116906323b872dd90606401600060405180830381600087803b158015612c0d57600080fd5b505af1158015612c21573d6000803e3d6000fd5b50505050610b7582826134a2565b600080808080805b8651811015612ccb576000806000806000612c6b8c87815181106125e557634e487b7160e01b600052603260045260246000fd5b94509450945094509450848b612c819190613e18565b9a50612c8d848b613e18565b9950612c99838a613e18565b9850612ca58289613e18565b9750612cb18188613e18565b965050505050508080612cc390613f47565b915050612c37565b50846001600160401b031660cb6000828254612ce79190613e00565b9091555050865485908890600890612d10908490600160401b90046001600160401b0316613e18565b92506101000a8154816001600160401b0302191690836001600160401b03160217905550838760000160188282829054906101000a90046001600160401b0316612d5a9190613e18565b82546101009290920a6001600160401b03818102199093169183160217909155885467ffffffffffffffff60801b198116600160c01b9091048216600160801b908102919091178a5560018a0180548594509092601092612dc092869291900416613e18565b92506101000a8154816001600160401b0302191690836001600160401b03160217905550828760010160008282829054906101000a90046001600160401b0316612e0a9190613e18565b92506101000a8154816001600160401b0302191690836001600160401b03160217905550818760010160088282829054906101000a90046001600160401b03166127db9190613e18565b600160005b8251811015612ec657836001600160a01b0316612e9c848381518110612e8f57634e487b7160e01b600052603260045260246000fd5b6020026020010151610d19565b6001600160a01b031614612eb4576000915050610af5565b80612ebe81613f47565b915050612e59565b5092915050565b60606000612edc836002613e5a565b612ee7906002613e00565b6001600160401b03811115612f0c57634e487b7160e01b600052604160045260246000fd5b6040519080825280601f01601f191660200182016040528015612f36576020820181803683370190505b509050600360fc1b81600081518110612f5f57634e487b7160e01b600052603260045260246000fd5b60200101906001600160f81b031916908160001a905350600f60fb1b81600181518110612f9c57634e487b7160e01b600052603260045260246000fd5b60200101906001600160f81b031916908160001a9053506000612fc0846002613e5a565b612fcb906001613e00565b90505b600181111561305f576f181899199a1a9b1b9c1cb0b131b232b360811b85600f166010811061300d57634e487b7160e01b600052603260045260246000fd5b1a60f81b82828151811061303157634e487b7160e01b600052603260045260246000fd5b60200101906001600160f81b031916908160001a90535060049490941c9361305881613f0d565b9050612fce565b5083156129aa5760405162461bcd60e51b815260206004820181905260248201527f537472696e67733a20686578206c656e67746820696e73756666696369656e746044820152606401610ac6565b600382015460cd5483546000928392909164e8d4a51000916130df91600160401b90046001600160401b0316613e5a565b6130e99190613e3a565b6130f39190613ea2565b905080156129aa576129aa8382613560565b60cd54815464e8d4a510009161312a91600160401b90046001600160401b0316613e5a565b6131349190613e3a565b600390910155565b600054610100900460ff16611c635760405162461bcd60e51b8152600401610ac690613d5f565b600054610100900460ff1661318a5760405162461bcd60e51b8152600401610ac690613d5f565b6097805460ff19169055565b60006131a182610d19565b90506131af81600084613658565b6001600160a01b038116600090815260d8602052604081208054600192906131d8908490613ea2565b909155505050600090815260d76020526040902080546001600160a01b0319169055565b60008060008060008061320e876136c4565b90506132218160025b60200201516137d7565b61322c826001613217565b613237836000613217565b6132419190613dda565b61324b9190613dda565b61ffff16955061325c816005613217565b613267826004613217565b613272836003613217565b61327c9190613dda565b6132869190613dda565b61ffff169450613297816008613217565b6132a2826007613217565b6132ad836006613217565b6132b79190613dda565b6132c19190613dda565b61ffff1693506132d281600a613217565b6132dd826009613217565b6132e79190613dda565b61ffff1692506132f881600b613217565b61ffff1691505091939590929450565b60d0546040516370a0823160e01b81523060048201526000916001600160a01b0316906370a082319060240160206040518083038186803b15801561334c57600080fd5b505afa158015613360573d6000803e3d6000fd5b505050506040513d601f19601f820116820180604052508101906133849190613c43565b90508082111561341b5760d05460405163a9059cbb60e01b81526001600160a01b038581166004830152602482018490529091169063a9059cbb906044015b602060405180830381600087803b1580156133dd57600080fd5b505af11580156133f1573d6000803e3d6000fd5b505050506040513d601f19601f820116820180604052508101906134159190613b1d565b50610a6c565b60d05460405163a9059cbb60e01b81526001600160a01b038581166004830152602482018590529091169063a9059cbb906044015b602060405180830381600087803b15801561346a57600080fd5b505af115801561347e573d6000803e3d6000fd5b505050506040513d601f19601f820116820180604052508101906125299190613b1d565b6001600160a01b0382166134f85760405162461bcd60e51b815260206004820152601860248201527f4d696e7420746f20746865207a65726f206164647265737300000000000000006044820152606401610ac6565b61350460008383613658565b6001600160a01b038216600090815260d86020526040812080546001929061352d908490613e00565b9091555050600090815260d76020526040902080546001600160a01b0319166001600160a01b0392909216919091179055565b60d3546040516370a0823160e01b81523060048201526000916001600160a01b0316906370a082319060240160206040518083038186803b1580156135a457600080fd5b505afa1580156135b8573d6000803e3d6000fd5b505050506040513d601f19601f820116820180604052508101906135dc9190613c43565b90508082111561361f5760d35460405163a9059cbb60e01b81526001600160a01b038581166004830152602482018490529091169063a9059cbb906044016133c3565b60d35460405163a9059cbb60e01b81526001600160a01b038581166004830152602482018590529091169063a9059cbb90604401613450565b6001600160a01b03831661366b5761368e565b816001600160a01b0316836001600160a01b03161461368e5761368e8382613852565b6001600160a01b0382166136a157610a6c565b826001600160a01b0316826001600160a01b031614610a6c57610a6c82826138ef565b6136cc613933565b60d1546040516392c36c3d60e01b8152600481018490526000916001600160a01b0316906392c36c3d906024016101406040518083038186803b15801561371257600080fd5b505afa158015613726573d6000803e3d6000fd5b505050506040513d601f19601f8201168201806040525081019061374a9190613b37565b60d2546040516303bd3a5160e51b8152919b506001600160a01b031699506377a74a20985061378697508a96506004019450613cf99350505050565b6101806040518083038186803b15801561379f57600080fd5b505afa1580156137b3573d6000803e3d6000fd5b505050506040513d601f19601f820116820180604052508101906129aa9190613aa7565b600060108260ff1610156137ef575060ff8116610774565b60188260ff16101561381057613806826002613e79565b60ff169050610774565b601c8260ff16101561382757613806826006613e79565b601e8260ff16101561383e57613806826018613e79565b613849826078613e79565b60ff1692915050565b6000600161385f84610d88565b6138699190613ea2565b600083815260da60205260409020549091508082146138bc576001600160a01b038416600090815260d960209081526040808320858452825280832054848452818420819055835260da90915290208190555b50600091825260da602090815260408084208490556001600160a01b03909416835260d981528383209183525290812055565b60006138fa83610d88565b6001600160a01b03909316600090815260d960209081526040808320868452825280832085905593825260da9052919091209190915550565b604051806101800160405280600c906020820280368337509192915050565b80356001600160a01b038116811461077457600080fd5b8051801515811461077457600080fd5b803561ffff8116811461077457600080fd5b60006020828403121561399c578081fd5b6129aa82613952565b600080604083850312156139b7578081fd5b6139c083613952565b91506139ce60208401613952565b90509250929050565b600080604083850312156139e9578182fd5b6139f283613952565b946020939093013593505050565b60006020808385031215613a12578182fd5b82356001600160401b0380821115613a28578384fd5b818501915085601f830112613a3b578384fd5b813581811115613a4d57613a4d613f9f565b8060051b9150613a5e848301613daa565b8181528481019084860184860187018a1015613a78578788fd5b8795505b83861015613a9a578035835260019590950194918601918601613a7c565b5098975050505050505050565b6000610180808385031215613aba578182fd5b83601f840112613ac8578182fd5b613ad181613daa565b8084868487011115613ae1578485fd5b8493505b600c841015613b1357805160ff81168114613afe578586fd5b83526001939093019260209283019201613ae5565b5095945050505050565b600060208284031215613b2e578081fd5b6129aa82613969565b6000806000806000806000806000806101408b8d031215613b56578586fd5b613b5f8b613969565b9950613b6d60208c01613969565b985060408b0151975060608b0151965060808b0151955060a08b0151945060c08b0151935060e08b015192506101008b015191506101208b015190509295989b9194979a5092959850565b600060208284031215613bc9578081fd5b5035919050565b60008060408385031215613be2578182fd5b823591506139ce60208401613952565b600060208284031215613c03578081fd5b81356001600160e01b0319811681146129aa578182fd5b60008060408385031215613c2c578182fd5b613c3583613979565b91506139ce60208401613979565b600060208284031215613c54578081fd5b5051919050565b600060208284031215613c6c578081fd5b813568ffffffffffffffffff811681146129aa578182fd5b60007f416363657373436f6e74726f6c3a206163636f756e742000000000000000000082528351613cbc816017850160208801613ee1565b7001034b99036b4b9b9b4b733903937b6329607d1b6017918401918201528351613ced816028840160208801613ee1565b01602801949350505050565b90815260200190565b6000602082528251806020840152613d21816040850160208701613ee1565b601f01601f19169190910160400192915050565b60208082526010908201526f14185d5cd8589b194e881c185d5cd95960821b604082015260600190565b6020808252602b908201527f496e697469616c697a61626c653a20636f6e7472616374206973206e6f74206960408201526a6e697469616c697a696e6760a81b606082015260800190565b604051601f8201601f191681016001600160401b0381118282101715613dd257613dd2613f9f565b604052919050565b600061ffff808316818516808303821115613df757613df7613f89565b01949350505050565b60008219821115613e1357613e13613f89565b500190565b60006001600160401b03808316818516808303821115613df757613df7613f89565b600082613e5557634e487b7160e01b81526012600452602481fd5b500490565b6000816000190483118215151615613e7457613e74613f89565b500290565b600060ff821660ff84168160ff0481118215151615613e9a57613e9a613f89565b029392505050565b600082821015613eb457613eb4613f89565b500390565b60006001600160401b0383811690831681811015613ed957613ed9613f89565b039392505050565b60005b83811015613efc578181015183820152602001613ee4565b838111156125295750506000910152565b600081613f1c57613f1c613f89565b506000190190565b60006001600160401b03821680613f3d57613f3d613f89565b6000190192915050565b6000600019821415613f5b57613f5b613f89565b5060010190565b60006001600160401b0380831681811415613f7f57613f7f613f89565b6001019392505050565b634e487b7160e01b600052601160045260246000fd5b634e487b7160e01b600052604160045260246000fdfeed726abc78fd0de547fe6690a9e55d104343f0d09ddf8b68bce72a359aff1f89a2646970667358221220a5d5afedbd213e777f050044c4efaf10867ef92bfc2cf9156953a7b6c69b640164736f6c63430008030033",
  "immutableReferences": {},
  "source": "// SPDX-License-Identifier: GPL-3.0\r\npragma solidity ^0.8.3;\r\n// import \"@openzeppelin/contracts-upgradeable/token/ERC721/extensions/ERC721EnumerableUpgradeable.sol\";\r\nimport \"@openzeppelin/contracts-upgradeable/security/PausableUpgradeable.sol\";\r\nimport \"@openzeppelin/contracts-upgradeable/access/AccessControlUpgradeable.sol\";\r\nimport \"./RubyToken.sol\";\r\nimport \"./WODToken.sol\";\r\nimport \"./DogeHero.sol\";\r\nimport \"./GeneScience.sol\";\r\ncontract DogeWar is AccessControlUpgradeable, PausableUpgradeable {//ERC721EnumerableUpgradeable\r\n    // Percentage of difference of points to be in same range of lower and upper rivals.\r\n    uint16 public lowerPointsThreshold;\r\n    uint16 public upperPointsThreshold;\r\n    uint112 public rubyPerBlock;\r\n    uint112 public wodPerBlock;\r\n\r\n    uint256 public lastRewardBlock;\r\n    uint256 public totalShare;\r\n    uint256 public accRubyPerShare;\r\n    uint256 public accWODPerShare;\r\n    uint256 private constant _NOT_ENTERED = 1;\r\n    uint256 private constant _ENTERED = 2;\r\n\r\n    address public devAddress;\r\n    address[] public allHeroOwners;\r\n    RubyToken public rubyToken;\r\n    DogeHero public dogeHero;\r\n    GeneScience public geneScience;\r\n    WODToken public wodToken;\r\n    bytes32 public constant CEO_ROLE = keccak256(\"CEO_ROLE\");\r\n    mapping(address => uint256) public heroEntered;\r\n    mapping(address => uint256) private heroOwnerAdded;\r\n    mapping (address => Hero) public heroInfo;\r\n\r\n    // Mapping from token ID to owner address\r\n    mapping(uint256 => address) private _owners;\r\n\r\n    // Mapping owner address to token count\r\n    mapping(address => uint256) private _balances;\r\n\r\n    // Mapping from owner to list of owned token IDs\r\n    mapping(address => mapping(uint256 => uint256)) private _ownedTokens;\r\n\r\n    // Mapping from token ID to index of the owner tokens list\r\n    mapping(uint256 => uint256) private _ownedTokensIndex;\r\n    // Mapping from address to position in the allHeroes array\r\n    mapping(address => uint256) private _allHeroOwnersIndex;\r\n\r\n    struct Hero{\r\n        uint64 rank;\r\n        uint64 share;\r\n        uint64 health;\r\n        uint64 maxHealth;\r\n        uint64 attack;\r\n        uint64 defense;\r\n        uint64 healthRecovery;\r\n        uint64 lastRecoverBlock;\r\n        uint256 rubyDebt;\r\n        uint256 wodDebt;\r\n    }\r\n    //mapping (uint256 => Hero) public tokenIdToHero;\r\n    // event EnterWar(uint256 heroId);\r\n    // event LeaveWar(uint256 heroId);\r\n    event AttackDoge(address indexed attacker, address indexed defender, uint8 status, uint256 reward);\r\n    modifier nonReentrant(address heroOwner) {        \r\n        require(heroEntered[heroOwner] != _ENTERED);        \r\n        heroEntered[heroOwner] = _ENTERED;\r\n        _;        \r\n        heroEntered[heroOwner] = _NOT_ENTERED;\r\n    }\r\n    \r\n    function initialize() public initializer{\r\n        __AccessControl_init();\r\n        __Pausable_init();\r\n        _setupRole(DEFAULT_ADMIN_ROLE, msg.sender);\r\n        _setupRole(CEO_ROLE, msg.sender);\r\n        devAddress = msg.sender;\r\n        rubyPerBlock = 1000*10**18;\r\n        wodPerBlock = 10*10**18;\r\n        lowerPointsThreshold = 35;//35%\r\n        upperPointsThreshold = 1000;//1000%\r\n    }\r\n    /* function supportsInterface(bytes4 interfaceId) public view virtual override(AccessControlUpgradeable, ERC721EnumerableUpgradeable) returns (bool) {\r\n        return super.supportsInterface(interfaceId);\r\n    } */\r\n    function setDev(address newDev) external onlyRole(DEFAULT_ADMIN_ROLE){\r\n        require(newDev != address(0));\r\n        devAddress = newDev;\r\n    }\r\n    function setRubyToken(address _rubyToken) external onlyRole(CEO_ROLE){\r\n        rubyToken = RubyToken(_rubyToken);\r\n    }\r\n    function setGeneScience(address _geneScience) external onlyRole(CEO_ROLE){\r\n        geneScience = GeneScience(_geneScience);\r\n    }\r\n    function setDogeHero(address _dogeHero) external onlyRole(CEO_ROLE){\r\n        dogeHero = DogeHero(payable(_dogeHero));\r\n    }\r\n    function setWODToken(address _wodToken) external onlyRole(CEO_ROLE) {\r\n        wodToken = WODToken(_wodToken);\r\n    }\r\n    function setRubyPerBlock(uint72 _rubyPerBlock) external onlyRole(DEFAULT_ADMIN_ROLE){\r\n        rubyPerBlock = _rubyPerBlock;\r\n    }\r\n    function setWODPerBlock(uint72 _wodPerBlock) external onlyRole(DEFAULT_ADMIN_ROLE) {\r\n        wodPerBlock = _wodPerBlock;\r\n    }\r\n    function pause() external onlyRole(CEO_ROLE) whenNotPaused{\r\n        _pause();\r\n    }\r\n    function unpause() external onlyRole(CEO_ROLE) whenPaused{\r\n        _unpause();\r\n    }\r\n   \r\n    function heroEnter(uint256[] memory heroIds) external whenNotPaused nonReentrant(msg.sender){\r\n        updateReward();\r\n        Hero storage hero = heroInfo[msg.sender];\r\n        if(hero.share > 0){\r\n            _harvestReward(hero, msg.sender);\r\n        } else {\r\n            if(heroOwnerAdded[msg.sender] != _ENTERED){\r\n                _addHeroToAllHeroes(msg.sender);\r\n            }\r\n        }\r\n        for(uint256 i = 0; i < heroIds.length; i++){\r\n            _enterWar(msg.sender, heroIds[i]);\r\n        }\r\n        _addHeroes(hero, heroIds);\r\n        _updateRewardDebt(hero);\r\n    }\r\n    \r\n    function heroLeave(uint256 amount) external whenNotPaused nonReentrant(msg.sender){\r\n        uint256 balance = balanceOf(msg.sender);\r\n        require(balance >= amount);\r\n        updateReward();\r\n        Hero storage hero = heroInfo[msg.sender];\r\n        _harvestReward(hero, msg.sender);\r\n        uint256[] memory heroIds = new uint256[](amount);\r\n        uint256 originalBalance = balance;\r\n        for(uint256 i = 0; i < amount; i++){\r\n            balance--;\r\n            //leave the last hero to avoid swapping cost in _removeTokenFromOwnerEnumeration function\r\n            uint256 heroId = tokenOfOwnerByIndex(msg.sender, balance);\r\n            heroIds[i] = heroId;\r\n            _exitWar(msg.sender, heroId);\r\n        }\r\n        _removeHeroes(hero, heroIds);\r\n        _updateRewardDebt(hero);\r\n        if(originalBalance == amount){\r\n            _retireHero(msg.sender);\r\n        }\r\n    }\r\n\r\n    function heroLeave2(uint256[] memory heroIds) external whenNotPaused nonReentrant(msg.sender){       \r\n        require(_validOwner(msg.sender, heroIds));\r\n        updateReward();\r\n        Hero storage hero = heroInfo[msg.sender];\r\n        _harvestReward(hero, msg.sender);\r\n        //leave multi heroes\r\n        for(uint256 i = 0; i < heroIds.length; i++){\r\n            _exitWar(msg.sender, heroIds[i]);\r\n        }\r\n        _removeHeroes(hero, heroIds);\r\n        _updateRewardDebt(hero);\r\n        if(balanceOf(msg.sender) == 0){\r\n            _retireHero(msg.sender);\r\n        }\r\n    }\r\n    \r\n    //this function will fail if there are too many heroes to leave\r\n    function leaveAll() external whenNotPaused nonReentrant(msg.sender){\r\n        uint256 balance = balanceOf(msg.sender);\r\n        require(balance > 0);\r\n        updateReward();\r\n        Hero storage hero = heroInfo[msg.sender];\r\n        _harvestReward(hero, msg.sender);\r\n        totalShare -= hero.share;\r\n        delete heroInfo[msg.sender];\r\n        _retireHero(msg.sender);\r\n        _transferHeroes(msg.sender, balance);\r\n    }\r\n    function attackDoge(address defenderAddress) external whenNotPaused nonReentrant(msg.sender){\r\n        updateReward();\r\n        // address defenderAddress = ownerOf(defenderId);\r\n        require(balanceOf(defenderAddress) > 0);\r\n        require(areInPointsRange(msg.sender, defenderAddress));\r\n        \r\n        Hero storage defender = heroInfo[defenderAddress];\r\n        Hero storage attacker = heroInfo[msg.sender];\r\n        _recoverHero(defender);\r\n        _recoverHero(attacker);\r\n        // require(!heroEntered[defenderAddress]);\r\n        // heroEntered[defenderAddress] == true;\r\n       \r\n        uint64 trueDamageOfAttacker;\r\n        uint64 trueDamageOfDefender;\r\n        uint64 attackerDefense = attacker.defense;\r\n        uint64 attackerAttack = attacker.attack;\r\n        uint64 attackerHealth = attacker.health;\r\n\r\n        uint64 defenderDefense = defender.defense;\r\n        uint64 defenderAttack = defender.attack;\r\n        uint64 defenderHealth = defender.health;\r\n\r\n        if(defenderDefense < attackerAttack){\r\n            trueDamageOfAttacker = attackerAttack - defenderDefense;            \r\n            defenderHealth = (defenderHealth > trueDamageOfAttacker) ? (defenderHealth - trueDamageOfAttacker) : 0;\r\n        }\r\n\r\n        if(attackerDefense < defenderAttack){\r\n            trueDamageOfDefender = defenderAttack - attackerDefense;            \r\n            attackerHealth = (attackerHealth > trueDamageOfDefender) ? (attackerHealth - trueDamageOfDefender) : 0;\r\n        }\r\n        uint256 reward;\r\n        uint8 status;//=0: draw\r\n        if(defenderHealth == 0){\r\n            //attacker will rob all defender's ruby\r\n            status = 1;//=1: win\r\n            reward = _harvestRuby(defender, msg.sender);            \r\n            _updateRubyDebt(defender);\r\n            if(defender.rank > 0) defender.rank--;\r\n            attacker.rank++;\r\n        }\r\n        if(attackerHealth == 0){\r\n            //attacker will lose all his ruby\r\n            status = 2;//=2: lose\r\n            reward = _harvestRuby(attacker, defenderAddress);\r\n            _updateRubyDebt(attacker);\r\n            if(attacker.rank > 0) attacker.rank--;\r\n            defender.rank++;\r\n        }\r\n        if(trueDamageOfDefender != 0){\r\n            attacker.health = attackerHealth;\r\n        }\r\n        if(trueDamageOfAttacker != 0){\r\n            defender.health = defenderHealth;\r\n        }\r\n        //end attack\r\n        // heroEntered[defenderAddress] == false;\r\n        emit AttackDoge(msg.sender, defenderAddress, status, reward);\r\n    }\r\n    function harvestReward() external whenNotPaused nonReentrant(msg.sender){        \r\n        updateReward();\r\n        Hero storage hero = heroInfo[msg.sender];\r\n        if(hero.share > 0){\r\n            _harvestReward(hero, msg.sender);\r\n        }        \r\n        _updateRewardDebt(hero);\r\n    }\r\n    function pendingReward() external view returns(uint256 pendingRuby, uint256 pendingWOD){\r\n        Hero memory hero = heroInfo[msg.sender];\r\n        uint256 rubyPerShare = accRubyPerShare;\r\n        uint256 wodPerShare = accWODPerShare;\r\n        if (block.number > lastRewardBlock && totalShare != 0) {\r\n            uint256 rubyReward = _getRubyReward(lastRewardBlock);\r\n            uint256 wodReward = _getWODReward(lastRewardBlock);\r\n            rubyPerShare += (rubyReward * 1e12) / totalShare;\r\n            wodPerShare += (wodReward * 1e12) / totalShare;\r\n        }         \r\n        pendingRuby = ((hero.share * rubyPerShare) / 1e12) - hero.rubyDebt;\r\n        pendingWOD = ((hero.share * wodPerShare) / 1e12) - hero.wodDebt;\r\n    }\r\n    \r\n    function updateReward() public {\r\n        uint256 lastBlock = lastRewardBlock;\r\n        uint256 share = totalShare;\r\n        if (block.number <= lastBlock) {\r\n            return;\r\n        }\r\n        if (share == 0) {            \r\n            lastRewardBlock = block.number;\r\n            return;\r\n        }\r\n        \r\n        uint256 rubyReward = _getRubyReward(lastBlock);\r\n        uint256 wodReward = _getWODReward(lastBlock);\r\n        _mintRuby(address(this), rubyReward);\r\n        _mintWOD(address(this), wodReward);\r\n        accRubyPerShare += (rubyReward * 1e12) / share;\r\n        accWODPerShare += (wodReward * 1e12) / share;\r\n        \r\n        lastRewardBlock = block.number;\r\n    }\r\n    \r\n    function areInPointsRange(address _attacker, address _defender) public view returns (bool) {\r\n        Hero memory attacker = heroInfo[_attacker];\r\n        Hero memory defender = heroInfo[_defender];\r\n        uint256 attackerRank = attacker.rank;\r\n        uint256 defenderRank = defender.rank;\r\n\r\n        if (_attacker == address(0) || _defender == address(0) || _attacker == _defender) return false;\r\n        if (attackerRank < 20) return true;\r\n\r\n        uint256 pointsPercentageDifference;\r\n        if (attackerRank < defenderRank) {\r\n        // Will only be in range if the difference between points is less % than upperPointsThreshold\r\n        pointsPercentageDifference = ((defenderRank * 100) / attackerRank) - 100;\r\n        return pointsPercentageDifference < upperPointsThreshold;\r\n        } else {\r\n        uint256 rankDifference = attackerRank - defenderRank;\r\n        // Will only be in range if the difference between points is less % than lowerPointsThreshold\r\n        pointsPercentageDifference = rankDifference * 100 / attackerRank;\r\n        return pointsPercentageDifference < lowerPointsThreshold;\r\n        }\r\n    }\r\n    /**\r\n    * @notice Set Points Threshold.\r\n    * @dev Function to set the points threshold.\r\n    * @param _lowerPointsThreshold its the max percentage of difference for a lower rival.\r\n    * @param _upperPointsThreshold its the max percentage of difference for an upper rival.\r\n    */\r\n    function setPointsThreshold(uint16 _lowerPointsThreshold, uint16 _upperPointsThreshold) external onlyRole(CEO_ROLE) {\r\n        require(_lowerPointsThreshold > 0 && _lowerPointsThreshold < 100);\r\n        require(_upperPointsThreshold > 0);\r\n        lowerPointsThreshold = _lowerPointsThreshold;\r\n        upperPointsThreshold = _upperPointsThreshold;\r\n    }\r\n\r\n    function balanceOf(address owner) public view returns (uint256) {\r\n        require(owner != address(0), \"Balance query for the zero address\");\r\n        return _balances[owner];\r\n    }\r\n\r\n    function ownerOf(uint256 tokenId) public view returns (address) {\r\n        address owner = _owners[tokenId];\r\n        require(owner != address(0), \"Owner query for nonexistent token\");\r\n        return owner;\r\n    }\r\n    function tokenOfOwnerByIndex(address owner, uint256 index) public view returns (uint256) {\r\n        require(index < balanceOf(owner), \"Owner index out of bounds\");\r\n        return _ownedTokens[owner][index];\r\n    }\r\n\r\n    function getTotalHeroOwner() external view returns(uint256){\r\n        return allHeroOwners.length;\r\n    }\r\n    function _mint(address to, uint256 tokenId) internal {\r\n        require(to != address(0), \"Mint to the zero address\");\r\n        _beforeTokenTransfer(address(0), to, tokenId);\r\n        _balances[to] += 1;\r\n        _owners[tokenId] = to;\r\n    }\r\n\r\n    function _burn(uint256 tokenId) internal {\r\n        address owner = ownerOf(tokenId);\r\n        _beforeTokenTransfer(owner, address(0), tokenId);\r\n        _balances[owner] -= 1;\r\n        delete _owners[tokenId];\r\n    }\r\n    function _beforeTokenTransfer(\r\n        address from,\r\n        address to,\r\n        uint256 tokenId\r\n    ) internal {\r\n        if (from == address(0)) {\r\n            // _addTokenToAllTokensEnumeration(tokenId);\r\n        } else if (from != to) {\r\n            _removeTokenFromOwnerEnumeration(from, tokenId);\r\n        }\r\n        if (to == address(0)) {\r\n            // _removeTokenFromAllTokensEnumeration(tokenId);\r\n        } else if (to != from) {\r\n            _addTokenToOwnerEnumeration(to, tokenId);\r\n        }\r\n    }\r\n    function _addTokenToOwnerEnumeration(address to, uint256 tokenId) private {\r\n        uint256 length = balanceOf(to);\r\n        _ownedTokens[to][length] = tokenId;\r\n        _ownedTokensIndex[tokenId] = length;\r\n    }\r\n    function _removeTokenFromOwnerEnumeration(address from, uint256 tokenId) private {\r\n        // To prevent a gap in from's tokens array, we store the last token in the index of the token to delete, and\r\n        // then delete the last slot (swap and pop).\r\n\r\n        uint256 lastTokenIndex = balanceOf(from) - 1;\r\n        uint256 tokenIndex = _ownedTokensIndex[tokenId];\r\n\r\n        // When the token to delete is the last token, the swap operation is unnecessary\r\n        if (tokenIndex != lastTokenIndex) {\r\n            uint256 lastTokenId = _ownedTokens[from][lastTokenIndex];\r\n\r\n            _ownedTokens[from][tokenIndex] = lastTokenId; // Move the last token to the slot of the to-delete token\r\n            _ownedTokensIndex[lastTokenId] = tokenIndex; // Update the moved token's index\r\n        }\r\n\r\n        // This also deletes the contents at the last position of the array\r\n        delete _ownedTokensIndex[tokenId];\r\n        delete _ownedTokens[from][lastTokenIndex];\r\n    }\r\n    \r\n    function _enterWar(address owner, uint256 heroId) internal{\r\n        require(!dogeHero.isPregnant(heroId));\r\n        dogeHero.transferFrom(owner, address(this), heroId);\r\n        _mint(owner, heroId);\r\n    }\r\n    function _safeRubyTransfer(address _to, uint256 _amount) internal {\r\n        uint256 rubyBal = rubyToken.balanceOf(address(this));\r\n        if (_amount > rubyBal) {\r\n            rubyToken.transfer(_to, rubyBal);\r\n        } else {\r\n            rubyToken.transfer(_to, _amount);\r\n        }\r\n    }\r\n    function _safeWODTransfer(address _to, uint256 _amount) internal {\r\n        uint256 wodBal = wodToken.balanceOf(address(this));\r\n        if (_amount > wodBal) {\r\n            wodToken.transfer(_to, wodBal);\r\n        } else {\r\n            wodToken.transfer(_to, _amount);\r\n        }\r\n    }\r\n    function _harvestReward(Hero storage hero, address receiver) internal {\r\n        _harvestRuby(hero, receiver);\r\n        _harvestWOD(hero, receiver);\r\n    }\r\n    \r\n    function _harvestRuby(Hero storage hero, address receiver) internal returns(uint256) {        \r\n        uint256 pending = ((hero.share * accRubyPerShare) / 1e12) - hero.rubyDebt;\r\n        if(pending > 0) {\r\n            _safeRubyTransfer(receiver, pending);\r\n        }        \r\n        return pending;\r\n    }\r\n    function _harvestWOD(Hero storage hero, address receiver) internal returns(uint256) {        \r\n        uint256 pending = ((hero.share * accWODPerShare) / 1e12) - hero.wodDebt;\r\n        if(pending > 0) {\r\n            _safeWODTransfer(receiver, pending);\r\n        }        \r\n        return pending;\r\n    }\r\n    function _getHeroTraits(uint256 heroId) internal view returns(uint8[12] memory traits){\r\n        (,,,,,,,,,uint256 genes) = dogeHero.getDoge(heroId);\r\n        traits = geneScience.expressingTraits(genes);\r\n    }\r\n    function _recoverHero(Hero storage hero) internal{\r\n        uint256 multiplier = block.number - hero.lastRecoverBlock;\r\n        if(multiplier > 0){\r\n            uint256 recoverHealth = hero.healthRecovery * multiplier;\r\n            if(recoverHealth >= (hero.maxHealth - hero.health)){\r\n                hero.health = hero.maxHealth;\r\n            } else{\r\n                hero.health += uint64(recoverHealth);\r\n            }\r\n            hero.lastRecoverBlock = uint64(block.number);\r\n        }        \r\n    }\r\n    function _updateRewardDebt(Hero storage hero) internal {        \r\n        _updateRubyDebt(hero);\r\n        _updateWODDebt(hero);\r\n    }\r\n    function _updateRubyDebt(Hero storage hero) internal {\r\n        hero.rubyDebt = (hero.share * accRubyPerShare) / 1e12;\r\n    }\r\n    function _updateWODDebt(Hero storage hero) internal {\r\n        hero.wodDebt = (hero.share * accWODPerShare) / 1e12;\r\n    }\r\n    function _getHeroStat(uint256 heroId) internal view returns(uint64 share, \r\n        uint64 health, \r\n        uint64 attack, \r\n        uint64 defense,\r\n        uint64 recoverHealth){\r\n        uint8[12] memory traits = _getHeroTraits(heroId);\r\n        share = _getTraitValue(traits[0]) + _getTraitValue(traits[1]) + _getTraitValue(traits[2]);\r\n        health = _getTraitValue(traits[3]) + _getTraitValue(traits[4]) + _getTraitValue(traits[5]);\r\n        attack = _getTraitValue(traits[6]) + _getTraitValue(traits[7]) + _getTraitValue(traits[8]);\r\n        defense = _getTraitValue(traits[9]) + _getTraitValue(traits[10]); \r\n        recoverHealth = _getTraitValue(traits[11]);\r\n    }    \r\n    \r\n    function _getTraitValue(uint8 trait) internal pure returns(uint16 traitValue){\r\n        if(trait < 16) traitValue = trait;\r\n        else if(trait < 24) traitValue = 2 * trait;\r\n        else if(trait < 28) traitValue = 6 * trait;\r\n        else if(trait < 30) traitValue = 24 * trait;\r\n        else traitValue = 120 * trait;\r\n    }\r\n    function _mintRuby(address account, uint256 amount) internal{\r\n        rubyToken.mint(account, amount);\r\n        rubyToken.mint(devAddress, amount/10);\r\n    }\r\n    function _mintWOD(address account, uint256 amount) internal {        \r\n        if(amount > 0){\r\n            wodToken.mint(account, amount);\r\n            wodToken.mint(devAddress, amount/10);\r\n        }\r\n    }\r\n    function _getRubyReward(uint256 lastBlock) private view returns(uint256) {\r\n        return (block.number - lastBlock) * rubyPerBlock;\r\n    }\r\n    function _getWODReward(uint256 lastBlock) private view returns(uint256){\r\n        uint256 wodReward = (block.number - lastBlock) * wodPerBlock;\r\n\r\n        uint256 totalWOD = wodToken.totalSupply();\r\n        uint256 maxWOD = wodToken.MAX_SUPPLY();\r\n        if(totalWOD + (wodReward*11)/10 > maxWOD){\r\n            wodReward = ((maxWOD - totalWOD)*10)/11;\r\n        }\r\n        return wodReward;\r\n    }\r\n    function _addHeroes(Hero storage hero, uint256[] memory heroIds) internal {\r\n        uint64 share;\r\n        uint64 health;\r\n        uint64 attack;\r\n        uint64 defense;\r\n        uint64 recoverHealth;\r\n        for(uint256 i = 0; i < heroIds.length; i++){\r\n            (uint64 _share, \r\n            uint64 _health, \r\n            uint64 _attack, \r\n            uint64 _defense, \r\n            uint64 _recoverHealth) = _getHeroStat(heroIds[i]); \r\n            share += _share;\r\n            health += _health;\r\n            attack += _attack;\r\n            defense += _defense;\r\n            recoverHealth += _recoverHealth;\r\n        }\r\n        totalShare += share;\r\n        hero.share += share;\r\n        hero.maxHealth += health;\r\n        hero.health = hero.maxHealth;\r\n        hero.healthRecovery += recoverHealth;\r\n        hero.attack += attack;\r\n        hero.defense += defense;\r\n        hero.lastRecoverBlock = uint64(block.number);\r\n    }\r\n    \r\n    function _removeHeroes(Hero storage hero, uint256[] memory heroIds) internal {\r\n        uint64 share;\r\n        uint64 health;\r\n        uint64 attack;\r\n        uint64 defense;\r\n        uint64 recoverHealth;\r\n        for(uint256 i = 0; i < heroIds.length; i++){\r\n            (uint64 _share, \r\n            uint64 _health, \r\n            uint64 _attack, \r\n            uint64 _defense, \r\n            uint64 _recoverHealth) = _getHeroStat(heroIds[i]); \r\n            share += _share;\r\n            health += _health;\r\n            attack += _attack;\r\n            defense += _defense;\r\n            recoverHealth += _recoverHealth;\r\n        }\r\n        totalShare -= share;\r\n        hero.share -= share;\r\n        hero.maxHealth -= health;\r\n        hero.health = hero.maxHealth;\r\n        hero.healthRecovery -= recoverHealth;\r\n        hero.attack -= attack;\r\n        hero.defense -= defense;\r\n        hero.lastRecoverBlock = uint64(block.number);\r\n    }\r\n    function _exitWar(address receiver, uint256 heroId) internal{\r\n        // The exit is good! Remove the escrow heroID before sending the heroID\r\n        // to the sender so we can't have a reentrancy attack.\r\n        _burn(heroId);\r\n        dogeHero.transferFrom(address(this), receiver, heroId);        \r\n    }\r\n    function _transferHeroes(address receiver, uint256 totalHeroes) internal{\r\n        uint256 index = totalHeroes;\r\n        for(uint256 i = 0; i < totalHeroes; i++){\r\n            index--;\r\n            _exitWar(receiver, tokenOfOwnerByIndex(receiver, index));\r\n        }\r\n    }\r\n    function _validOwner(address owner, uint256[] memory heroIds) internal view returns(bool valid){\r\n        valid = true;\r\n        for(uint256 i = 0; i < heroIds.length; i++){            \r\n            if(ownerOf(heroIds[i]) != owner){\r\n                return false;\r\n            }\r\n        }\r\n    }\r\n    function _retireHero(address _heroOwner) private {        \r\n        uint256 lastHeroIndex = allHeroOwners.length - 1;\r\n        uint256 currentHeroIndex = _allHeroOwnersIndex[_heroOwner];\r\n\r\n        if(lastHeroIndex != currentHeroIndex){\r\n            address lastHeroOwner = allHeroOwners[lastHeroIndex];\r\n\r\n            allHeroOwners[currentHeroIndex] = lastHeroOwner; // Move the last token to the slot of the to-delete token\r\n            _allHeroOwnersIndex[lastHeroOwner] = currentHeroIndex; // Update the moved token's index\r\n        }       \r\n        // This also deletes the contents at the last position of the array\r\n        delete _allHeroOwnersIndex[_heroOwner];\r\n        allHeroOwners.pop();\r\n        heroOwnerAdded[msg.sender] = _NOT_ENTERED;\r\n    }\r\n    function _addHeroToAllHeroes(address _heroOwner) private {\r\n        heroOwnerAdded[msg.sender] = _ENTERED;\r\n        _allHeroOwnersIndex[_heroOwner] = allHeroOwners.length;\r\n        allHeroOwners.push(_heroOwner);\r\n    }\r\n}",
  "sourcePath": "E:\\Solidity\\worldofdoge2\\contracts\\DogeWar.sol",
  "compiler": {
    "name": "solc",
    "version": "0.8.3+commit.8d00100c.Emscripten.clang"
  },
  "schemaVersion": "3.4.3",
  "updatedAt": "2022-01-24T00:46:54.991Z",
  "networkType": "ethereum",
  "devdoc": {
    "kind": "dev",
    "methods": {
      "getRoleAdmin(bytes32)": {
        "details": "Returns the admin role that controls `role`. See {grantRole} and {revokeRole}. To change a role's admin, use {_setRoleAdmin}."
      },
      "grantRole(bytes32,address)": {
        "details": "Grants `role` to `account`. If `account` had not been already granted `role`, emits a {RoleGranted} event. Requirements: - the caller must have ``role``'s admin role."
      },
      "hasRole(bytes32,address)": {
        "details": "Returns `true` if `account` has been granted `role`."
      },
      "paused()": {
        "details": "Returns true if the contract is paused, and false otherwise."
      },
      "renounceRole(bytes32,address)": {
        "details": "Revokes `role` from the calling account. Roles are often managed via {grantRole} and {revokeRole}: this function's purpose is to provide a mechanism for accounts to lose their privileges if they are compromised (such as when a trusted device is misplaced). If the calling account had been revoked `role`, emits a {RoleRevoked} event. Requirements: - the caller must be `account`."
      },
      "revokeRole(bytes32,address)": {
        "details": "Revokes `role` from `account`. If `account` had been granted `role`, emits a {RoleRevoked} event. Requirements: - the caller must have ``role``'s admin role."
      },
      "setPointsThreshold(uint16,uint16)": {
        "details": "Function to set the points threshold.",
        "params": {
          "_lowerPointsThreshold": "its the max percentage of difference for a lower rival.",
          "_upperPointsThreshold": "its the max percentage of difference for an upper rival."
        }
      },
      "supportsInterface(bytes4)": {
        "details": "See {IERC165-supportsInterface}."
      }
    },
    "version": 1
  },
  "userdoc": {
    "kind": "user",
    "methods": {
      "setPointsThreshold(uint16,uint16)": {
        "notice": "Set Points Threshold."
      }
    },
    "version": 1
  }
}