{
  "contractName": "DogeHero",
  "abi": [
    {
      "anonymous": false,
      "inputs": [
        {
          "indexed": true,
          "internalType": "address",
          "name": "owner",
          "type": "address"
        },
        {
          "indexed": true,
          "internalType": "address",
          "name": "approved",
          "type": "address"
        },
        {
          "indexed": true,
          "internalType": "uint256",
          "name": "tokenId",
          "type": "uint256"
        }
      ],
      "name": "Approval",
      "type": "event"
    },
    {
      "anonymous": false,
      "inputs": [
        {
          "indexed": true,
          "internalType": "address",
          "name": "owner",
          "type": "address"
        },
        {
          "indexed": true,
          "internalType": "address",
          "name": "operator",
          "type": "address"
        },
        {
          "indexed": false,
          "internalType": "bool",
          "name": "approved",
          "type": "bool"
        }
      ],
      "name": "ApprovalForAll",
      "type": "event"
    },
    {
      "anonymous": false,
      "inputs": [
        {
          "indexed": false,
          "internalType": "address",
          "name": "owner",
          "type": "address"
        },
        {
          "indexed": false,
          "internalType": "uint256",
          "name": "dogeId",
          "type": "uint256"
        },
        {
          "indexed": false,
          "internalType": "uint256",
          "name": "matronId",
          "type": "uint256"
        },
        {
          "indexed": false,
          "internalType": "uint256",
          "name": "sireId",
          "type": "uint256"
        },
        {
          "indexed": false,
          "internalType": "uint256",
          "name": "genes",
          "type": "uint256"
        }
      ],
      "name": "Birth",
      "type": "event"
    },
    {
      "anonymous": false,
      "inputs": [
        {
          "indexed": false,
          "internalType": "address",
          "name": "account",
          "type": "address"
        }
      ],
      "name": "Paused",
      "type": "event"
    },
    {
      "anonymous": false,
      "inputs": [
        {
          "indexed": false,
          "internalType": "address",
          "name": "owner",
          "type": "address"
        },
        {
          "indexed": false,
          "internalType": "uint256",
          "name": "matronId",
          "type": "uint256"
        },
        {
          "indexed": false,
          "internalType": "uint256",
          "name": "sireId",
          "type": "uint256"
        },
        {
          "indexed": false,
          "internalType": "uint256",
          "name": "cooldownEndBlock",
          "type": "uint256"
        }
      ],
      "name": "Pregnant",
      "type": "event"
    },
    {
      "anonymous": false,
      "inputs": [
        {
          "indexed": true,
          "internalType": "bytes32",
          "name": "role",
          "type": "bytes32"
        },
        {
          "indexed": true,
          "internalType": "bytes32",
          "name": "previousAdminRole",
          "type": "bytes32"
        },
        {
          "indexed": true,
          "internalType": "bytes32",
          "name": "newAdminRole",
          "type": "bytes32"
        }
      ],
      "name": "RoleAdminChanged",
      "type": "event"
    },
    {
      "anonymous": false,
      "inputs": [
        {
          "indexed": true,
          "internalType": "bytes32",
          "name": "role",
          "type": "bytes32"
        },
        {
          "indexed": true,
          "internalType": "address",
          "name": "account",
          "type": "address"
        },
        {
          "indexed": true,
          "internalType": "address",
          "name": "sender",
          "type": "address"
        }
      ],
      "name": "RoleGranted",
      "type": "event"
    },
    {
      "anonymous": false,
      "inputs": [
        {
          "indexed": true,
          "internalType": "bytes32",
          "name": "role",
          "type": "bytes32"
        },
        {
          "indexed": true,
          "internalType": "address",
          "name": "account",
          "type": "address"
        },
        {
          "indexed": true,
          "internalType": "address",
          "name": "sender",
          "type": "address"
        }
      ],
      "name": "RoleRevoked",
      "type": "event"
    },
    {
      "anonymous": false,
      "inputs": [
        {
          "indexed": true,
          "internalType": "address",
          "name": "from",
          "type": "address"
        },
        {
          "indexed": true,
          "internalType": "address",
          "name": "to",
          "type": "address"
        },
        {
          "indexed": true,
          "internalType": "uint256",
          "name": "tokenId",
          "type": "uint256"
        }
      ],
      "name": "Transfer",
      "type": "event"
    },
    {
      "anonymous": false,
      "inputs": [
        {
          "indexed": false,
          "internalType": "address",
          "name": "account",
          "type": "address"
        }
      ],
      "name": "Unpaused",
      "type": "event"
    },
    {
      "stateMutability": "payable",
      "type": "fallback",
      "payable": true
    },
    {
      "inputs": [],
      "name": "CEO_ROLE",
      "outputs": [
        {
          "internalType": "bytes32",
          "name": "",
          "type": "bytes32"
        }
      ],
      "stateMutability": "view",
      "type": "function",
      "constant": true
    },
    {
      "inputs": [],
      "name": "COO_ROLE",
      "outputs": [
        {
          "internalType": "bytes32",
          "name": "",
          "type": "bytes32"
        }
      ],
      "stateMutability": "view",
      "type": "function",
      "constant": true
    },
    {
      "inputs": [],
      "name": "DEFAULT_ADMIN_ROLE",
      "outputs": [
        {
          "internalType": "bytes32",
          "name": "",
          "type": "bytes32"
        }
      ],
      "stateMutability": "view",
      "type": "function",
      "constant": true
    },
    {
      "inputs": [],
      "name": "GEN0_AUCTION_DURATION",
      "outputs": [
        {
          "internalType": "uint256",
          "name": "",
          "type": "uint256"
        }
      ],
      "stateMutability": "view",
      "type": "function",
      "constant": true
    },
    {
      "inputs": [],
      "name": "GEN0_CREATION_LIMIT",
      "outputs": [
        {
          "internalType": "uint256",
          "name": "",
          "type": "uint256"
        }
      ],
      "stateMutability": "view",
      "type": "function",
      "constant": true
    },
    {
      "inputs": [],
      "name": "GEN0_STARTING_PRICE",
      "outputs": [
        {
          "internalType": "uint256",
          "name": "",
          "type": "uint256"
        }
      ],
      "stateMutability": "view",
      "type": "function",
      "constant": true
    },
    {
      "inputs": [],
      "name": "PROMO_CREATION_LIMIT",
      "outputs": [
        {
          "internalType": "uint256",
          "name": "",
          "type": "uint256"
        }
      ],
      "stateMutability": "view",
      "type": "function",
      "constant": true
    },
    {
      "inputs": [
        {
          "internalType": "address",
          "name": "to",
          "type": "address"
        },
        {
          "internalType": "uint256",
          "name": "tokenId",
          "type": "uint256"
        }
      ],
      "name": "approve",
      "outputs": [],
      "stateMutability": "nonpayable",
      "type": "function"
    },
    {
      "inputs": [],
      "name": "autoBirthFee",
      "outputs": [
        {
          "internalType": "uint256",
          "name": "",
          "type": "uint256"
        }
      ],
      "stateMutability": "view",
      "type": "function",
      "constant": true
    },
    {
      "inputs": [
        {
          "internalType": "address",
          "name": "owner",
          "type": "address"
        }
      ],
      "name": "balanceOf",
      "outputs": [
        {
          "internalType": "uint256",
          "name": "",
          "type": "uint256"
        }
      ],
      "stateMutability": "view",
      "type": "function",
      "constant": true
    },
    {
      "inputs": [
        {
          "internalType": "uint256",
          "name": "",
          "type": "uint256"
        }
      ],
      "name": "cooldowns",
      "outputs": [
        {
          "internalType": "uint32",
          "name": "",
          "type": "uint32"
        }
      ],
      "stateMutability": "view",
      "type": "function",
      "constant": true
    },
    {
      "inputs": [],
      "name": "gen0CreatedCount",
      "outputs": [
        {
          "internalType": "uint256",
          "name": "",
          "type": "uint256"
        }
      ],
      "stateMutability": "view",
      "type": "function",
      "constant": true
    },
    {
      "inputs": [],
      "name": "geneScience",
      "outputs": [
        {
          "internalType": "contract GeneScience",
          "name": "",
          "type": "address"
        }
      ],
      "stateMutability": "view",
      "type": "function",
      "constant": true
    },
    {
      "inputs": [
        {
          "internalType": "uint256",
          "name": "tokenId",
          "type": "uint256"
        }
      ],
      "name": "getApproved",
      "outputs": [
        {
          "internalType": "address",
          "name": "",
          "type": "address"
        }
      ],
      "stateMutability": "view",
      "type": "function",
      "constant": true
    },
    {
      "inputs": [
        {
          "internalType": "bytes32",
          "name": "role",
          "type": "bytes32"
        }
      ],
      "name": "getRoleAdmin",
      "outputs": [
        {
          "internalType": "bytes32",
          "name": "",
          "type": "bytes32"
        }
      ],
      "stateMutability": "view",
      "type": "function",
      "constant": true
    },
    {
      "inputs": [
        {
          "internalType": "bytes32",
          "name": "role",
          "type": "bytes32"
        },
        {
          "internalType": "address",
          "name": "account",
          "type": "address"
        }
      ],
      "name": "grantRole",
      "outputs": [],
      "stateMutability": "nonpayable",
      "type": "function"
    },
    {
      "inputs": [
        {
          "internalType": "bytes32",
          "name": "role",
          "type": "bytes32"
        },
        {
          "internalType": "address",
          "name": "account",
          "type": "address"
        }
      ],
      "name": "hasRole",
      "outputs": [
        {
          "internalType": "bool",
          "name": "",
          "type": "bool"
        }
      ],
      "stateMutability": "view",
      "type": "function",
      "constant": true
    },
    {
      "inputs": [
        {
          "internalType": "address",
          "name": "owner",
          "type": "address"
        },
        {
          "internalType": "address",
          "name": "operator",
          "type": "address"
        }
      ],
      "name": "isApprovedForAll",
      "outputs": [
        {
          "internalType": "bool",
          "name": "",
          "type": "bool"
        }
      ],
      "stateMutability": "view",
      "type": "function",
      "constant": true
    },
    {
      "inputs": [],
      "name": "name",
      "outputs": [
        {
          "internalType": "string",
          "name": "",
          "type": "string"
        }
      ],
      "stateMutability": "view",
      "type": "function",
      "constant": true
    },
    {
      "inputs": [
        {
          "internalType": "uint256",
          "name": "tokenId",
          "type": "uint256"
        }
      ],
      "name": "ownerOf",
      "outputs": [
        {
          "internalType": "address",
          "name": "",
          "type": "address"
        }
      ],
      "stateMutability": "view",
      "type": "function",
      "constant": true
    },
    {
      "inputs": [],
      "name": "paused",
      "outputs": [
        {
          "internalType": "bool",
          "name": "",
          "type": "bool"
        }
      ],
      "stateMutability": "view",
      "type": "function",
      "constant": true
    },
    {
      "inputs": [],
      "name": "pregnantDoges",
      "outputs": [
        {
          "internalType": "uint256",
          "name": "",
          "type": "uint256"
        }
      ],
      "stateMutability": "view",
      "type": "function",
      "constant": true
    },
    {
      "inputs": [],
      "name": "promoCreatedCount",
      "outputs": [
        {
          "internalType": "uint256",
          "name": "",
          "type": "uint256"
        }
      ],
      "stateMutability": "view",
      "type": "function",
      "constant": true
    },
    {
      "inputs": [
        {
          "internalType": "bytes32",
          "name": "role",
          "type": "bytes32"
        },
        {
          "internalType": "address",
          "name": "account",
          "type": "address"
        }
      ],
      "name": "renounceRole",
      "outputs": [],
      "stateMutability": "nonpayable",
      "type": "function"
    },
    {
      "inputs": [
        {
          "internalType": "bytes32",
          "name": "role",
          "type": "bytes32"
        },
        {
          "internalType": "address",
          "name": "account",
          "type": "address"
        }
      ],
      "name": "revokeRole",
      "outputs": [],
      "stateMutability": "nonpayable",
      "type": "function"
    },
    {
      "inputs": [
        {
          "internalType": "uint256",
          "name": "",
          "type": "uint256"
        }
      ],
      "name": "rubyFees",
      "outputs": [
        {
          "internalType": "uint256",
          "name": "",
          "type": "uint256"
        }
      ],
      "stateMutability": "view",
      "type": "function",
      "constant": true
    },
    {
      "inputs": [],
      "name": "rubyToken",
      "outputs": [
        {
          "internalType": "contract RubyToken",
          "name": "",
          "type": "address"
        }
      ],
      "stateMutability": "view",
      "type": "function",
      "constant": true
    },
    {
      "inputs": [
        {
          "internalType": "address",
          "name": "from",
          "type": "address"
        },
        {
          "internalType": "address",
          "name": "to",
          "type": "address"
        },
        {
          "internalType": "uint256",
          "name": "tokenId",
          "type": "uint256"
        }
      ],
      "name": "safeTransferFrom",
      "outputs": [],
      "stateMutability": "nonpayable",
      "type": "function"
    },
    {
      "inputs": [
        {
          "internalType": "address",
          "name": "from",
          "type": "address"
        },
        {
          "internalType": "address",
          "name": "to",
          "type": "address"
        },
        {
          "internalType": "uint256",
          "name": "tokenId",
          "type": "uint256"
        },
        {
          "internalType": "bytes",
          "name": "_data",
          "type": "bytes"
        }
      ],
      "name": "safeTransferFrom",
      "outputs": [],
      "stateMutability": "nonpayable",
      "type": "function"
    },
    {
      "inputs": [],
      "name": "saleAuction",
      "outputs": [
        {
          "internalType": "contract SaleClockAuction",
          "name": "",
          "type": "address"
        }
      ],
      "stateMutability": "view",
      "type": "function",
      "constant": true
    },
    {
      "inputs": [],
      "name": "secondsPerBlock",
      "outputs": [
        {
          "internalType": "uint256",
          "name": "",
          "type": "uint256"
        }
      ],
      "stateMutability": "view",
      "type": "function",
      "constant": true
    },
    {
      "inputs": [
        {
          "internalType": "address",
          "name": "operator",
          "type": "address"
        },
        {
          "internalType": "bool",
          "name": "approved",
          "type": "bool"
        }
      ],
      "name": "setApprovalForAll",
      "outputs": [],
      "stateMutability": "nonpayable",
      "type": "function"
    },
    {
      "inputs": [
        {
          "internalType": "uint256",
          "name": "",
          "type": "uint256"
        }
      ],
      "name": "sireAllowedToAddress",
      "outputs": [
        {
          "internalType": "address",
          "name": "",
          "type": "address"
        }
      ],
      "stateMutability": "view",
      "type": "function",
      "constant": true
    },
    {
      "inputs": [],
      "name": "siringAuction",
      "outputs": [
        {
          "internalType": "contract SiringClockAuction",
          "name": "",
          "type": "address"
        }
      ],
      "stateMutability": "view",
      "type": "function",
      "constant": true
    },
    {
      "inputs": [],
      "name": "symbol",
      "outputs": [
        {
          "internalType": "string",
          "name": "",
          "type": "string"
        }
      ],
      "stateMutability": "view",
      "type": "function",
      "constant": true
    },
    {
      "inputs": [
        {
          "internalType": "uint256",
          "name": "index",
          "type": "uint256"
        }
      ],
      "name": "tokenByIndex",
      "outputs": [
        {
          "internalType": "uint256",
          "name": "",
          "type": "uint256"
        }
      ],
      "stateMutability": "view",
      "type": "function",
      "constant": true
    },
    {
      "inputs": [
        {
          "internalType": "address",
          "name": "owner",
          "type": "address"
        },
        {
          "internalType": "uint256",
          "name": "index",
          "type": "uint256"
        }
      ],
      "name": "tokenOfOwnerByIndex",
      "outputs": [
        {
          "internalType": "uint256",
          "name": "",
          "type": "uint256"
        }
      ],
      "stateMutability": "view",
      "type": "function",
      "constant": true
    },
    {
      "inputs": [
        {
          "internalType": "uint256",
          "name": "tokenId",
          "type": "uint256"
        }
      ],
      "name": "tokenURI",
      "outputs": [
        {
          "internalType": "string",
          "name": "",
          "type": "string"
        }
      ],
      "stateMutability": "view",
      "type": "function",
      "constant": true
    },
    {
      "inputs": [],
      "name": "totalSupply",
      "outputs": [
        {
          "internalType": "uint256",
          "name": "",
          "type": "uint256"
        }
      ],
      "stateMutability": "view",
      "type": "function",
      "constant": true
    },
    {
      "inputs": [
        {
          "internalType": "address",
          "name": "from",
          "type": "address"
        },
        {
          "internalType": "address",
          "name": "to",
          "type": "address"
        },
        {
          "internalType": "uint256",
          "name": "tokenId",
          "type": "uint256"
        }
      ],
      "name": "transferFrom",
      "outputs": [],
      "stateMutability": "nonpayable",
      "type": "function"
    },
    {
      "inputs": [],
      "name": "uri",
      "outputs": [
        {
          "internalType": "string",
          "name": "",
          "type": "string"
        }
      ],
      "stateMutability": "view",
      "type": "function",
      "constant": true
    },
    {
      "inputs": [
        {
          "internalType": "uint256",
          "name": "",
          "type": "uint256"
        }
      ],
      "name": "wodFees",
      "outputs": [
        {
          "internalType": "uint256",
          "name": "",
          "type": "uint256"
        }
      ],
      "stateMutability": "view",
      "type": "function",
      "constant": true
    },
    {
      "inputs": [],
      "name": "wodToken",
      "outputs": [
        {
          "internalType": "contract WODToken",
          "name": "",
          "type": "address"
        }
      ],
      "stateMutability": "view",
      "type": "function",
      "constant": true
    },
    {
      "stateMutability": "payable",
      "type": "receive",
      "payable": true
    },
    {
      "inputs": [],
      "name": "initialize",
      "outputs": [],
      "stateMutability": "nonpayable",
      "type": "function"
    },
    {
      "inputs": [
        {
          "internalType": "bytes4",
          "name": "interfaceId",
          "type": "bytes4"
        }
      ],
      "name": "supportsInterface",
      "outputs": [
        {
          "internalType": "bool",
          "name": "",
          "type": "bool"
        }
      ],
      "stateMutability": "view",
      "type": "function",
      "constant": true
    },
    {
      "inputs": [
        {
          "internalType": "string",
          "name": "newURI",
          "type": "string"
        }
      ],
      "name": "setURI",
      "outputs": [],
      "stateMutability": "nonpayable",
      "type": "function"
    },
    {
      "inputs": [
        {
          "internalType": "uint256[14]",
          "name": "_rubyFees",
          "type": "uint256[14]"
        }
      ],
      "name": "setRubyFees",
      "outputs": [],
      "stateMutability": "nonpayable",
      "type": "function"
    },
    {
      "inputs": [
        {
          "internalType": "uint256[14]",
          "name": "_wodFees",
          "type": "uint256[14]"
        }
      ],
      "name": "setWODFees",
      "outputs": [],
      "stateMutability": "nonpayable",
      "type": "function"
    },
    {
      "inputs": [
        {
          "internalType": "uint32[14]",
          "name": "_cooldowns",
          "type": "uint32[14]"
        }
      ],
      "name": "setCooldowns",
      "outputs": [],
      "stateMutability": "nonpayable",
      "type": "function"
    },
    {
      "inputs": [
        {
          "internalType": "uint256",
          "name": "secs",
          "type": "uint256"
        }
      ],
      "name": "setSecondsPerBlock",
      "outputs": [],
      "stateMutability": "nonpayable",
      "type": "function"
    },
    {
      "inputs": [
        {
          "internalType": "address",
          "name": "_address",
          "type": "address"
        }
      ],
      "name": "setGeneScienceAddress",
      "outputs": [],
      "stateMutability": "nonpayable",
      "type": "function"
    },
    {
      "inputs": [
        {
          "internalType": "address",
          "name": "_wodToken",
          "type": "address"
        }
      ],
      "name": "setWODTokenAddress",
      "outputs": [],
      "stateMutability": "nonpayable",
      "type": "function"
    },
    {
      "inputs": [
        {
          "internalType": "address",
          "name": "_rubyToken",
          "type": "address"
        }
      ],
      "name": "setRubyTokenAddress",
      "outputs": [],
      "stateMutability": "nonpayable",
      "type": "function"
    },
    {
      "inputs": [
        {
          "internalType": "address",
          "name": "_addr",
          "type": "address"
        },
        {
          "internalType": "uint256",
          "name": "_sireId",
          "type": "uint256"
        }
      ],
      "name": "approveSiring",
      "outputs": [],
      "stateMutability": "nonpayable",
      "type": "function"
    },
    {
      "inputs": [
        {
          "internalType": "uint256",
          "name": "val",
          "type": "uint256"
        }
      ],
      "name": "setAutoBirthFee",
      "outputs": [],
      "stateMutability": "nonpayable",
      "type": "function"
    },
    {
      "inputs": [
        {
          "internalType": "uint256",
          "name": "_dogeId",
          "type": "uint256"
        }
      ],
      "name": "isReadyToBreed",
      "outputs": [
        {
          "internalType": "bool",
          "name": "",
          "type": "bool"
        }
      ],
      "stateMutability": "view",
      "type": "function",
      "constant": true
    },
    {
      "inputs": [
        {
          "internalType": "uint256",
          "name": "_dogeId",
          "type": "uint256"
        }
      ],
      "name": "isPregnant",
      "outputs": [
        {
          "internalType": "bool",
          "name": "",
          "type": "bool"
        }
      ],
      "stateMutability": "view",
      "type": "function",
      "constant": true
    },
    {
      "inputs": [
        {
          "internalType": "uint256",
          "name": "_matronId",
          "type": "uint256"
        },
        {
          "internalType": "uint256",
          "name": "_sireId",
          "type": "uint256"
        }
      ],
      "name": "canBreedWith",
      "outputs": [
        {
          "internalType": "bool",
          "name": "",
          "type": "bool"
        }
      ],
      "stateMutability": "view",
      "type": "function",
      "constant": true
    },
    {
      "inputs": [
        {
          "internalType": "uint256",
          "name": "_matronId",
          "type": "uint256"
        },
        {
          "internalType": "uint256",
          "name": "_sireId",
          "type": "uint256"
        }
      ],
      "name": "breedWithAuto",
      "outputs": [],
      "stateMutability": "payable",
      "type": "function",
      "payable": true
    },
    {
      "inputs": [
        {
          "internalType": "uint256",
          "name": "_matronId",
          "type": "uint256"
        }
      ],
      "name": "giveBirth",
      "outputs": [
        {
          "internalType": "uint256",
          "name": "",
          "type": "uint256"
        }
      ],
      "stateMutability": "nonpayable",
      "type": "function"
    },
    {
      "inputs": [
        {
          "internalType": "address",
          "name": "_address",
          "type": "address"
        }
      ],
      "name": "setSaleAuctionAddress",
      "outputs": [],
      "stateMutability": "nonpayable",
      "type": "function"
    },
    {
      "inputs": [
        {
          "internalType": "address",
          "name": "_address",
          "type": "address"
        }
      ],
      "name": "setSiringAuctionAddress",
      "outputs": [],
      "stateMutability": "nonpayable",
      "type": "function"
    },
    {
      "inputs": [
        {
          "internalType": "uint256",
          "name": "_dogeId",
          "type": "uint256"
        },
        {
          "internalType": "uint256",
          "name": "_startingPrice",
          "type": "uint256"
        },
        {
          "internalType": "uint256",
          "name": "_endingPrice",
          "type": "uint256"
        },
        {
          "internalType": "uint256",
          "name": "_duration",
          "type": "uint256"
        }
      ],
      "name": "createSaleAuction",
      "outputs": [],
      "stateMutability": "nonpayable",
      "type": "function"
    },
    {
      "inputs": [
        {
          "internalType": "uint256",
          "name": "_dogeId",
          "type": "uint256"
        },
        {
          "internalType": "uint256",
          "name": "_startingPrice",
          "type": "uint256"
        },
        {
          "internalType": "uint256",
          "name": "_endingPrice",
          "type": "uint256"
        },
        {
          "internalType": "uint256",
          "name": "_duration",
          "type": "uint256"
        }
      ],
      "name": "createSiringAuction",
      "outputs": [],
      "stateMutability": "nonpayable",
      "type": "function"
    },
    {
      "inputs": [
        {
          "internalType": "uint256",
          "name": "_sireId",
          "type": "uint256"
        },
        {
          "internalType": "uint256",
          "name": "_matronId",
          "type": "uint256"
        }
      ],
      "name": "bidOnSiringAuction",
      "outputs": [],
      "stateMutability": "payable",
      "type": "function",
      "payable": true
    },
    {
      "inputs": [],
      "name": "withdrawAuctionBalances",
      "outputs": [],
      "stateMutability": "nonpayable",
      "type": "function"
    },
    {
      "inputs": [
        {
          "internalType": "uint256",
          "name": "_genes",
          "type": "uint256"
        },
        {
          "internalType": "address",
          "name": "_owner",
          "type": "address"
        }
      ],
      "name": "createPromoDoge",
      "outputs": [],
      "stateMutability": "nonpayable",
      "type": "function"
    },
    {
      "inputs": [
        {
          "internalType": "uint256[]",
          "name": "_genes",
          "type": "uint256[]"
        },
        {
          "internalType": "address[]",
          "name": "_owner",
          "type": "address[]"
        }
      ],
      "name": "createPromoDogeBatch",
      "outputs": [],
      "stateMutability": "nonpayable",
      "type": "function"
    },
    {
      "inputs": [
        {
          "internalType": "uint256",
          "name": "_genes",
          "type": "uint256"
        }
      ],
      "name": "createGen0Auction",
      "outputs": [],
      "stateMutability": "nonpayable",
      "type": "function"
    },
    {
      "inputs": [
        {
          "internalType": "uint256[]",
          "name": "_genes",
          "type": "uint256[]"
        }
      ],
      "name": "createGen0AuctionBatch",
      "outputs": [],
      "stateMutability": "nonpayable",
      "type": "function"
    },
    {
      "inputs": [
        {
          "internalType": "uint256",
          "name": "_id",
          "type": "uint256"
        }
      ],
      "name": "getDoge",
      "outputs": [
        {
          "internalType": "bool",
          "name": "isGestating",
          "type": "bool"
        },
        {
          "internalType": "bool",
          "name": "isReady",
          "type": "bool"
        },
        {
          "internalType": "uint256",
          "name": "cooldownIndex",
          "type": "uint256"
        },
        {
          "internalType": "uint256",
          "name": "nextActionAt",
          "type": "uint256"
        },
        {
          "internalType": "uint256",
          "name": "siringWithId",
          "type": "uint256"
        },
        {
          "internalType": "uint256",
          "name": "birthTime",
          "type": "uint256"
        },
        {
          "internalType": "uint256",
          "name": "matronId",
          "type": "uint256"
        },
        {
          "internalType": "uint256",
          "name": "sireId",
          "type": "uint256"
        },
        {
          "internalType": "uint256",
          "name": "generation",
          "type": "uint256"
        },
        {
          "internalType": "uint256",
          "name": "genes",
          "type": "uint256"
        }
      ],
      "stateMutability": "view",
      "type": "function",
      "constant": true
    },
    {
      "inputs": [],
      "name": "unpause",
      "outputs": [],
      "stateMutability": "nonpayable",
      "type": "function"
    },
    {
      "inputs": [],
      "name": "pause",
      "outputs": [],
      "stateMutability": "nonpayable",
      "type": "function"
    },
    {
      "inputs": [],
      "name": "withdrawBalance",
      "outputs": [],
      "stateMutability": "nonpayable",
      "type": "function"
    }
  ],
  "bytecode": "0x608060405234801561001057600080fd5b506152ec806100206000396000f3fe6080604052600436106104355760003560e01c8063680eba2711610229578063b514be631161012e578063defb9584116100b6578063f07e81191161007a578063f07e811914610cf5578063f1ca941014610d16578063f22d7d1014610d2d578063f2b47d5214610d44578063f7d8c88314610d655761043c565b8063defb958414610c76578063e6cbe35114610c8c578063e985e9c514610cad578063eac989f814610ccd578063ed60ade614610ce25761043c565b8063c3bea9af116100fd578063c3bea9af14610bd6578063c87b56dd14610bf6578063d3e6f49f14610c16578063d41226eb14610c36578063d547741f14610c565761043c565b8063b514be6314610b54578063b88d4fde14610b76578063c290a1b914610b96578063c324e3fb14610bb65761043c565b806391d14854116101b15780639d6fac6f116101805780639d6fac6f14610ab3578063a217fddf14610ae8578063a22cb46514610afd578063ad8dbb5b14610b1d578063b0c35c0514610b3d5761043c565b806391d14854146109f257806392c36c3d14610a1257806395d89b4114610a7e57806398b205f614610a935761043c565b80638129fc1c116101f85780638129fc1c146109735780638456cb591461098857806388c2a0bf1461099d5780638d91c77e146109bd57806391876e57146109dd5761043c565b8063680eba27146109065780636fbde40d1461091c57806370a082311461093c5780637a7d49371461095c5761043c565b80632f745c591161033a5780634ad8c938116102c25780635663896e116102865780635663896e146108785780635c975abb146108985780635fd8c710146108b0578063620db609146108c55780636352211e146108e65761043c565b80634ad8c938146107d85780634b3210b1146107f85780634b85fd55146108185780634dfff04f146108385780634f6ccce7146108585761043c565b80633d7d3f5a116103095780633d7d3f5a1461072c5780633f4ba83a1461074c57806342842e0e1461076157806346116e6f1461078157806346d22c70146107b85761043c565b80632f745c59146106aa57806332c45eb8146106ca57806336568abe146106ea5780633acfd44f1461070a5761043c565b806318160ddd116103bd57806321717ebf1161038c57806321717ebf146105f957806323b872dd1461061a578063248a9ca31461063a57806324e7a38a1461066a5780632f2ff15d1461068a5761043c565b806318160ddd1461058d5780631940a936146105a257806319a70b12146105c257806319c2f201146105e25761043c565b8063081812fc11610404578063081812fc146104da578063095ea7b31461051257806309c9e252146105325780630e583df01461055257806314001f4c1461056d5761043c565b806301ffc9a71461043e57806302fe53051461047357806305e455461461049357806306fdde03146104b85761043c565b3661043c57005b005b34801561044a57600080fd5b5061045e610459366004614d1c565b610d78565b60405190151581526020015b60405180910390f35b34801561047f57600080fd5b5061043c61048e366004614d54565b610d8b565b34801561049f57600080fd5b506104aa6101525481565b60405190815260200161046a565b3480156104c457600080fd5b506104cd610db1565b60405161046a9190614f10565b3480156104e657600080fd5b506104fa6104f5366004614ce2565b610e43565b6040516001600160a01b03909116815260200161046a565b34801561051e57600080fd5b5061043c61052d366004614ad2565b610edd565b34801561053e57600080fd5b5061043c61054d366004614b63565b610fee565b34801561055e57600080fd5b506104aa662386f26fc1000081565b34801561057957600080fd5b5061043c61058836600461499d565b611125565b34801561059957600080fd5b506099546104aa565b3480156105ae57600080fd5b5061045e6105bd366004614ce2565b6111e2565b3480156105ce57600080fd5b5061043c6105dd366004614afb565b611237565b3480156105ee57600080fd5b506104aa62093a8081565b34801561060557600080fd5b50610157546104fa906001600160a01b031681565b34801561062657600080fd5b5061043c6106353660046149e9565b61125e565b34801561064657600080fd5b506104aa610655366004614ce2565b600090815260c9602052604090206001015490565b34801561067657600080fd5b5061043c61068536600461499d565b61128f565b34801561069657600080fd5b5061043c6106a5366004614cfa565b61134c565b3480156106b657600080fd5b506104aa6106c5366004614ad2565b611372565b3480156106d657600080fd5b5061043c6106e536600461499d565b611408565b3480156106f657600080fd5b5061043c610705366004614cfa565b611445565b34801561071657600080fd5b506104aa60008051602061527783398151915281565b34801561073857600080fd5b5061043c610747366004614dd2565b6114c3565b34801561075857600080fd5b5061043c611587565b34801561076d57600080fd5b5061043c61077c3660046149e9565b611636565b34801561078d57600080fd5b506104fa61079c366004614ce2565b610155602052600090815260409020546001600160a01b031681565b3480156107c457600080fd5b5061045e6107d3366004614db1565b611651565b3480156107e457600080fd5b5061043c6107f3366004614dd2565b6116fa565b34801561080457600080fd5b5061043c610813366004614c57565b611785565b34801561082457600080fd5b5061043c610833366004614ce2565b6117ac565b34801561084457600080fd5b5061043c610853366004614ad2565b6117cc565b34801561086457600080fd5b506104aa610873366004614ce2565b61183b565b34801561088457600080fd5b5061043c610893366004614ce2565b6118dc565b3480156108a457600080fd5b5060fb5460ff1661045e565b3480156108bc57600080fd5b5061043c611904565b3480156108d157600080fd5b50610151546104fa906001600160a01b031681565b3480156108f257600080fd5b506104fa610901366004614ce2565b61195c565b34801561091257600080fd5b506104aa61afc881565b34801561092857600080fd5b5061043c61093736600461499d565b6119d3565b34801561094857600080fd5b506104aa61095736600461499d565b611aa1565b34801561096857600080fd5b506104aa61014c5481565b34801561097f57600080fd5b5061043c611b28565b34801561099457600080fd5b5061043c611d71565b3480156109a957600080fd5b506104aa6109b8366004614ce2565b611db5565b3480156109c957600080fd5b506104aa6109d8366004614ce2565b61206c565b3480156109e957600080fd5b5061043c612084565b3480156109fe57600080fd5b5061045e610a0d366004614cfa565b612165565b348015610a1e57600080fd5b50610a32610a2d366004614ce2565b612190565b604080519a15158b5298151560208b0152978901969096526060880194909452608087019290925260a086015260c085015260e08401526101008301526101208201526101400161046a565b348015610a8a57600080fd5b506104cd61231e565b348015610a9f57600080fd5b5061043c610aae366004614cfa565b61232d565b348015610abf57600080fd5b50610ad3610ace366004614ce2565b612375565b60405163ffffffff909116815260200161046a565b348015610af457600080fd5b506104aa600081565b348015610b0957600080fd5b5061043c610b18366004614a9c565b6123a6565b348015610b2957600080fd5b5061043c610b3836600461499d565b6123b1565b348015610b4957600080fd5b506104aa61014d5481565b348015610b6057600080fd5b506104aa60008051602061529783398151915281565b348015610b8257600080fd5b5061043c610b91366004614a24565b6123ee565b348015610ba257600080fd5b5061043c610bb1366004614afb565b612426565b348015610bc257600080fd5b5061043c610bd1366004614b95565b61244d565b348015610be257600080fd5b5061043c610bf1366004614ce2565b61251e565b348015610c0257600080fd5b506104cd610c11366004614ce2565b6125f8565b348015610c2257600080fd5b5061045e610c31366004614ce2565b6126d3565b348015610c4257600080fd5b506104aa610c51366004614ce2565b6127a1565b348015610c6257600080fd5b5061043c610c71366004614cfa565b6127b2565b348015610c8257600080fd5b506104aa61138881565b348015610c9857600080fd5b50610156546104fa906001600160a01b031681565b348015610cb957600080fd5b5061045e610cc83660046149b7565b6127d8565b348015610cd957600080fd5b506104cd612806565b61043c610cf0366004614db1565b612895565b348015610d0157600080fd5b50610150546104fa906001600160a01b031681565b348015610d2257600080fd5b506104aa6101535481565b348015610d3957600080fd5b506104aa61014e5481565b348015610d5057600080fd5b5061014f546104fa906001600160a01b031681565b61043c610d73366004614db1565b612a1e565b6000610d8382612c33565b90505b919050565b6000610d9881335b612c58565b8151610dac9061012d906020850190614767565b505050565b606060658054610dc0906151a6565b80601f0160208091040260200160405190810160405280929190818152602001828054610dec906151a6565b8015610e395780601f10610e0e57610100808354040283529160200191610e39565b820191906000526020600020905b815481529060010190602001808311610e1c57829003601f168201915b5050505050905090565b6000818152606760205260408120546001600160a01b0316610ec15760405162461bcd60e51b815260206004820152602c60248201527f4552433732313a20617070726f76656420717565727920666f72206e6f6e657860448201526b34b9ba32b73a103a37b5b2b760a11b60648201526084015b60405180910390fd5b506000908152606960205260409020546001600160a01b031690565b6000610ee88261195c565b9050806001600160a01b0316836001600160a01b03161415610f565760405162461bcd60e51b815260206004820152602160248201527f4552433732313a20617070726f76616c20746f2063757272656e74206f776e656044820152603960f91b6064820152608401610eb8565b336001600160a01b0382161480610f725750610f728133610cc8565b610fe45760405162461bcd60e51b815260206004820152603860248201527f4552433732313a20617070726f76652063616c6c6572206973206e6f74206f7760448201527f6e6572206e6f7220617070726f76656420666f7220616c6c00000000000000006064820152608401610eb8565b610dac8383612cbc565b6000805160206152778339815191526110078133610d93565b61015354825161101657600080fd5b61afc883518261102691906150ba565b111561103157600080fd5b60005b835181101561110f576000611084600080600088868151811061106757634e487b7160e01b600052603260045260246000fd5b6020908102919091010151610156546001600160a01b0316612d2a565b610156549091506001600160a01b031663f40e28f2826110a2612fab565b600062093a80306040518663ffffffff1660e01b81526004016110c995949392919061503b565b600060405180830381600087803b1580156110e357600080fd5b505af11580156110f7573d6000803e3d6000fd5b50505050508080611107906151e1565b915050611034565b50825161111c90826150ba565b61015355505050565b60008051602061529783398151915261113e8133610d93565b6000829050806001600160a01b03166376190f8f6040518163ffffffff1660e01b815260040160206040518083038186803b15801561117c57600080fd5b505afa158015611190573d6000803e3d6000fd5b505050506040513d601f19601f820116820180604052508101906111b49190614cc6565b6111bd57600080fd5b61015780546001600160a01b0319166001600160a01b03929092169190911790555050565b60008082116111f057600080fd5b610154828154811061121257634e487b7160e01b600052603260045260246000fd5b60009182526020909120600390910201600201546001600160401b0316151592915050565b6000805160206152978339815191526112508133610d93565b610dac61013e83600e6147eb565b6112683382613084565b6112845760405162461bcd60e51b8152600401610eb890614f9f565b610dac83838361315b565b6000805160206152978339815191526112a88133610d93565b6000829050806001600160a01b03166354c15b826040518163ffffffff1660e01b815260040160206040518083038186803b1580156112e657600080fd5b505afa1580156112fa573d6000803e3d6000fd5b505050506040513d601f19601f8201168201806040525081019061131e9190614cc6565b61132757600080fd5b61014f80546001600160a01b0319166001600160a01b03929092169190911790555050565b600082815260c960205260409020600101546113688133610d93565b610dac8383613306565b600061137d83611aa1565b82106113df5760405162461bcd60e51b815260206004820152602b60248201527f455243373231456e756d657261626c653a206f776e657220696e646578206f7560448201526a74206f6620626f756e647360a81b6064820152608401610eb8565b506001600160a01b03919091166000908152609760209081526040808320938352929052205490565b6000805160206152978339815191526114218133610d93565b5061015180546001600160a01b0319166001600160a01b0392909216919091179055565b6001600160a01b03811633146114b55760405162461bcd60e51b815260206004820152602f60248201527f416363657373436f6e74726f6c3a2063616e206f6e6c792072656e6f756e636560448201526e103937b632b9903337b91039b2b63360891b6064820152608401610eb8565b6114bf828261338c565b5050565b60fb5460ff16156114e65760405162461bcd60e51b8152600401610eb890614f75565b336114f08561195c565b6001600160a01b03161461150357600080fd5b61150c846111e2565b1561151657600080fd5b610156546040516313f5f20560e11b81526001600160a01b03909116906327ebe40a9061154f908790879087908790339060040161503b565b600060405180830381600087803b15801561156957600080fd5b505af115801561157d573d6000803e3d6000fd5b5050505050505050565b6000805160206152978339815191526115a08133610d93565b60fb5460ff166115e95760405162461bcd60e51b815260206004820152601460248201527314185d5cd8589b194e881b9bdd081c185d5cd95960621b6044820152606401610eb8565b610156546001600160a01b03166115ff57600080fd5b610157546001600160a01b031661161557600080fd5b61014f546001600160a01b031661162b57600080fd5b6116336133f3565b50565b610dac838383604051806020016040528060008152506123ee565b600080831161165f57600080fd5b6000821161166c57600080fd5b6000610154848154811061169057634e487b7160e01b600052603260045260246000fd5b90600052602060002090600302019050600061015484815481106116c457634e487b7160e01b600052603260045260246000fd5b906000526020600020906003020190506116e082868387613486565b80156116f157506116f18486613623565b95945050505050565b60fb5460ff161561171d5760405162461bcd60e51b8152600401610eb890614f75565b336117278561195c565b6001600160a01b03161461173a57600080fd5b611743846126d3565b61174c57600080fd5b610157546040516313f5f20560e11b81526001600160a01b03909116906327ebe40a9061154f908790879087908790339060040161503b565b60008051602061529783398151915261179e8133610d93565b610dac61012e83600e614818565b6000805160206152778339815191526117c58133610d93565b5061014d55565b60fb5460ff16156117ef5760405162461bcd60e51b8152600401610eb890614f75565b336117f98261195c565b6001600160a01b03161461180c57600080fd5b60009081526101556020526040902080546001600160a01b0319166001600160a01b0392909216919091179055565b600061184660995490565b82106118a95760405162461bcd60e51b815260206004820152602c60248201527f455243373231456e756d657261626c653a20676c6f62616c20696e646578206f60448201526b7574206f6620626f756e647360a01b6064820152608401610eb8565b609982815481106118ca57634e487b7160e01b600052603260045260246000fd5b90600052602060002001549050919050565b60006118e88133610d93565b61012e5463ffffffff1682106118fd57600080fd5b5061014c55565b60008051602061529783398151915261191d8133610d93565b61014d5461014e5447916000916119359060016150ba565b61193f9190615105565b905080821115610dac57610dac336119578385615124565b613682565b6000818152606760205260408120546001600160a01b031680610d835760405162461bcd60e51b815260206004820152602960248201527f4552433732313a206f776e657220717565727920666f72206e6f6e657869737460448201526832b73a103a37b5b2b760b91b6064820152608401610eb8565b6000805160206152978339815191526119ec8133610d93565b6000829050806001600160a01b03166385b861886040518163ffffffff1660e01b815260040160206040518083038186803b158015611a2a57600080fd5b505afa158015611a3e573d6000803e3d6000fd5b505050506040513d601f19601f82011682018060405250810190611a629190614cc6565b611a6b57600080fd5b61015680546001600160a01b0319166001600160a01b038316179055611a9130846127d8565b610dac57610dac3084600161371c565b60006001600160a01b038216611b0c5760405162461bcd60e51b815260206004820152602a60248201527f4552433732313a2062616c616e636520717565727920666f7220746865207a65604482015269726f206164647265737360b01b6064820152608401610eb8565b506001600160a01b031660009081526068602052604090205490565b600054610100900460ff16611b435760005460ff1615611b47565b303b155b611baa5760405162461bcd60e51b815260206004820152602e60248201527f496e697469616c697a61626c653a20636f6e747261637420697320616c72656160448201526d191e481a5b9a5d1a585b1a5e995960921b6064820152608401610eb8565b600054610100900460ff16158015611bcc576000805461ffff19166101011790555b611bd46137eb565b611c1f60405180604001604052806009815260200168446f6765204865726f60b81b81525060405180604001604052806008815260200167444f47454845524f60c01b81525061382c565b611c276137eb565b611c2f61386d565b611c3a6000336138a4565b611c52600080516020615297833981519152336138a4565b611c6a600080516020615277833981519152336138a4565b611c7b600080600060001930612d2a565b5060408051808201909152600f8082526e776f726c646f66646f67652e696f2f60881b6020909201918252611cb39161012d91614767565b50600361014c55604080516101c08101825261038481526107086020820152610e1091810191909152611c206060820152613840608082015261708060a082015261e10060c08201526201518060e08201526202a3006101008201526203f48061012082015262054600610140820152620697806101608201526207e90061018082015262093a806101a0820152611d509061012e90600e614818565b5066071afd498d000061014d558015611633576000805461ff001916905550565b600080516020615297833981519152611d8a8133610d93565b60fb5460ff1615611dad5760405162461bcd60e51b8152600401610eb890614f75565b6116336138ae565b6000611dc360fb5460ff1690565b15611de05760405162461bcd60e51b8152600401610eb890614f75565b60006101548381548110611e0457634e487b7160e01b600052603260045260246000fd5b6000918252602090912060039091020160018101549091506001600160401b0316611e2e57600080fd5b60408051610100810182528254815260018301546001600160401b038082166020840152600160401b808304821694840194909452600160801b820481166060840152600160c01b90910481166080830152600284015490811660a083015263ffffffff928104831660c0830152600160601b900490911660e0820152611eb490613906565b611ebd57600080fd5b600281015461015480546001600160401b03909216916000919083908110611ef557634e487b7160e01b600052603260045260246000fd5b6000918252602090912060028086015460039093029091019081015490925063ffffffff600160601b928390048116929091041681811115611f35578091505b61014f54855484546001808901546000946001600160a01b031693630d9f5aed9390929091611f749190600160401b90046001600160401b031661513b565b6040516001600160e01b031960e086901b168152600481019390935260248301919091526001600160401b0316604482015260640160206040518083038186803b158015611fc157600080fd5b505afa158015611fd5573d6000803e3d6000fd5b505050506040513d601f19601f82011682018060405250810190611ff99190614d99565b905060006120068961195c565b905060006120278a8861201a8860016150d2565b63ffffffff168686612d2a565b60028901805467ffffffffffffffff1916905561014e8054919250600061204d8361518f565b919050555061205f3361014d54613682565b9998505050505050505050565b61013081600e811061207d57600080fd5b0154905081565b60006120908133610d93565b61015660009054906101000a90046001600160a01b03166001600160a01b0316635fd8c7106040518163ffffffff1660e01b8152600401600060405180830381600087803b1580156120e157600080fd5b505af11580156120f5573d6000803e3d6000fd5b5050505061015760009054906101000a90046001600160a01b03166001600160a01b0316635fd8c7106040518163ffffffff1660e01b8152600401600060405180830381600087803b15801561214a57600080fd5b505af115801561215e573d6000803e3d6000fd5b5050505050565b600091825260c9602090815260408084206001600160a01b0393909316845291905290205460ff1690565b60008060008060008060008060008060006101548c815481106121c357634e487b7160e01b600052603260045260246000fd5b906000526020600020906003020190508060020160009054906101000a90046001600160401b03166001600160401b0316600014159a50438160010160089054906101000a90046001600160401b03166001600160401b0316111599508060020160089054906101000a900463ffffffff1663ffffffff1698508060010160089054906101000a90046001600160401b03166001600160401b031697508060020160009054906101000a90046001600160401b03166001600160401b031696508060010160009054906101000a90046001600160401b03166001600160401b031695508060010160109054906101000a90046001600160401b03166001600160401b031694508060010160189054906101000a90046001600160401b03166001600160401b0316935080600201600c9054906101000a900463ffffffff1663ffffffff16925080600001549150509193959799509193959799565b606060668054610dc0906151a6565b6000805160206152778339815191526123468133610d93565b61015254611388811061235857600080fd5b6123638160016150ba565b6101525561215e600080808787612d2a565b61012e81600e811061238657600080fd5b60089182820401919006600402915054906101000a900463ffffffff1681565b6114bf33838361371c565b6000805160206152978339815191526123ca8133610d93565b5061015080546001600160a01b0319166001600160a01b0392909216919091179055565b6123f83383613084565b6124145760405162461bcd60e51b8152600401610eb890614f9f565b61242084848484613938565b50505050565b60008051602061529783398151915261243f8133610d93565b610dac61013083600e6147eb565b6000805160206152778339815191526124668133610d93565b6101525483516113889061247a90836150ba565b1061248457600080fd5b825184511461249257600080fd5b835161249e90826150ba565b6101525560005b845181101561215e5761250b60008060008885815181106124d657634e487b7160e01b600052603260045260246000fd5b60200260200101518886815181106124fe57634e487b7160e01b600052603260045260246000fd5b6020026020010151612d2a565b5080612516816151e1565b9150506124a5565b6000805160206152778339815191526125378133610d93565b6101535461afc8811061254957600080fd5b6101565460009061256a9082908190819088906001600160a01b0316612d2a565b610156549091506001600160a01b031663f40e28f282612588612fab565b600062093a80306040518663ffffffff1660e01b81526004016125af95949392919061503b565b600060405180830381600087803b1580156125c957600080fd5b505af11580156125dd573d6000803e3d6000fd5b505050508160016125ee91906150ba565b6101535550505050565b6000818152606760205260409020546060906001600160a01b03166126775760405162461bcd60e51b815260206004820152602f60248201527f4552433732314d657461646174613a2055524920717565727920666f72206e6f60448201526e3732bc34b9ba32b73a103a37b5b2b760891b6064820152608401610eb8565b600061268161396b565b905060008151116126a157604051806020016040528060008152506126cc565b806126ab8461397b565b6040516020016126bc929190614e2f565b6040516020818303038152906040525b9392505050565b60008082116126e157600080fd5b6000610154838154811061270557634e487b7160e01b600052603260045260246000fd5b6000918252602091829020604080516101008101825260039093029091018054835260018101546001600160401b0380821695850195909552600160401b808204861693850193909352600160801b810485166060850152600160c01b900484166080840152600281015493841660a084015263ffffffff918404821660c0840152600160601b9093041660e08201529091506126cc90613a95565b61013e81600e811061207d57600080fd5b600082815260c960205260409020600101546127ce8133610d93565b610dac838361338c565b6001600160a01b039182166000908152606a6020908152604080832093909416825291909152205460ff1690565b61012d8054612814906151a6565b80601f0160208091040260200160405190810160405280929190818152602001828054612840906151a6565b801561288d5780601f106128625761010080835404028352916020019161288d565b820191906000526020600020905b81548152906001019060200180831161287057829003601f168201915b505050505081565b60fb5460ff16156128b85760405162461bcd60e51b8152600401610eb890614f75565b336128c28261195c565b6001600160a01b0316146128d557600080fd5b6128de816126d3565b6128e757600080fd5b6128f18183613ac6565b6128fa57600080fd5b61014d54610157546040516362ae87ab60e11b8152600481018590526000916001600160a01b03169063c55d0f569060240160206040518083038186803b15801561294457600080fd5b505afa158015612958573d6000803e3d6000fd5b505050506040513d601f19601f8201168201806040525081019061297c9190614d99565b905061298882826150ba565b34101561299457600080fd5b610157546001600160a01b031663454a2ab36129b08434615124565b866040518363ffffffff1660e01b81526004016129cf91815260200190565b6000604051808303818588803b1580156129e857600080fd5b505af11580156129fc573d6000803e3d6000fd5b5050505050612420836001600160401b0316856001600160401b031633613b3b565b60fb5460ff1615612a415760405162461bcd60e51b8152600401610eb890614f75565b61014d54341015612a5157600080fd5b33612a5b8361195c565b6001600160a01b031614612a6e57600080fd5b612a788183613623565b612a8157600080fd5b60006101548381548110612aa557634e487b7160e01b600052603260045260246000fd5b6000918252602091829020604080516101008101825260039093029091018054835260018101546001600160401b0380821695850195909552600160401b808204861693850193909352600160801b810485166060850152600160c01b900484166080840152600281015493841660a084015263ffffffff918404821660c0840152600160601b9093041660e0820152909150612b4190613a95565b612b4a57600080fd5b60006101548381548110612b6e57634e487b7160e01b600052603260045260246000fd5b6000918252602091829020604080516101008101825260039093029091018054835260018101546001600160401b0380821695850195909552600160401b808204861693850193909352600160801b810485166060850152600160c01b900484166080840152600281015493841660a084015263ffffffff918404821660c0840152600160601b9093041660e0820152909150612c0a90613a95565b612c1357600080fd5b612c1f82858386613486565b612c2857600080fd5b612420848433613b3b565b60006001600160e01b03198216637965db0b60e01b1480610d835750610d8382613c95565b612c628282612165565b6114bf57612c7a816001600160a01b03166014613cba565b612c85836020613cba565b604051602001612c96929190614e5e565b60408051601f198184030181529082905262461bcd60e51b8252610eb891600401614f10565b600081815260696020526040902080546001600160a01b0319166001600160a01b0384169081179091558190612cf18261195c565b6001600160a01b03167f8c5be1e5ebec7d5bd14f71427d1e84f3dd0314c0f7b2291e5b200ac8c7c3b92560405160405180910390a45050565b6000856001600160401b03168614612d4157600080fd5b846001600160401b03168514612d5657600080fd5b8363ffffffff168414612d6857600080fd5b6000612d756002866150f1565b9050600d8163ffffffff161115612d8a5750600d5b60408051610100810182528581526001600160401b034281166020830190815260009383018481528b8316606085019081528b84166080860190815260a0860187815263ffffffff808a1660c089019081528e821660e08a0190815261015480546001810182559b52895160038c027f9e89c1ace8078c36c08e6aebae4ce254d1fbc86ebb2f17902363e970d9e3bea581019190915597517f9e89c1ace8078c36c08e6aebae4ce254d1fbc86ebb2f17902363e970d9e3bea6890180549851975196518b16600160c01b026001600160c01b03978c16600160801b02979097166001600160801b03988c16600160401b9081026fffffffffffffffffffffffffffffffff19909b16938d16939093179990991797909716979097179490941790945590517f9e89c1ace8078c36c08e6aebae4ce254d1fbc86ebb2f17902363e970d9e3bea79095018054935192518216600160601b0263ffffffff60601b19939092169094026bffffffffffffffffffffffff1990931694861694909417919091171691909117905590919081168114612f2357600080fd5b6060808301516080808501518551604080516001600160a01b038c168152602081018890526001600160401b039586169181019190915291909316938101939093528201527f0a5311bd2a6608f08a180df2ee7c5946819a649b204b554bb8e39825b2c50ad59060a00160405180910390a1612f9f8582613e9b565b98975050505050505050565b60008061015660009054906101000a90046001600160a01b03166001600160a01b031663eac9d94c6040518163ffffffff1660e01b815260040160206040518083038186803b158015612ffd57600080fd5b505afa158015613011573d6000803e3d6000fd5b505050506040513d601f19601f820116820180604052508101906130359190614d99565b9050806001600160801b0316811461304c57600080fd5b60006130596002836150f1565b61306390836150ba565b9050662386f26fc1000081101561307e5750662386f26fc100005b91505090565b6000818152606760205260408120546001600160a01b03166130fd5760405162461bcd60e51b815260206004820152602c60248201527f4552433732313a206f70657261746f7220717565727920666f72206e6f6e657860448201526b34b9ba32b73a103a37b5b2b760a11b6064820152608401610eb8565b60006131088361195c565b9050806001600160a01b0316846001600160a01b031614806131435750836001600160a01b031661313884610e43565b6001600160a01b0316145b80613153575061315381856127d8565b949350505050565b826001600160a01b031661316e8261195c565b6001600160a01b0316146131d65760405162461bcd60e51b815260206004820152602960248201527f4552433732313a207472616e73666572206f6620746f6b656e2074686174206960448201526839903737ba1037bbb760b91b6064820152608401610eb8565b6001600160a01b0382166132385760405162461bcd60e51b8152602060048201526024808201527f4552433732313a207472616e7366657220746f20746865207a65726f206164646044820152637265737360e01b6064820152608401610eb8565b613243838383613fe9565b61324e600082612cbc565b6001600160a01b0383166000908152606860205260408120805460019290613277908490615124565b90915550506001600160a01b03821660009081526068602052604081208054600192906132a59084906150ba565b909155505060008181526067602052604080822080546001600160a01b0319166001600160a01b0386811691821790925591518493918716917fddf252ad1be2c89b69c2b068fc378daa952ba7f163c4a11628f55a4df523b3ef91a4505050565b6133108282612165565b6114bf57600082815260c9602090815260408083206001600160a01b03851684529091529020805460ff191660011790556133483390565b6001600160a01b0316816001600160a01b0316837f2f8788117e7eff1d82e926ec794901d17c78024a50270940304540a733656f0d60405160405180910390a45050565b6133968282612165565b156114bf57600082815260c9602090815260408083206001600160a01b0385168085529252808320805460ff1916905551339285917ff6391f5c32d9c69d2a47ea670b442974b53935d1edc7fd64eb21e047a839171b9190a45050565b60fb5460ff1661343c5760405162461bcd60e51b815260206004820152601460248201527314185d5cd8589b194e881b9bdd081c185d5cd95960621b6044820152606401610eb8565b60fb805460ff191690557f5db9ee0a495bf2e6ff9c91a7834c1ba4fdd244a5e8aa4e537bd38aeae4b073aa335b6040516001600160a01b03909116815260200160405180910390a1565b60008184141561349857506000613153565b6001850154600160801b90046001600160401b03168214806134cd57506001850154600160c01b90046001600160401b031682145b156134da57506000613153565b6001830154600160801b90046001600160401b031684148061350f57506001830154600160c01b90046001600160401b031684145b1561351c57506000613153565b6001830154600160801b90046001600160401b0316158061354f57506001850154600160801b90046001600160401b0316155b1561355c57506001613153565b60018581015490840154600160801b918290046001600160401b03908116929091041614806135ad575060018086015490840154600160801b90046001600160401b03908116600160c01b90920416145b156135ba57506000613153565b60018086015490840154600160c01b90046001600160401b03908116600160801b90920416148061360b575060018581015490840154600160c01b918290046001600160401b039081169290910416145b1561361857506000613153565b506001949350505050565b60008061362f8361195c565b9050600061363c8561195c565b9050806001600160a01b0316826001600160a01b031614806116f15750600085815261015560205260409020546001600160a01b03908116908316149250505092915050565b6000826001600160a01b03168260405160006040518083038185875af1925050503d80600081146136cf576040519150601f19603f3d011682016040523d82523d6000602084013e6136d4565b606091505b5050905080610dac5760405162461bcd60e51b81526020600482015260146024820152732330b4b632b2103a379039b2b7321022ba3432b960611b6044820152606401610eb8565b816001600160a01b0316836001600160a01b0316141561377e5760405162461bcd60e51b815260206004820152601960248201527f4552433732313a20617070726f766520746f2063616c6c6572000000000000006044820152606401610eb8565b6001600160a01b038381166000818152606a6020908152604080832094871680845294825291829020805460ff191686151590811790915591519182527f17307eab39ab6107e8899845ad3d59bd9653f200f220920489ca2b5937696c31910160405180910390a3505050565b600054610100900460ff166138125760405162461bcd60e51b8152600401610eb890614ff0565b61381a614021565b613822614021565b61382a614021565b565b600054610100900460ff166138535760405162461bcd60e51b8152600401610eb890614ff0565b61385b614021565b613863614021565b6114bf8282614048565b600054610100900460ff166138945760405162461bcd60e51b8152600401610eb890614ff0565b61389c614021565b61382a614096565b6114bf8282613306565b60fb5460ff16156138d15760405162461bcd60e51b8152600401610eb890614f75565b60fb805460ff191660011790557f62e78cea01bee320cd4e420270b5ea74000d11b0c9f74754ebdbfc544b05a2586134693390565b60008160a001516001600160401b0316600014158015610d83575050604001516001600160401b034381169116111590565b61394384848461315b565b61394f848484846140c9565b6124205760405162461bcd60e51b8152600401610eb890614f23565b606061012d8054610dc0906151a6565b6060816139a057506040805180820190915260018152600360fc1b6020820152610d86565b8160005b81156139ca57806139b4816151e1565b91506139c39050600a836150f1565b91506139a4565b6000816001600160401b038111156139f257634e487b7160e01b600052604160045260246000fd5b6040519080825280601f01601f191660200182016040528015613a1c576020820181803683370190505b5090505b841561315357613a31600183615124565b9150613a3e600a866151fc565b613a499060306150ba565b60f81b818381518110613a6c57634e487b7160e01b600052603260045260246000fd5b60200101906001600160f81b031916908160001a905350613a8e600a866150f1565b9450613a20565b60008160a001516001600160401b03166000148015610d83575050604001516001600160401b034381169116111590565b6000806101548481548110613aeb57634e487b7160e01b600052603260045260246000fd5b9060005260206000209060030201905060006101548481548110613b1f57634e487b7160e01b600052603260045260246000fd5b906000526020600020906003020190506116f182868387613486565b60006101548381548110613b5f57634e487b7160e01b600052603260045260246000fd5b9060005260206000209060030201905060006101548581548110613b9357634e487b7160e01b600052603260045260246000fd5b6000918252602090912060039091020160028101805467ffffffffffffffff19166001600160401b0387161790559050613bce8282856141d3565b613bd78261439f565b613be08161439f565b6000858152610155602052604080822080546001600160a01b03199081169091558683529082208054909116905561014e805491613c1d836151e1565b91905055507f241ea03ca20251805084d27d4440371c34a0b85ff108f6bb5611248f73818b80613c4c8661195c565b6001830154604080516001600160a01b039093168352602083018990528201879052600160401b90046001600160401b0316606082015260800160405180910390a15050505050565b60006001600160e01b0319821663780e9d6360e01b1480610d835750610d83826144a0565b60606000613cc9836002615105565b613cd49060026150ba565b6001600160401b03811115613cf957634e487b7160e01b600052604160045260246000fd5b6040519080825280601f01601f191660200182016040528015613d23576020820181803683370190505b509050600360fc1b81600081518110613d4c57634e487b7160e01b600052603260045260246000fd5b60200101906001600160f81b031916908160001a905350600f60fb1b81600181518110613d8957634e487b7160e01b600052603260045260246000fd5b60200101906001600160f81b031916908160001a9053506000613dad846002615105565b613db89060016150ba565b90505b6001811115613e4c576f181899199a1a9b1b9c1cb0b131b232b360811b85600f1660108110613dfa57634e487b7160e01b600052603260045260246000fd5b1a60f81b828281518110613e1e57634e487b7160e01b600052603260045260246000fd5b60200101906001600160f81b031916908160001a90535060049490941c93613e458161518f565b9050613dbb565b5083156126cc5760405162461bcd60e51b815260206004820181905260248201527f537472696e67733a20686578206c656e67746820696e73756666696369656e746044820152606401610eb8565b6001600160a01b038216613ef15760405162461bcd60e51b815260206004820181905260248201527f4552433732313a206d696e7420746f20746865207a65726f20616464726573736044820152606401610eb8565b6000818152606760205260409020546001600160a01b031615613f565760405162461bcd60e51b815260206004820152601c60248201527f4552433732313a20746f6b656e20616c7265616479206d696e746564000000006044820152606401610eb8565b613f6260008383613fe9565b6001600160a01b0382166000908152606860205260408120805460019290613f8b9084906150ba565b909155505060008181526067602052604080822080546001600160a01b0319166001600160a01b03861690811790915590518392907fddf252ad1be2c89b69c2b068fc378daa952ba7f163c4a11628f55a4df523b3ef908290a45050565b6001600160a01b038316156140165760008181526101556020526040902080546001600160a01b03191690555b610dac8383836144f0565b600054610100900460ff1661382a5760405162461bcd60e51b8152600401610eb890614ff0565b600054610100900460ff1661406f5760405162461bcd60e51b8152600401610eb890614ff0565b8151614082906065906020850190614767565b508051610dac906066906020840190614767565b600054610100900460ff166140bd5760405162461bcd60e51b8152600401610eb890614ff0565b60fb805460ff19169055565b60006001600160a01b0384163b156141cb57604051630a85bd0160e11b81526001600160a01b0385169063150b7a029061410d903390899088908890600401614ed3565b602060405180830381600087803b15801561412757600080fd5b505af1925050508015614157575060408051601f3d908101601f1916820190925261415491810190614d38565b60015b6141b1573d808015614185576040519150601f19603f3d011682016040523d82523d6000602084013e61418a565b606091505b5080516141a95760405162461bcd60e51b8152600401610eb890614f23565b805181602001fd5b6001600160e01b031916630a85bd0160e11b149050613153565b506001613153565b600282015460009061013090600160401b900463ffffffff16600e811061420a57634e487b7160e01b600052603260045260246000fd5b0154600285015461013090600160401b900463ffffffff16600e811061424057634e487b7160e01b600052603260045260246000fd5b015461424c91906150ba565b600284015490915060009061013e90600160401b900463ffffffff16600e811061428657634e487b7160e01b600052603260045260246000fd5b0154600286015461013e90600160401b900463ffffffff16600e81106142bc57634e487b7160e01b600052603260045260246000fd5b01546142c891906150ba565b61015154604051632770a7eb60e21b81526001600160a01b03868116600483015260248201869052929350911690639dc29fac90604401600060405180830381600087803b15801561431957600080fd5b505af115801561432d573d6000803e3d6000fd5b505061015054604051632770a7eb60e21b81526001600160a01b038781166004830152602482018690529091169250639dc29fac9150604401600060405180830381600087803b15801561438057600080fd5b505af1158015614394573d6000803e3d6000fd5b505050505050505050565b61014c54600282015443919061012e90600160401b900463ffffffff16600e81106143da57634e487b7160e01b600052603260045260246000fd5b600891828204019190066004029054906101000a900463ffffffff1663ffffffff1661440691906150f1565b61441091906150ba565b8160010160086101000a8154816001600160401b0302191690836001600160401b03160217905550600d8160020160089054906101000a900463ffffffff1663ffffffff1610156116335760018160020160088282829054906101000a900463ffffffff1661447f91906150d2565b92506101000a81548163ffffffff021916908363ffffffff16021790555050565b60006001600160e01b031982166380ac58cd60e01b14806144d157506001600160e01b03198216635b5e139f60e01b145b80610d8357506301ffc9a760e01b6001600160e01b0319831614610d83565b6001600160a01b03831661454b5761454681609980546000838152609a60205260408120829055600182018355919091527f72a152ddfb8e864297c917af52ea6c1c68aead0fee1a62673fcc7e0c94979d000155565b61456e565b816001600160a01b0316836001600160a01b03161461456e5761456e83826145ad565b6001600160a01b03821661458a576145858161464a565b610dac565b826001600160a01b0316826001600160a01b031614610dac57610dac8282614723565b600060016145ba84611aa1565b6145c49190615124565b600083815260986020526040902054909150808214614617576001600160a01b03841660009081526097602090815260408083208584528252808320548484528184208190558352609890915290208190555b5060009182526098602090815260408084208490556001600160a01b039094168352609781528383209183525290812055565b60995460009061465c90600190615124565b6000838152609a60205260408120546099805493945090928490811061469257634e487b7160e01b600052603260045260246000fd5b9060005260206000200154905080609983815481106146c157634e487b7160e01b600052603260045260246000fd5b6000918252602080832090910192909255828152609a9091526040808220849055858252812055609980548061470757634e487b7160e01b600052603160045260246000fd5b6001900381819060005260206000200160009055905550505050565b600061472e83611aa1565b6001600160a01b039093166000908152609760209081526040808320868452825280832085905593825260989052919091209190915550565b828054614773906151a6565b90600052602060002090601f01602090048101928261479557600085556147db565b82601f106147ae57805160ff19168380011785556147db565b828001600101855582156147db579182015b828111156147db5782518255916020019190600101906147c0565b506147e79291506148ab565b5090565b82600e81019282156147db57916020028201828111156147db5782518255916020019190600101906147c0565b6002830191839082156147db5791602002820160005b8382111561487257835183826101000a81548163ffffffff021916908363ffffffff160217905550926020019260040160208160030104928301926001030261482e565b80156148a25782816101000a81549063ffffffff0219169055600401602081600301049283019260010302614872565b50506147e79291505b5b808211156147e757600081556001016148ac565b60006001600160401b038311156148d9576148d961523c565b6148ec601f8401601f1916602001615067565b905082815283838301111561490057600080fd5b828260208301376000602084830101529392505050565b80356001600160a01b0381168114610d8657600080fd5b600082601f83011261493e578081fd5b8135602061495361494e83615097565b615067565b80838252828201915082860187848660051b8901011115614972578586fd5b855b8581101561499057813584529284019290840190600101614974565b5090979650505050505050565b6000602082840312156149ae578081fd5b6126cc82614917565b600080604083850312156149c9578081fd5b6149d283614917565b91506149e060208401614917565b90509250929050565b6000806000606084860312156149fd578081fd5b614a0684614917565b9250614a1460208501614917565b9150604084013590509250925092565b60008060008060808587031215614a39578182fd5b614a4285614917565b9350614a5060208601614917565b92506040850135915060608501356001600160401b03811115614a71578182fd5b8501601f81018713614a81578182fd5b614a90878235602084016148c0565b91505092959194509250565b60008060408385031215614aae578182fd5b614ab783614917565b91506020830135614ac781615252565b809150509250929050565b60008060408385031215614ae4578182fd5b614aed83614917565b946020939093013593505050565b60006101c0808385031215614b0e578182fd5b83601f840112614b1c578182fd5b614b2581615067565b8084868487011115614b35578485fd5b8493505b600e841015614b5957803583526001939093019260209283019201614b39565b5095945050505050565b600060208284031215614b74578081fd5b81356001600160401b03811115614b89578182fd5b6131538482850161492e565b60008060408385031215614ba7578182fd5b82356001600160401b0380821115614bbd578384fd5b614bc98683870161492e565b9350602091508185013581811115614bdf578384fd5b85019050601f81018613614bf1578283fd5b8035614bff61494e82615097565b80828252848201915084840189868560051b8701011115614c1e578687fd5b8694505b83851015614c4757614c3381614917565b835260019490940193918501918501614c22565b5080955050505050509250929050565b60006101c0808385031215614c6a578182fd5b83601f840112614c78578182fd5b614c8181615067565b8084868487011115614c91578485fd5b8493505b600e841015614b5957803563ffffffff81168114614cb1578586fd5b83526001939093019260209283019201614c95565b600060208284031215614cd7578081fd5b81516126cc81615252565b600060208284031215614cf3578081fd5b5035919050565b60008060408385031215614d0c578182fd5b823591506149e060208401614917565b600060208284031215614d2d578081fd5b81356126cc81615260565b600060208284031215614d49578081fd5b81516126cc81615260565b600060208284031215614d65578081fd5b81356001600160401b03811115614d7a578182fd5b8201601f81018413614d8a578182fd5b613153848235602084016148c0565b600060208284031215614daa578081fd5b5051919050565b60008060408385031215614dc3578182fd5b50508035926020909101359150565b60008060008060808587031215614de7578182fd5b5050823594602084013594506040840135936060013592509050565b60008151808452614e1b816020860160208601615163565b601f01601f19169290920160200192915050565b60008351614e41818460208801615163565b835190830190614e55818360208801615163565b01949350505050565b60007f416363657373436f6e74726f6c3a206163636f756e742000000000000000000082528351614e96816017850160208801615163565b7001034b99036b4b9b9b4b733903937b6329607d1b6017918401918201528351614ec7816028840160208801615163565b01602801949350505050565b6001600160a01b0385811682528416602082015260408101839052608060608201819052600090614f0690830184614e03565b9695505050505050565b6000602082526126cc6020830184614e03565b60208082526032908201527f4552433732313a207472616e7366657220746f206e6f6e20455243373231526560408201527131b2b4bb32b91034b6b83632b6b2b73a32b960711b606082015260800190565b60208082526010908201526f14185d5cd8589b194e881c185d5cd95960821b604082015260600190565b60208082526031908201527f4552433732313a207472616e736665722063616c6c6572206973206e6f74206f6040820152701ddb995c881b9bdc88185c1c1c9bdd9959607a1b606082015260800190565b6020808252602b908201527f496e697469616c697a61626c653a20636f6e7472616374206973206e6f74206960408201526a6e697469616c697a696e6760a81b606082015260800190565b9485526020850193909352604084019190915260608301526001600160a01b0316608082015260a00190565b604051601f8201601f191681016001600160401b038111828210171561508f5761508f61523c565b604052919050565b60006001600160401b038211156150b0576150b061523c565b5060051b60200190565b600082198211156150cd576150cd615210565b500190565b600063ffffffff808316818516808303821115614e5557614e55615210565b60008261510057615100615226565b500490565b600081600019048311821515161561511f5761511f615210565b500290565b60008282101561513657615136615210565b500390565b60006001600160401b038381169083168181101561515b5761515b615210565b039392505050565b60005b8381101561517e578181015183820152602001615166565b838111156124205750506000910152565b60008161519e5761519e615210565b506000190190565b600181811c908216806151ba57607f821691505b602082108114156151db57634e487b7160e01b600052602260045260246000fd5b50919050565b60006000198214156151f5576151f5615210565b5060010190565b60008261520b5761520b615226565b500690565b634e487b7160e01b600052601160045260246000fd5b634e487b7160e01b600052601260045260246000fd5b634e487b7160e01b600052604160045260246000fd5b801515811461163357600080fd5b6001600160e01b03198116811461163357600080fdfed9862aa7b1613dc6fd13b0a56ef1fd54594543a041b4fb6a5bb115e6a806c238ed726abc78fd0de547fe6690a9e55d104343f0d09ddf8b68bce72a359aff1f89a26469706673582212207c4dbbca68448783a58dd558c990be453689d72d17ce33a1a7803457b29eace564736f6c63430008030033",
  "immutableReferences": {},
  "source": "// SPDX-License-Identifier: GPL-3.0\r\npragma solidity ^0.8.3;\r\n\r\nimport \"@openzeppelin/contracts-upgradeable/token/ERC721/extensions/ERC721EnumerableUpgradeable.sol\";\r\nimport \"@openzeppelin/contracts-upgradeable/access/AccessControlUpgradeable.sol\";\r\nimport \"@openzeppelin/contracts-upgradeable/security/PausableUpgradeable.sol\";\r\nimport './SaleClockAuction.sol';\r\nimport './SiringClockAuction.sol';\r\nimport './GeneScience.sol';\r\nimport './WODToken.sol';\r\nimport './RubyToken.sol';\r\n\r\ncontract DogeHero is ERC721EnumerableUpgradeable, AccessControlUpgradeable, PausableUpgradeable{\r\n    string public uri;\r\n    bytes32 public constant CEO_ROLE = keccak256(\"CEO_ROLE\");\r\n    bytes32 public constant COO_ROLE = keccak256(\"COO_ROLE\");\r\n\r\n    uint32[14] public cooldowns;\r\n    uint256[14] public rubyFees;\r\n    uint256[14] public wodFees;\r\n    uint256 public secondsPerBlock;\r\n    /// @notice The minimum payment required to use breedWithAuto(). This fee goes towards\r\n    ///  the gas cost paid by whatever calls giveBirth(), and can be dynamically updated by\r\n    ///  the COO role as the gas price changes.\r\n    uint256 public autoBirthFee;\r\n\r\n    // Keeps track of number of pregnant doges.\r\n    uint256 public pregnantDoges;\r\n\r\n    /// @dev The address of the sibling contract that is used to implement the sooper-sekret\r\n    ///  genetic combination algorithm.\r\n    GeneScience public geneScience;\r\n    WODToken public wodToken;\r\n    RubyToken public rubyToken;\r\n\r\n    // Limits the number of doges the contract owner can ever create.\r\n    uint256 public constant PROMO_CREATION_LIMIT = 5000;\r\n    uint256 public constant GEN0_CREATION_LIMIT = 45000;\r\n\r\n    // Constants for gen0 auctions.\r\n    uint256 public constant GEN0_STARTING_PRICE = 0.01 ether;\r\n    uint256 public constant GEN0_AUCTION_DURATION = 7 days;\r\n\r\n    // Counts the number of doges the contract owner has created.\r\n    uint256 public promoCreatedCount;\r\n    uint256 public gen0CreatedCount;\r\n\r\n    /*** DATA TYPES ***/\r\n\r\n    /// @dev The main Doge struct. Every doge in CryptoDoges is represented by a copy\r\n    ///  of this structure, so great care was taken to ensure that it fits neatly into\r\n    ///  exactly two 256-bit words. Note that the order of the members in this structure\r\n    ///  is important because of the byte-packing rules used by Ethereum.\r\n    ///  Ref: http://solidity.readthedocs.io/en/develop/miscellaneous.html\r\n    struct Doge {\r\n        // The Doge's genetic code is packed into these 256-bits, the format is\r\n        // sooper-sekret! A doge's genes never change.\r\n        uint256 genes;\r\n\r\n        // The timestamp from the block when this doge came into existence.\r\n        uint64 birthTime;\r\n\r\n        // The minimum timestamp after which this doge can engage in breeding\r\n        // activities again. This same timestamp is used for the pregnancy\r\n        // timer (for matrons) as well as the siring cooldown.\r\n        uint64 cooldownEndBlock;\r\n\r\n        // The ID of the parents of this Doge, set to 0 for gen0 doges.        \r\n        uint64 matronId;\r\n        uint64 sireId;\r\n\r\n        // Set to the ID of the sire doge for matrons that are pregnant,\r\n        // zero otherwise. A non-zero value here is how we know a doge\r\n        // is pregnant. Used to retrieve the genetic material for the new\r\n        // doge when the birth transpires.\r\n        uint64 siringWithId;\r\n\r\n        // Set to the index in the cooldown array (see below) that represents\r\n        // the current cooldown duration for this Doge. This starts at zero\r\n        // for gen0 doges, and is initialized to floor(generation/2) for others.\r\n        // Incremented by one for each successful breeding action, regardless\r\n        // of whether this doge is acting as matron or sire.\r\n        uint32 cooldownIndex;\r\n\r\n        // The \"generation number\" of this doge. Doges minted by the CK contract\r\n        // for sale are called \"gen0\" and have a generation number of 0. The\r\n        // generation number of all other doges is the larger of the two generation\r\n        // numbers of their parents, plus one.\r\n        // (i.e. max(matron.generation, sire.generation) + 1)\r\n        uint32 generation;\r\n    }  \r\n\r\n    /// @dev An array containing the Doge struct for all Doges in existence. The ID\r\n    ///  of each doge is actually an index into this array. Note that ID 0 is a negadoge,\r\n    ///  the unDoge, the mythical beast that is the parent of all gen0 doges. A bizarre\r\n    ///  creature that is both matron and sire... to itself! Has an invalid genetic code.\r\n    ///  In other words, doge ID 0 is invalid... ;-)\r\n    Doge[] doges;\r\n    \r\n\r\n    /// @dev A mapping from DogeIDs to an address that has been approved to use\r\n    ///  this Doge for siring via breedWith(). Each Doge can only have one approved\r\n    ///  address for siring at any time. A zero value means no approval is outstanding.\r\n    mapping (uint256 => address) public sireAllowedToAddress;\r\n\r\n    /// @dev The address of the ClockAuction contract that handles sales of Doges. This\r\n    ///  same contract handles both peer-to-peer sales as well as the gen0 sales which are\r\n    ///  initiated every 15 minutes.\r\n    SaleClockAuction public saleAuction;\r\n\r\n    /// @dev The address of a custom ClockAuction subclassed contract that handles siring\r\n    ///  auctions. Needs to be separate from saleAuction because the actions taken on success\r\n    ///  after a sales and siring auction are quite different.\r\n    SiringClockAuction public siringAuction;\r\n    \r\n    /// @dev The Birth event is fired whenever a new doge comes into existence. This obviously\r\n    ///  includes any time a doge is created through the giveBirth method, but it is also called\r\n    ///  when a new gen0 doge is created.\r\n    event Birth(address owner, uint256 dogeId, uint256 matronId, uint256 sireId, uint256 genes);\r\n    \r\n    /// @dev The Pregnant event is fired when two doges successfully breed and the pregnancy\r\n    ///  timer begins for the matron.\r\n    event Pregnant(address owner, uint256 matronId, uint256 sireId, uint256 cooldownEndBlock);\r\n\r\n\r\n    function initialize() public initializer{\r\n        __ERC721Enumerable_init();\r\n        __ERC721_init(\"Doge Hero\", \"DOGEHERO\");\r\n        __AccessControl_init();\r\n        __Pausable_init();\r\n        _setupRole(DEFAULT_ADMIN_ROLE, msg.sender);\r\n        _setupRole(CEO_ROLE, msg.sender);\r\n        _setupRole(COO_ROLE, msg.sender);\r\n\r\n        // start with the mythical doge 0 - so we don't have generation-0 parent issues\r\n        _createDoge(0, 0, 0, type(uint256).max, address(this));    \r\n\r\n        uri = \"worldofdoge.io/\";       \r\n        secondsPerBlock = 3;\r\n        cooldowns = [\r\n        uint32(15 minutes),\r\n        uint32(30 minutes),\r\n        uint32(1 hours),\r\n        uint32(2 hours),\r\n        uint32(4 hours),\r\n        uint32(8 hours),\r\n        uint32(16 hours),\r\n        uint32(1 days),\r\n        uint32(2 days),\r\n        uint32(3 days),\r\n        uint32(4 days),\r\n        uint32(5 days),\r\n        uint32(6 days),\r\n        uint32(7 days)];\r\n        autoBirthFee = 0.002 ether;\r\n    }\r\n    function supportsInterface(bytes4 interfaceId) public view virtual override(AccessControlUpgradeable, ERC721EnumerableUpgradeable) returns (bool) {\r\n        return super.supportsInterface(interfaceId);\r\n    }\r\n    function setURI(string memory newURI) public onlyRole(DEFAULT_ADMIN_ROLE){\r\n        uri = newURI;\r\n    }\r\n    function _baseURI() internal view override returns (string memory) {\r\n        return uri;\r\n    }\r\n    function setRubyFees(uint[14] memory _rubyFees) external onlyRole(CEO_ROLE){\r\n        rubyFees = _rubyFees;\r\n    }\r\n    function setWODFees(uint[14] memory _wodFees) external onlyRole(CEO_ROLE){\r\n        wodFees = _wodFees;\r\n    }\r\n    function setCooldowns(uint32[14] memory _cooldowns) external onlyRole(CEO_ROLE){\r\n        cooldowns = _cooldowns;\r\n    }\r\n\r\n    \r\n    function _beforeTokenTransfer(\r\n        address from,\r\n        address to,\r\n        uint256 tokenId\r\n    ) internal virtual override{\r\n        if (from != address(0)) {            \r\n            // once the doge is transferred also clear sire allowances\r\n            delete sireAllowedToAddress[tokenId];            \r\n        }\r\n        super._beforeTokenTransfer(from, to, tokenId);\r\n    }\r\n    /// @dev An internal method that creates a new doge and stores it. This\r\n    ///  method doesn't do any checking and should only be called when the\r\n    ///  input data is known to be valid. Will generate both a Birth event\r\n    ///  and a Transfer event.\r\n    /// @param _matronId The doge ID of the matron of this doge (zero for gen0)\r\n    /// @param _sireId The doge ID of the sire of this doge (zero for gen0)\r\n    /// @param _generation The generation number of this doge, must be computed by caller.\r\n    /// @param _genes The doge's genetic code.\r\n    /// @param _owner The inital owner of this doge, must be non-zero (except for the unDoge, ID 0)\r\n    function _createDoge(\r\n        uint256 _matronId,\r\n        uint256 _sireId,\r\n        uint256 _generation,\r\n        uint256 _genes,\r\n        address _owner\r\n    )\r\n        internal\r\n        returns (uint)\r\n    {\r\n        // These requires are not strictly necessary, our calling code should make\r\n        // sure that these conditions are never broken. However! _createDoge() is already\r\n        // an expensive call (for storage), and it doesn't hurt to be especially careful\r\n        // to ensure our data structures are always valid.\r\n        require(_matronId == uint256(uint64(_matronId)));\r\n        require(_sireId == uint256(uint64(_sireId)));\r\n        require(_generation == uint256(uint32(_generation)));\r\n\r\n        // New doge starts with the same cooldown as parent gen/2\r\n        uint32 cooldownIndex = uint32(_generation / 2);\r\n        if (cooldownIndex > 13) {\r\n            cooldownIndex = 13;\r\n        }\r\n\r\n        Doge memory _doge = Doge({\r\n            genes: _genes,\r\n            birthTime: uint64(block.timestamp),\r\n            cooldownEndBlock: 0,\r\n            matronId: uint64(_matronId),\r\n            sireId: uint64(_sireId),\r\n            siringWithId: 0,\r\n            cooldownIndex: cooldownIndex,\r\n            generation: uint32(_generation)\r\n        });\r\n\r\n        uint256 newDogeId = doges.length;\r\n        doges.push(_doge);\r\n         \r\n\r\n        // It's probably never going to happen, 4 billion doges is A LOT, but\r\n        // let's just be 100% sure we never let this happen.\r\n        require(newDogeId == uint256(uint64(newDogeId)));\r\n\r\n        // emit the birth event\r\n        emit Birth(\r\n            _owner,\r\n            newDogeId,\r\n            uint256(_doge.matronId),\r\n            uint256(_doge.sireId),\r\n            _doge.genes\r\n        );\r\n\r\n        // This will assign ownership, and also emit the Transfer event as\r\n        // per ERC721 draft\r\n        _mint(_owner, newDogeId);\r\n        return newDogeId;\r\n    }\r\n\r\n    function setSecondsPerBlock(uint256 secs) external onlyRole(DEFAULT_ADMIN_ROLE) {\r\n        require(secs < cooldowns[0]);\r\n        secondsPerBlock = secs;\r\n    }\r\n\r\n    /// @dev Update the address of the genetic contract, can only be called by the CEO.\r\n    /// @param _address An address of a GeneScience contract instance to be used from this point forward.\r\n    function setGeneScienceAddress(address _address) external onlyRole(CEO_ROLE) {\r\n        GeneScience candidateContract = GeneScience(_address);\r\n\r\n        // NOTE: verify that a contract is what we expect - https://github.com/Lunyr/crowdsale-contracts/blob/cfadd15986c30521d8ba7d5b6f57b4fefcc7ac38/contracts/LunyrToken.sol#L117\r\n        require(candidateContract.isGeneScience());\r\n\r\n        // Set the new contract address\r\n        geneScience = candidateContract;\r\n    }\r\n\r\n    function setWODTokenAddress(address _wodToken) external onlyRole(CEO_ROLE){\r\n        wodToken = WODToken(_wodToken);\r\n    }\r\n\r\n    function setRubyTokenAddress(address _rubyToken) external onlyRole(CEO_ROLE){\r\n        rubyToken = RubyToken(_rubyToken);\r\n    }\r\n    /// @dev Checks that a given doge is able to breed. Requires that the\r\n    ///  current cooldown is finished (for sires) and also checks that there is\r\n    ///  no pending pregnancy.\r\n    function _isReadyToBreed(Doge memory _doge) internal view returns (bool) {\r\n        // In addition to checking the cooldownEndBlock, we also need to check to see if\r\n        // the doge has a pending birth; there can be some period of time between the end\r\n        // of the pregnacy timer and the birth event.\r\n        return (_doge.siringWithId == 0) && (_doge.cooldownEndBlock <= uint64(block.number));\r\n    }\r\n\r\n    /// @dev Check if a sire has authorized breeding with this matron. True if both sire\r\n    ///  and matron have the same owner, or if the sire has given siring permission to\r\n    ///  the matron's owner (via approveSiring()).\r\n    function _isSiringPermitted(uint256 _sireId, uint256 _matronId) internal view returns (bool) {\r\n        // address matronOwner = dogeIndexToOwner[_matronId];\r\n        // address sireOwner = dogeIndexToOwner[_sireId];\r\n        address matronOwner = ownerOf(_matronId);\r\n        address sireOwner = ownerOf(_sireId);\r\n        // Siring is okay if they have same owner, or if the matron's owner was given\r\n        // permission to breed with this sire.\r\n        return (matronOwner == sireOwner || sireAllowedToAddress[_sireId] == matronOwner);\r\n    }\r\n\r\n    /// @dev Set the cooldownEndTime for the given Doge, based on its current cooldownIndex.\r\n    ///  Also increments the cooldownIndex (unless it has hit the cap).\r\n    /// @param _doge A reference to the Doge in storage which needs its timer started.\r\n    function _triggerCooldown(Doge storage _doge) internal {\r\n        // Compute an estimation of the cooldown time in blocks (based on current cooldownIndex).\r\n        _doge.cooldownEndBlock = uint64((cooldowns[_doge.cooldownIndex]/secondsPerBlock) + block.number);\r\n\r\n        // Increment the breeding count, clamping it at 13, which is the length of the\r\n        // cooldowns array. We could check the array size dynamically, but hard-coding\r\n        // this as a constant saves gas. Yay, Solidity!\r\n        if (_doge.cooldownIndex < 13) {\r\n            _doge.cooldownIndex += 1;\r\n        }\r\n    }\r\n\r\n    /// @notice Grants approval to another user to sire with one of your Doges.\r\n    /// @param _addr The address that will be able to sire with your Doge. Set to\r\n    ///  address(0) to clear all siring approvals for this Doge.\r\n    /// @param _sireId A Doge that you own that _addr will now be able to sire with.\r\n    function approveSiring(address _addr, uint256 _sireId)\r\n        external\r\n        whenNotPaused\r\n    {\r\n        require(ownerOf(_sireId) == msg.sender);\r\n        sireAllowedToAddress[_sireId] = _addr;\r\n    }\r\n\r\n    /// @dev Updates the minimum payment required for calling giveBirthAuto(). Can only\r\n    ///  be called by the COO address. (This fee is used to offset the gas cost incurred\r\n    ///  by the autobirth daemon).\r\n    function setAutoBirthFee(uint256 val) external onlyRole(COO_ROLE) {\r\n        autoBirthFee = val;\r\n    }\r\n\r\n    /// @dev Checks to see if a given Doge is pregnant and (if so) if the gestation\r\n    ///  period has passed.\r\n    function _isReadyToGiveBirth(Doge memory _matron) private view returns (bool) {\r\n        return (_matron.siringWithId != 0) && (_matron.cooldownEndBlock <= uint64(block.number));\r\n    }\r\n\r\n    /// @notice Checks that a given doge is able to breed (i.e. it is not pregnant or\r\n    ///  in the middle of a siring cooldown).\r\n    /// @param _dogeId reference the id of the doge, any user can inquire about it\r\n    function isReadyToBreed(uint256 _dogeId)\r\n        public\r\n        view\r\n        returns (bool)\r\n    {\r\n        require(_dogeId > 0);\r\n        Doge storage doge = doges[_dogeId];\r\n        return _isReadyToBreed(doge);\r\n    }\r\n\r\n    /// @dev Checks whether a doge is currently pregnant.\r\n    /// @param _dogeId reference the id of the doge, any user can inquire about it\r\n    function isPregnant(uint256 _dogeId)\r\n        public\r\n        view\r\n        returns (bool)\r\n    {\r\n        require(_dogeId > 0);\r\n        // A doge is pregnant if and only if this field is set\r\n        return doges[_dogeId].siringWithId != 0;\r\n    }\r\n\r\n    /// @dev Internal check to see if a given sire and matron are a valid mating pair. DOES NOT\r\n    ///  check ownership permissions (that is up to the caller).\r\n    /// @param _matron A reference to the Doge struct of the potential matron.\r\n    /// @param _matronId The matron's ID.\r\n    /// @param _sire A reference to the Doge struct of the potential sire.\r\n    /// @param _sireId The sire's ID\r\n    function _isValidMatingPair(\r\n        Doge storage _matron,\r\n        uint256 _matronId,\r\n        Doge storage _sire,\r\n        uint256 _sireId\r\n    )\r\n        private\r\n        view\r\n        returns(bool)\r\n    {\r\n        // A Doge can't breed with itself!\r\n        if (_matronId == _sireId) {\r\n            return false;\r\n        }\r\n\r\n        // Doges can't breed with their parents.\r\n        if (_matron.matronId == _sireId || _matron.sireId == _sireId) {\r\n            return false;\r\n        }\r\n        if (_sire.matronId == _matronId || _sire.sireId == _matronId) {\r\n            return false;\r\n        }\r\n\r\n        // We can short circuit the sibling check (below) if either doge is\r\n        // gen zero (has a matron ID of zero).\r\n        if (_sire.matronId == 0 || _matron.matronId == 0) {\r\n            return true;\r\n        }\r\n\r\n        // Doges can't breed with full or half siblings.\r\n        if (_sire.matronId == _matron.matronId || _sire.matronId == _matron.sireId) {\r\n            return false;\r\n        }\r\n        if (_sire.sireId == _matron.matronId || _sire.sireId == _matron.sireId) {\r\n            return false;\r\n        }\r\n\r\n        // Everything seems cool! Let's get DTF.\r\n        return true;\r\n    }\r\n\r\n    /// @dev Internal check to see if a given sire and matron are a valid mating pair for\r\n    ///  breeding via auction (i.e. skips ownership and siring approval checks).\r\n    function _canBreedWithViaAuction(uint256 _matronId, uint256 _sireId)\r\n        internal\r\n        view\r\n        returns (bool)\r\n    {\r\n        Doge storage matron = doges[_matronId];\r\n        Doge storage sire = doges[_sireId];\r\n        return _isValidMatingPair(matron, _matronId, sire, _sireId);\r\n    }\r\n\r\n    /// @notice Checks to see if two doges can breed together, including checks for\r\n    ///  ownership and siring approvals. Does NOT check that both doges are ready for\r\n    ///  breeding (i.e. breedWith could still fail until the cooldowns are finished).\r\n    ///  TODO: Shouldn't this check pregnancy and cooldowns?!?\r\n    /// @param _matronId The ID of the proposed matron.\r\n    /// @param _sireId The ID of the proposed sire.\r\n    function canBreedWith(uint256 _matronId, uint256 _sireId)\r\n        external\r\n        view\r\n        returns(bool)\r\n    {\r\n        require(_matronId > 0);\r\n        require(_sireId > 0);\r\n        Doge storage matron = doges[_matronId];\r\n        Doge storage sire = doges[_sireId];\r\n        return _isValidMatingPair(matron, _matronId, sire, _sireId) &&\r\n            _isSiringPermitted(_sireId, _matronId);\r\n    }\r\n\r\n    /// @dev Internal utility function to initiate breeding, assumes that all breeding\r\n    ///  requirements have been checked.\r\n    function _breedWith(uint256 _matronId, uint256 _sireId, address _matronOwner) internal {\r\n        // Grab a reference to the Doges from storage.\r\n        Doge storage sire = doges[_sireId];\r\n        Doge storage matron = doges[_matronId];\r\n\r\n        // Mark the matron as pregnant, keeping track of who the sire is.\r\n        matron.siringWithId = uint64(_sireId);\r\n\r\n        //pay breeding fees\r\n        _payBreedingFees(sire, matron, _matronOwner);\r\n\r\n        // Trigger the cooldown for both parents.\r\n        _triggerCooldown(sire);\r\n        _triggerCooldown(matron);\r\n        \r\n        // Clear siring permission for both parents. This may not be strictly necessary\r\n        // but it's likely to avoid confusion!\r\n        delete sireAllowedToAddress[_matronId];\r\n        delete sireAllowedToAddress[_sireId];\r\n\r\n        // Every time a doge gets pregnant, counter is incremented.\r\n        pregnantDoges++;\r\n\r\n        // Emit the pregnancy event.\r\n        emit Pregnant(ownerOf(_matronId), _matronId, _sireId, matron.cooldownEndBlock);\r\n    }\r\n    function _payBreedingFees(Doge storage sire, Doge storage matron, address sender) internal{       \r\n        uint ruby = rubyFees[sire.cooldownIndex] + rubyFees[matron.cooldownIndex];\r\n        uint wod = wodFees[sire.cooldownIndex] + wodFees[matron.cooldownIndex];\r\n        rubyToken.burn(sender, ruby);\r\n        wodToken.burn(sender, wod);\r\n    }\r\n\r\n    /// @notice Breed a Doge you own (as matron) with a sire that you own, or for which you\r\n    ///  have previously been given Siring approval. Will either make your doge pregnant, or will\r\n    ///  fail entirely. Requires a pre-payment of the fee given out to the first caller of giveBirth()\r\n    /// @param _matronId The ID of the Doge acting as matron (will end up pregnant if successful)\r\n    /// @param _sireId The ID of the Doge acting as sire (will begin its siring cooldown if successful)\r\n    function breedWithAuto(uint256 _matronId, uint256 _sireId)\r\n        external\r\n        payable\r\n        whenNotPaused\r\n    {\r\n        // Checks for payment.\r\n        require(msg.value >= autoBirthFee);\r\n        // Caller must own the matron.\r\n        require(ownerOf(_matronId) == msg.sender);\r\n\r\n        // Neither sire nor matron are allowed to be on auction during a normal\r\n        // breeding operation, but we don't need to check that explicitly.\r\n        // For matron: The caller of this function can't be the owner of the matron\r\n        //   because the owner of a Doge on auction is the auction house, and the\r\n        //   auction house will never call breedWith().\r\n        // For sire: Similarly, a sire on auction will be owned by the auction house\r\n        //   and the act of transferring ownership will have cleared any oustanding\r\n        //   siring approval.\r\n        // Thus we don't need to spend gas explicitly checking to see if either doge\r\n        // is on auction.\r\n\r\n        // Check that matron and sire are both owned by caller, or that the sire\r\n        // has given siring permission to caller (i.e. matron's owner).\r\n        // Will fail for _sireId = 0\r\n        require(_isSiringPermitted(_sireId, _matronId));\r\n        // Grab a reference to the potential matron\r\n        Doge storage matron = doges[_matronId];\r\n\r\n        // Make sure matron isn't pregnant, or in the middle of a siring cooldown\r\n        require(_isReadyToBreed(matron));\r\n\r\n        // Grab a reference to the potential sire\r\n        Doge storage sire = doges[_sireId];\r\n\r\n        // Make sure sire isn't pregnant, or in the middle of a siring cooldown\r\n        require(_isReadyToBreed(sire));\r\n\r\n        // Test that these doges are a valid mating pair.\r\n        require(_isValidMatingPair(\r\n            matron,\r\n            _matronId,\r\n            sire,\r\n            _sireId\r\n        ));\r\n        \r\n        // All checks passed, doge gets pregnant!\r\n        _breedWith(_matronId, _sireId, msg.sender);\r\n    }\r\n    /// @notice Have a pregnant Doge give birth!\r\n    /// @param _matronId A Doge ready to give birth.\r\n    /// @return The Doge ID of the new doge.\r\n    /// @dev Looks at a given Doge and, if pregnant and if the gestation period has passed,\r\n    ///  combines the genes of the two parents to create a new doge. The new Doge is assigned\r\n    ///  to the current owner of the matron. Upon successful completion, both the matron and the\r\n    ///  new doge will be ready to breed again. Note that anyone can call this function (if they\r\n    ///  are willing to pay the gas!), but the new doge always goes to the mother's owner.\r\n    \r\n    function giveBirth(uint256 _matronId)\r\n        external\r\n        whenNotPaused\r\n        returns(uint256)\r\n    {\r\n        // Grab a reference to the matron in storage.\r\n        Doge storage matron = doges[_matronId];\r\n\r\n        // Check that the matron is a valid doge.\r\n        require(matron.birthTime != 0);\r\n\r\n        // Check that the matron is pregnant, and that its time has come!\r\n        require(_isReadyToGiveBirth(matron));\r\n\r\n        // Grab a reference to the sire in storage.\r\n        uint256 sireId = matron.siringWithId;\r\n        Doge storage sire = doges[sireId];\r\n\r\n        // Determine the higher generation number of the two parents\r\n        uint32 parentGen = matron.generation;\r\n        uint32 sireGen = sire.generation;\r\n        \r\n        if (sireGen > parentGen) {\r\n            parentGen = sireGen;\r\n        }\r\n\r\n        // Call the sooper-sekret gene mixing operation.\r\n        uint256 childGenes = geneScience.mixGenes(matron.genes, sire.genes, matron.cooldownEndBlock - 1);\r\n        // Make the new doge!\r\n        address owner = ownerOf(_matronId);\r\n        uint256 dogeId = _createDoge(_matronId, sireId, parentGen + 1, childGenes, owner);\r\n\r\n        // Clear the reference to sire from the matron (REQUIRED! Having siringWithId\r\n        // set is what marks a matron as being pregnant.)\r\n        delete matron.siringWithId;\r\n\r\n        // Every time a doge gives birth counter is decremented.\r\n        pregnantDoges--;\r\n\r\n        // Send the balance fee to the person who made birth happen.\r\n        \r\n        _sendEther(payable(msg.sender), autoBirthFee);\r\n\r\n        // return the new doge's ID\r\n        return dogeId;\r\n    }\r\n\r\n    // `saleAuction` refers to the auction for gen0 and p2p sale of doges.\r\n    // `siringAuction` refers to the auction for siring rights of doges.\r\n\r\n    /// @dev Sets the reference to the sale auction.\r\n    /// @param _address - Address of sale contract.    \r\n    function setSaleAuctionAddress(address _address) external onlyRole(CEO_ROLE) {\r\n        SaleClockAuction candidateContract = SaleClockAuction(_address);\r\n\r\n        // NOTE: verify that a contract is what we expect - https://github.com/Lunyr/crowdsale-contracts/blob/cfadd15986c30521d8ba7d5b6f57b4fefcc7ac38/contracts/LunyrToken.sol#L117\r\n        require(candidateContract.isSaleClockAuction());\r\n\r\n        // Set the new contract address\r\n        saleAuction = candidateContract;\r\n\r\n        if(!isApprovedForAll(address(this), _address)){\r\n            _setApprovalForAll(address(this), _address, true);            \r\n        }\r\n    }\r\n\r\n    /// @dev Sets the reference to the siring auction.\r\n    /// @param _address - Address of siring contract.\r\n    function setSiringAuctionAddress(address _address) external onlyRole(CEO_ROLE) {\r\n        SiringClockAuction candidateContract = SiringClockAuction(_address);\r\n\r\n        // NOTE: verify that a contract is what we expect - https://github.com/Lunyr/crowdsale-contracts/blob/cfadd15986c30521d8ba7d5b6f57b4fefcc7ac38/contracts/LunyrToken.sol#L117\r\n        require(candidateContract.isSiringClockAuction());\r\n\r\n        // Set the new contract address\r\n        siringAuction = candidateContract;\r\n    }\r\n\r\n    /// @dev Put a doge up for auction.\r\n    function createSaleAuction(\r\n        uint256 _dogeId,\r\n        uint256 _startingPrice,\r\n        uint256 _endingPrice,\r\n        uint256 _duration\r\n    )\r\n        external\r\n        whenNotPaused\r\n    {\r\n        // Auction contract checks input sizes\r\n        // If doge is already on any auction, this will throw\r\n        // because it will be owned by the auction contract.\r\n        require(ownerOf(_dogeId) == msg.sender);\r\n        // Ensure the doge is not pregnant to prevent the auction\r\n        // contract accidentally receiving ownership of the child.\r\n        // NOTE: the doge IS allowed to be in a cooldown.\r\n        require(!isPregnant(_dogeId));\r\n        \r\n        //client will manually use setApprovalForAll for approving Sale contract\r\n        //to save gas cost for every sale Auction\r\n        // approve(address(saleAuction), _dogeId);\r\n        \r\n        // Sale auction throws if inputs are invalid and clears\r\n        // transfer and sire approval after escrowing the doge.\r\n        saleAuction.createAuction(\r\n            _dogeId,\r\n            _startingPrice,\r\n            _endingPrice,\r\n            _duration,\r\n            msg.sender\r\n        );\r\n    }\r\n\r\n    /// @dev Put a doge up for auction to be sire.\r\n    ///  Performs checks to ensure the doge can be sired, then\r\n    ///  delegates to reverse auction.\r\n    function createSiringAuction(\r\n        uint256 _dogeId,\r\n        uint256 _startingPrice,\r\n        uint256 _endingPrice,\r\n        uint256 _duration\r\n    )\r\n        external\r\n        whenNotPaused\r\n    {\r\n        // Auction contract checks input sizes\r\n        // If doge is already on any auction, this will throw\r\n        // because it will be owned by the auction contract.\r\n        require(ownerOf(_dogeId) == msg.sender);\r\n        require(isReadyToBreed(_dogeId));\r\n        //client will manually use setApprovalForAll for approving Sale contract\r\n        //to save gas cost for every sale Auction\r\n        // approve(address(siringAuction), _dogeId);\r\n        // Siring auction throws if inputs are invalid and clears\r\n        // transfer and sire approval after escrowing the doge.\r\n        siringAuction.createAuction(\r\n            _dogeId,\r\n            _startingPrice,\r\n            _endingPrice,\r\n            _duration,\r\n            msg.sender\r\n        );\r\n    }\r\n\r\n    /// @dev Completes a siring auction by bidding.\r\n    ///  Immediately breeds the winning matron with the sire on auction.\r\n    /// @param _sireId - ID of the sire on auction.\r\n    /// @param _matronId - ID of the matron owned by the bidder.\r\n    function bidOnSiringAuction(\r\n        uint256 _sireId,\r\n        uint256 _matronId\r\n    )\r\n        external\r\n        payable\r\n        whenNotPaused\r\n    {\r\n        // Auction contract checks input sizes\r\n        require(ownerOf(_matronId) == msg.sender);\r\n        require(isReadyToBreed(_matronId));\r\n        require(_canBreedWithViaAuction(_matronId, _sireId));\r\n        uint birthFee = autoBirthFee;\r\n        // Define the current price of the auction.\r\n        uint256 currentPrice = siringAuction.getCurrentPrice(_sireId);\r\n        require(msg.value >= currentPrice + birthFee);\r\n\r\n        // Siring auction will throw if the bid fails.\r\n        siringAuction.bid{value:msg.value - birthFee}(_sireId);\r\n        _breedWith(uint64(_matronId), uint64(_sireId), msg.sender);\r\n    }\r\n\r\n    /// @dev Transfers the balance of the sale auction contract\r\n    /// to the DogeHero contract. We use two-step withdrawal to\r\n    /// prevent two transfer calls in the auction bid function.\r\n    function withdrawAuctionBalances() external onlyRole(DEFAULT_ADMIN_ROLE) {\r\n        saleAuction.withdrawBalance();\r\n        siringAuction.withdrawBalance();\r\n    }\r\n\r\n   \r\n    /// @dev we can create promo doges, up to a limit. Only callable by COO\r\n    /// @param _genes the encoded genes of the doge to be created, any value is accepted\r\n    /// @param _owner the future owner of the created doges. Default to contract COO\r\n    function createPromoDoge(uint256 _genes, address _owner) external onlyRole(COO_ROLE) {        \r\n        uint createdAmount = promoCreatedCount;\r\n        require(createdAmount < PROMO_CREATION_LIMIT);\r\n       \r\n        promoCreatedCount = createdAmount + 1;\r\n        _createDoge(0, 0, 0, _genes, _owner);\r\n    }\r\n    function createPromoDogeBatch(uint256[] memory _genes, address[] memory _owner) external onlyRole(COO_ROLE) {        \r\n        uint createdAmount = promoCreatedCount;\r\n        require(createdAmount + _genes.length < PROMO_CREATION_LIMIT);\r\n        require(_genes.length == _owner.length);\r\n        promoCreatedCount = createdAmount + _genes.length;\r\n        for(uint i = 0; i < _genes.length; i++){\r\n            _createDoge(0, 0, 0, _genes[i], _owner[i]);\r\n        }\r\n        \r\n    }\r\n    /// @dev Creates a new gen0 doge with the given genes and\r\n    ///  creates an auction for it.\r\n    function createGen0Auction(uint256 _genes) external onlyRole(COO_ROLE) {\r\n        uint gen0 = gen0CreatedCount;\r\n        require(gen0 < GEN0_CREATION_LIMIT);\r\n        uint256 dogeId = _createDoge(0, 0, 0, _genes, address(saleAuction));\r\n        //change this to setApprovalForAll to save gas\r\n        // _approve(address(saleAuction), dogeId);\r\n        \r\n        saleAuction.createGen0Auction(\r\n            dogeId,\r\n            _computeNextGen0Price(),\r\n            0,\r\n            GEN0_AUCTION_DURATION,\r\n            address(this)\r\n        );\r\n        \r\n        gen0CreatedCount = gen0 + 1;\r\n    }\r\n    function createGen0AuctionBatch(uint256[] memory _genes) external onlyRole(COO_ROLE) {\r\n        uint gen0 = gen0CreatedCount;\r\n        require(_genes.length > 0);\r\n        require(gen0 + _genes.length <= GEN0_CREATION_LIMIT);\r\n        for(uint i = 0; i < _genes.length; i++){\r\n            //create a doge for saleAuction\r\n            uint256 dogeId = _createDoge(0, 0, 0, _genes[i], address(saleAuction));\r\n            \r\n            saleAuction.createGen0Auction(\r\n                dogeId,\r\n                _computeNextGen0Price(),\r\n                0,\r\n                GEN0_AUCTION_DURATION,\r\n                address(this)\r\n            );\r\n        }        \r\n        gen0CreatedCount = gen0 + _genes.length;\r\n    }\r\n    \r\n    /// @dev Computes the next gen0 auction starting price, given\r\n    ///  the average of the past 5 prices + 50%.\r\n    function _computeNextGen0Price() internal view returns (uint256) {\r\n        uint256 avePrice = saleAuction.averageGen0SalePrice();\r\n\r\n        // Sanity check to ensure we don't overflow arithmetic\r\n        require(avePrice == uint256(uint128(avePrice)));\r\n\r\n        uint256 nextPrice = avePrice + (avePrice / 2);\r\n\r\n        // We never auction for less than starting price\r\n        if (nextPrice < GEN0_STARTING_PRICE) {\r\n            nextPrice = GEN0_STARTING_PRICE;\r\n        }\r\n\r\n        return nextPrice;\r\n    }\r\n\r\n    function _sendEther(address payable _to, uint _amount) internal {        \r\n        (bool sent,) = _to.call{value: _amount}(\"\");\r\n        require(sent, \"Failed to send Ether\");\r\n    }\r\n\r\n    receive() external payable {}\r\n    fallback() external payable {}\r\n    /// @notice Returns all the relevant information about a specific doge.\r\n    /// @param _id The ID of the doge of interest.\r\n    function getDoge(uint256 _id)\r\n        external\r\n        view\r\n        returns (\r\n        bool isGestating,\r\n        bool isReady,\r\n        uint256 cooldownIndex,\r\n        uint256 nextActionAt,\r\n        uint256 siringWithId,\r\n        uint256 birthTime,\r\n        uint256 matronId,\r\n        uint256 sireId,\r\n        uint256 generation,\r\n        uint256 genes\r\n    ) {\r\n        Doge storage doge = doges[_id];\r\n\r\n        // if this variable is 0 then it's not gestating\r\n        isGestating = (doge.siringWithId != 0);\r\n        isReady = (doge.cooldownEndBlock <= block.number);\r\n        cooldownIndex = uint256(doge.cooldownIndex);\r\n        nextActionAt = uint256(doge.cooldownEndBlock);\r\n        siringWithId = uint256(doge.siringWithId);\r\n        birthTime = uint256(doge.birthTime);\r\n        matronId = uint256(doge.matronId);\r\n        sireId = uint256(doge.sireId);\r\n        generation = uint256(doge.generation);\r\n        genes = doge.genes;\r\n    }\r\n\r\n    /// @dev Override unpause so it requires all external contract addresses\r\n    ///  to be set before contract can be unpaused. Also, we can't have\r\n    ///  newContractAddress set either, because then the contract was upgraded.\r\n    /// @notice This is public rather than external so we can call super.unpause\r\n    ///  without using an expensive CALL.\r\n    function unpause() public onlyRole(CEO_ROLE) whenPaused {\r\n        require(address(saleAuction) != address(0));\r\n        require(address(siringAuction) != address(0));\r\n        require(address(geneScience) != address(0));\r\n\r\n        // Actually unpause the contract.\r\n        _unpause();\r\n    }\r\n    function pause() external onlyRole(CEO_ROLE) whenNotPaused{\r\n        _pause();\r\n    }\r\n    // @dev Allows the CFO to capture the balance available to the contract.\r\n    function withdrawBalance() external onlyRole(CEO_ROLE) {\r\n        uint256 balance = address(this).balance;\r\n        // Subtract all the currently pregnant doges we have, plus 1 of margin.\r\n        uint256 subtractFees = (pregnantDoges + 1) * autoBirthFee;\r\n        if (balance > subtractFees) {            \r\n            _sendEther(payable(msg.sender), balance - subtractFees);\r\n        }\r\n    }\r\n}\r\n",
  "sourcePath": "E:\\Solidity\\worldofdoge2\\contracts\\DogeHero.sol",
  "compiler": {
    "name": "solc",
    "version": "0.8.3+commit.8d00100c.Emscripten.clang"
  },
  "schemaVersion": "3.4.3",
  "updatedAt": "2022-01-24T00:46:55.096Z",
  "networkType": "ethereum",
  "devdoc": {
    "events": {
      "Birth(address,uint256,uint256,uint256,uint256)": {
        "details": "The Birth event is fired whenever a new doge comes into existence. This obviously  includes any time a doge is created through the giveBirth method, but it is also called  when a new gen0 doge is created."
      },
      "Pregnant(address,uint256,uint256,uint256)": {
        "details": "The Pregnant event is fired when two doges successfully breed and the pregnancy  timer begins for the matron."
      }
    },
    "kind": "dev",
    "methods": {
      "approve(address,uint256)": {
        "details": "See {IERC721-approve}."
      },
      "approveSiring(address,uint256)": {
        "params": {
          "_addr": "The address that will be able to sire with your Doge. Set to  address(0) to clear all siring approvals for this Doge.",
          "_sireId": "A Doge that you own that _addr will now be able to sire with."
        }
      },
      "balanceOf(address)": {
        "details": "See {IERC721-balanceOf}."
      },
      "bidOnSiringAuction(uint256,uint256)": {
        "details": "Completes a siring auction by bidding.  Immediately breeds the winning matron with the sire on auction.",
        "params": {
          "_matronId": "- ID of the matron owned by the bidder.",
          "_sireId": "- ID of the sire on auction."
        }
      },
      "breedWithAuto(uint256,uint256)": {
        "params": {
          "_matronId": "The ID of the Doge acting as matron (will end up pregnant if successful)",
          "_sireId": "The ID of the Doge acting as sire (will begin its siring cooldown if successful)"
        }
      },
      "canBreedWith(uint256,uint256)": {
        "params": {
          "_matronId": "The ID of the proposed matron.",
          "_sireId": "The ID of the proposed sire."
        }
      },
      "createGen0Auction(uint256)": {
        "details": "Creates a new gen0 doge with the given genes and  creates an auction for it."
      },
      "createPromoDoge(uint256,address)": {
        "details": "we can create promo doges, up to a limit. Only callable by COO",
        "params": {
          "_genes": "the encoded genes of the doge to be created, any value is accepted",
          "_owner": "the future owner of the created doges. Default to contract COO"
        }
      },
      "createSaleAuction(uint256,uint256,uint256,uint256)": {
        "details": "Put a doge up for auction."
      },
      "createSiringAuction(uint256,uint256,uint256,uint256)": {
        "details": "Put a doge up for auction to be sire.  Performs checks to ensure the doge can be sired, then  delegates to reverse auction."
      },
      "getApproved(uint256)": {
        "details": "See {IERC721-getApproved}."
      },
      "getDoge(uint256)": {
        "params": {
          "_id": "The ID of the doge of interest."
        }
      },
      "getRoleAdmin(bytes32)": {
        "details": "Returns the admin role that controls `role`. See {grantRole} and {revokeRole}. To change a role's admin, use {_setRoleAdmin}."
      },
      "giveBirth(uint256)": {
        "details": "Looks at a given Doge and, if pregnant and if the gestation period has passed,  combines the genes of the two parents to create a new doge. The new Doge is assigned  to the current owner of the matron. Upon successful completion, both the matron and the  new doge will be ready to breed again. Note that anyone can call this function (if they  are willing to pay the gas!), but the new doge always goes to the mother's owner.",
        "params": {
          "_matronId": "A Doge ready to give birth."
        },
        "returns": {
          "_0": "The Doge ID of the new doge."
        }
      },
      "grantRole(bytes32,address)": {
        "details": "Grants `role` to `account`. If `account` had not been already granted `role`, emits a {RoleGranted} event. Requirements: - the caller must have ``role``'s admin role."
      },
      "hasRole(bytes32,address)": {
        "details": "Returns `true` if `account` has been granted `role`."
      },
      "isApprovedForAll(address,address)": {
        "details": "See {IERC721-isApprovedForAll}."
      },
      "isPregnant(uint256)": {
        "details": "Checks whether a doge is currently pregnant.",
        "params": {
          "_dogeId": "reference the id of the doge, any user can inquire about it"
        }
      },
      "isReadyToBreed(uint256)": {
        "params": {
          "_dogeId": "reference the id of the doge, any user can inquire about it"
        }
      },
      "name()": {
        "details": "See {IERC721Metadata-name}."
      },
      "ownerOf(uint256)": {
        "details": "See {IERC721-ownerOf}."
      },
      "paused()": {
        "details": "Returns true if the contract is paused, and false otherwise."
      },
      "renounceRole(bytes32,address)": {
        "details": "Revokes `role` from the calling account. Roles are often managed via {grantRole} and {revokeRole}: this function's purpose is to provide a mechanism for accounts to lose their privileges if they are compromised (such as when a trusted device is misplaced). If the calling account had been revoked `role`, emits a {RoleRevoked} event. Requirements: - the caller must be `account`."
      },
      "revokeRole(bytes32,address)": {
        "details": "Revokes `role` from `account`. If `account` had been granted `role`, emits a {RoleRevoked} event. Requirements: - the caller must have ``role``'s admin role."
      },
      "safeTransferFrom(address,address,uint256)": {
        "details": "See {IERC721-safeTransferFrom}."
      },
      "safeTransferFrom(address,address,uint256,bytes)": {
        "details": "See {IERC721-safeTransferFrom}."
      },
      "setApprovalForAll(address,bool)": {
        "details": "See {IERC721-setApprovalForAll}."
      },
      "setAutoBirthFee(uint256)": {
        "details": "Updates the minimum payment required for calling giveBirthAuto(). Can only  be called by the COO address. (This fee is used to offset the gas cost incurred  by the autobirth daemon)."
      },
      "setGeneScienceAddress(address)": {
        "details": "Update the address of the genetic contract, can only be called by the CEO.",
        "params": {
          "_address": "An address of a GeneScience contract instance to be used from this point forward."
        }
      },
      "setSaleAuctionAddress(address)": {
        "details": "Sets the reference to the sale auction.",
        "params": {
          "_address": "- Address of sale contract.    "
        }
      },
      "setSiringAuctionAddress(address)": {
        "details": "Sets the reference to the siring auction.",
        "params": {
          "_address": "- Address of siring contract."
        }
      },
      "symbol()": {
        "details": "See {IERC721Metadata-symbol}."
      },
      "tokenByIndex(uint256)": {
        "details": "See {IERC721Enumerable-tokenByIndex}."
      },
      "tokenOfOwnerByIndex(address,uint256)": {
        "details": "See {IERC721Enumerable-tokenOfOwnerByIndex}."
      },
      "tokenURI(uint256)": {
        "details": "See {IERC721Metadata-tokenURI}."
      },
      "totalSupply()": {
        "details": "See {IERC721Enumerable-totalSupply}."
      },
      "transferFrom(address,address,uint256)": {
        "details": "See {IERC721-transferFrom}."
      },
      "unpause()": {
        "details": "Override unpause so it requires all external contract addresses  to be set before contract can be unpaused. Also, we can't have  newContractAddress set either, because then the contract was upgraded."
      },
      "withdrawAuctionBalances()": {
        "details": "Transfers the balance of the sale auction contract to the DogeHero contract. We use two-step withdrawal to prevent two transfer calls in the auction bid function."
      }
    },
    "stateVariables": {
      "doges": {
        "details": "An array containing the Doge struct for all Doges in existence. The ID  of each doge is actually an index into this array. Note that ID 0 is a negadoge,  the unDoge, the mythical beast that is the parent of all gen0 doges. A bizarre  creature that is both matron and sire... to itself! Has an invalid genetic code.  In other words, doge ID 0 is invalid... ;-)"
      },
      "geneScience": {
        "details": "The address of the sibling contract that is used to implement the sooper-sekret  genetic combination algorithm."
      },
      "saleAuction": {
        "details": "The address of the ClockAuction contract that handles sales of Doges. This  same contract handles both peer-to-peer sales as well as the gen0 sales which are  initiated every 15 minutes."
      },
      "sireAllowedToAddress": {
        "details": "A mapping from DogeIDs to an address that has been approved to use  this Doge for siring via breedWith(). Each Doge can only have one approved  address for siring at any time. A zero value means no approval is outstanding."
      },
      "siringAuction": {
        "details": "The address of a custom ClockAuction subclassed contract that handles siring  auctions. Needs to be separate from saleAuction because the actions taken on success  after a sales and siring auction are quite different."
      }
    },
    "version": 1
  },
  "userdoc": {
    "kind": "user",
    "methods": {
      "approveSiring(address,uint256)": {
        "notice": "Grants approval to another user to sire with one of your Doges."
      },
      "autoBirthFee()": {
        "notice": "The minimum payment required to use breedWithAuto(). This fee goes towards  the gas cost paid by whatever calls giveBirth(), and can be dynamically updated by  the COO role as the gas price changes."
      },
      "breedWithAuto(uint256,uint256)": {
        "notice": "Breed a Doge you own (as matron) with a sire that you own, or for which you  have previously been given Siring approval. Will either make your doge pregnant, or will  fail entirely. Requires a pre-payment of the fee given out to the first caller of giveBirth()"
      },
      "canBreedWith(uint256,uint256)": {
        "notice": "Checks to see if two doges can breed together, including checks for  ownership and siring approvals. Does NOT check that both doges are ready for  breeding (i.e. breedWith could still fail until the cooldowns are finished).  TODO: Shouldn't this check pregnancy and cooldowns?!?"
      },
      "getDoge(uint256)": {
        "notice": "Returns all the relevant information about a specific doge."
      },
      "giveBirth(uint256)": {
        "notice": "Have a pregnant Doge give birth!"
      },
      "isReadyToBreed(uint256)": {
        "notice": "Checks that a given doge is able to breed (i.e. it is not pregnant or  in the middle of a siring cooldown)."
      },
      "unpause()": {
        "notice": "This is public rather than external so we can call super.unpause  without using an expensive CALL."
      }
    },
    "version": 1
  }
}