{
  "contractName": "GeneScience",
  "abi": [
    {
      "inputs": [],
      "name": "isGeneScience",
      "outputs": [
        {
          "internalType": "bool",
          "name": "",
          "type": "bool"
        }
      ],
      "stateMutability": "view",
      "type": "function",
      "constant": true
    },
    {
      "inputs": [
        {
          "internalType": "uint256",
          "name": "_genes",
          "type": "uint256"
        }
      ],
      "name": "decode",
      "outputs": [
        {
          "internalType": "uint8[]",
          "name": "",
          "type": "uint8[]"
        }
      ],
      "stateMutability": "pure",
      "type": "function",
      "constant": true
    },
    {
      "inputs": [
        {
          "internalType": "uint8[]",
          "name": "_traits",
          "type": "uint8[]"
        }
      ],
      "name": "encode",
      "outputs": [
        {
          "internalType": "uint256",
          "name": "_genes",
          "type": "uint256"
        }
      ],
      "stateMutability": "pure",
      "type": "function",
      "constant": true
    },
    {
      "inputs": [
        {
          "internalType": "uint256",
          "name": "_genes",
          "type": "uint256"
        }
      ],
      "name": "expressingTraits",
      "outputs": [
        {
          "internalType": "uint8[12]",
          "name": "",
          "type": "uint8[12]"
        }
      ],
      "stateMutability": "pure",
      "type": "function",
      "constant": true
    },
    {
      "inputs": [
        {
          "internalType": "uint256",
          "name": "_genes1",
          "type": "uint256"
        },
        {
          "internalType": "uint256",
          "name": "_genes2",
          "type": "uint256"
        },
        {
          "internalType": "uint256",
          "name": "_targetBlock",
          "type": "uint256"
        }
      ],
      "name": "mixGenes",
      "outputs": [
        {
          "internalType": "uint256",
          "name": "",
          "type": "uint256"
        }
      ],
      "stateMutability": "view",
      "type": "function",
      "constant": true
    }
  ],
  "bytecode": "0x60806040526000805460ff1916600117905534801561001d57600080fd5b50610cac8061002d6000396000f3fe608060405234801561001057600080fd5b50600436106100575760003560e01c80630d9f5aed1461005c5780631597ee441461008257806354c15b821461009557806361a76900146100b257806377a74a20146100d2575b600080fd5b61006f61006a366004610959565b6100f2565b6040519081526020015b60405180910390f35b61006f61009036600461087a565b61061f565b6000546100a29060ff1681565b6040519015158152602001610079565b6100c56100c0366004610941565b610686565b60405161007991906109b9565b6100e56100e0366004610941565b610710565b6040516100799190610984565b600081431161010057600080fd5b8140806101345761011860ff84164360ff1916610a00565b92504383106101305761012d61010084610b92565b92505b5081405b6040805160208101839052908101869052606081018590526080810184905260a0016040516020818303038152906040528051906020012060001c905060008061017d87610686565b9050600061018a87610686565b604080516030808252610620820190925291925060009190602082016106008036833701905050905060008080805b600c8110156103ea5760035b600181106103d757806101d9836004610b73565b6101e39190610a00565b94506101f18a60028b61077f565b92506101fe60028a610a00565b9850826102d55787858151811061022557634e487b7160e01b600052603260045260246000fd5b602002602001015193508760018661023d9190610b92565b8151811061025b57634e487b7160e01b600052603260045260246000fd5b602002602001015188868151811061028357634e487b7160e01b600052603260045260246000fd5b60ff9092166020928302919091019091015283886102a2600188610b92565b815181106102c057634e487b7160e01b600052603260045260246000fd5b602002602001019060ff16908160ff16815250505b6102e18a60028b61077f565b92506102ee60028a610a00565b9850826103c55786858151811061031557634e487b7160e01b600052603260045260246000fd5b602002602001015193508660018661032d9190610b92565b8151811061034b57634e487b7160e01b600052603260045260246000fd5b602002602001015187868151811061037357634e487b7160e01b600052603260045260246000fd5b60ff909216602092830291909101909101528387610392600188610b92565b815181106103b057634e487b7160e01b600052603260045260246000fd5b602002602001019060ff16908160ff16815250505b806103cf81610bcc565b9150506101c5565b50806103e281610be3565b9150506101b9565b50600092505b6030831015610604576000610406600485610bfe565b15801561046d575085848151811061042e57634e487b7160e01b600052603260045260246000fd5b602002602001015160011660ff1687858151811061045c57634e487b7160e01b600052603260045260246000fd5b602002602001015160011660ff1614155b156104e95761047e8960038a61077f565b915061048b600389610a00565b97506104e68785815181106104b057634e487b7160e01b600052603260045260246000fd5b60200260200101518786815181106104d857634e487b7160e01b600052603260045260246000fd5b6020026020010151846107aa565b90505b60ff81161561052c578085858151811061051357634e487b7160e01b600052603260045260246000fd5b602002602001019060ff16908160ff16815250506105f1565b6105388960018a61077f565b9150610545600189610a00565b9750816105945786848151811061056c57634e487b7160e01b600052603260045260246000fd5b602002602001015185858151811061051357634e487b7160e01b600052603260045260246000fd5b8584815181106105b457634e487b7160e01b600052603260045260246000fd5b60200260200101518585815181106105dc57634e487b7160e01b600052603260045260246000fd5b602002602001019060ff16908160ff16815250505b50826105fc81610be3565b9350506103f0565b61060d8461061f565b985050505050505050505b9392505050565b6000805b603081101561067f5760059190911b908261063f82602f610b92565b8151811061065d57634e487b7160e01b600052603260045260246000fd5b602002602001015160ff1682179150808061067790610be3565b915050610623565b505b919050565b604080516030808252610620820190925260609160009190602082016106008036833701905050905060005b6030811015610709576106c58482610833565b8282815181106106e557634e487b7160e01b600052603260045260246000fd5b60ff909216602092830291909101909101528061070181610be3565b9150506106b2565b5092915050565b61071861084a565b61072061084a565b60005b600c811015610709576107408461073b836004610b73565b610833565b8282600c811061076057634e487b7160e01b600052603260045260246000fd5b60ff90921660209290920201528061077781610be3565b915050610723565b600080826001610790866002610aa5565b61079a9190610b92565b901b8516831c9150509392505050565b6000838360ff80821690831611156107c25750839050845b6107cc8282610ba9565b60ff1660011480156107e957506107e4600283610c12565b60ff16155b1561082a57600060178360ff16101561080457506001610808565b5060005b8085116108285761081a600284610a3d565b610825906010610a18565b93505b505b50509392505050565b60006106188360056108458582610b73565b61077f565b604051806101800160405280600c906020820280368337509192915050565b803560ff8116811461068157600080fd5b6000602080838503121561088c578182fd5b823567ffffffffffffffff808211156108a3578384fd5b818501915085601f8301126108b6578384fd5b8135818111156108c8576108c8610c60565b8060051b604051601f19603f830116810181811085821117156108ed576108ed610c60565b604052828152858101935084860182860187018a101561090b578788fd5b8795505b838610156109345761092081610869565b85526001959095019493860193860161090f565b5098975050505050505050565b600060208284031215610952578081fd5b5035919050565b60008060006060848603121561096d578182fd5b505081359360208301359350604090920135919050565b6101808101818360005b600c8110156109b057815160ff1683526020928301929091019060010161098e565b50505092915050565b6020808252825182820181905260009190848201906040850190845b818110156109f457835160ff16835292840192918401916001016109d5565b50909695505050505050565b60008219821115610a1357610a13610c34565b500190565b600060ff821660ff84168060ff03821115610a3557610a35610c34565b019392505050565b600060ff831680610a5057610a50610c4a565b8060ff84160491505092915050565b80825b6001808611610a715750610a9c565b818704821115610a8357610a83610c34565b80861615610a9057918102915b9490941c938002610a62565b94509492505050565b60006106186000198484600082610abe57506001610618565b81610acb57506000610618565b8160018114610ae15760028114610aeb57610b18565b6001915050610618565b60ff841115610afc57610afc610c34565b6001841b915084821115610b1257610b12610c34565b50610618565b5060208310610133831016604e8410600b8410161715610b4b575081810a83811115610b4657610b46610c34565b610618565b610b588484846001610a5f565b808604821115610b6a57610b6a610c34565b02949350505050565b6000816000190483118215151615610b8d57610b8d610c34565b500290565b600082821015610ba457610ba4610c34565b500390565b600060ff821660ff841680821015610bc357610bc3610c34565b90039392505050565b600081610bdb57610bdb610c34565b506000190190565b6000600019821415610bf757610bf7610c34565b5060010190565b600082610c0d57610c0d610c4a565b500690565b600060ff831680610c2557610c25610c4a565b8060ff84160691505092915050565b634e487b7160e01b600052601160045260246000fd5b634e487b7160e01b600052601260045260246000fd5b634e487b7160e01b600052604160045260246000fdfea2646970667358221220d766dbca3769a1012a9f7d7d49af523c41d33a67eda050960557a87e15a1e94b64736f6c63430008030033",
  "immutableReferences": {},
  "source": "// SPDX-License-Identifier: GPL-3.0\r\n\r\npragma solidity ^0.8.3;\r\n\r\n/// @title GeneScience implements the trait calculation for new doges\r\n/// @author Axiom Zen, Dieter Shirley <dete@axiomzen.co> (https://github.com/dete), Fabiano P. Soriani <fabianosoriani@gmail.com> (https://github.com/flockonus), Jordan Schalm <jordan.schalm@gmail.com> (https://github.com/jordanschalm), Abhishek Chadha <abhishek@dapperlabs.com> (https://github.com/achadha235)\r\ncontract GeneScience {\r\n    bool public isGeneScience = true;\r\n    \r\n    uint256 internal constant maskLast8Bits = uint256(0xff);\r\n    uint256 internal constant maskFirst248Bits = type(uint256).max ^ uint256(0xff);\r\n    \r\n\r\n    // @dev given a characteristic and 2 genes (unsorted) - returns > 0 if the genes ascended, that's the value\r\n    // @param trait1 any trait of that characteristic\r\n    // @param trait2 any trait of that characteristic\r\n    // @param rand is expected to be a 3 bits number (0~7)\r\n    // @return -1 if didnt match any ascention, OR a number from 0 to 30 for the ascended trait\r\n    function _ascend(uint8 trait1, uint8 trait2, uint256 rand) internal pure returns(uint8 ascension) {\r\n        ascension = 0;\r\n\r\n        uint8 smallT = trait1;\r\n        uint8 bigT = trait2;\r\n\r\n        if (smallT > bigT) {\r\n            bigT = trait1;\r\n            smallT = trait2;\r\n        }\r\n\r\n        // https://github.com/axiomzen/cryptokitties/issues/244\r\n        if ((bigT - smallT == 1) && smallT % 2 == 0) {\r\n\r\n            // The rand argument is expected to be a random number 0-7.\r\n            // 1st and 2nd tier: 1/4 chance (rand is 0 or 1)\r\n            // 3rd and 4th tier: 1/8 chance (rand is 0)\r\n\r\n            // must be at least this much to ascend\r\n            uint256 maxRand;\r\n            if (smallT < 23) maxRand = 1;\r\n            else maxRand = 0;\r\n\r\n            if (rand <= maxRand ) {\r\n                ascension = (smallT / 2) + 16;\r\n            }\r\n        }\r\n    }\r\n\r\n    /// @dev given a number get a slice of any bits, at certain offset\r\n    /// @param _n a number to be sliced\r\n    /// @param _nbits how many bits long is the new number\r\n    /// @param _offset how many bits to skip\r\n    function _sliceNumber(uint256 _n, uint256 _nbits, uint256 _offset) private pure returns (uint256) {\r\n        // mask is made by shifting left an offset number of times\r\n        uint256 mask = uint256((2**_nbits) - 1) << _offset;\r\n        // AND n with mask, and trim to max of _nbits bits\r\n        return uint256((_n & mask) >> _offset);\r\n    }\r\n\r\n    /// @dev Get a 5 bit slice from an input as a number\r\n    /// @param _input bits, encoded as uint\r\n    /// @param _slot from 0 to 50\r\n    function _get5Bits(uint256 _input, uint256 _slot) internal pure returns(uint8) {\r\n        return uint8(_sliceNumber(_input, uint256(5), _slot * 5));\r\n    }\r\n\r\n    /// @dev Parse a kitten gene and returns all of 12 \"trait stack\" that makes the characteristics\r\n    /// @param _genes kitten gene\r\n    /// @return the 48 traits that composes the genetic code, logically divided in stacks of 4, where only the first trait of each stack may express\r\n    function decode(uint256 _genes) public pure returns(uint8[] memory) {\r\n        uint8[] memory traits = new uint8[](48);\r\n        uint256 i;\r\n        for(i = 0; i < 48; i++) {\r\n            traits[i] = _get5Bits(_genes, i);\r\n        }\r\n        return traits;\r\n    }\r\n\r\n    /// @dev Given an array of traits return the number that represent genes\r\n    function encode(uint8[] memory _traits) public pure returns (uint256 _genes) {\r\n        _genes = 0;\r\n        for(uint256 i = 0; i < 48; i++) {\r\n            _genes = _genes << 5;\r\n            // bitwise OR trait with _genes\r\n            _genes = _genes | _traits[47 - i];\r\n        }\r\n        return _genes;\r\n    }\r\n\r\n    /// @dev return the expressing traits\r\n    /// @param _genes the long number expressing cat genes\r\n    function expressingTraits(uint256 _genes) public pure returns(uint8[12] memory) {\r\n        uint8[12] memory express;\r\n        for(uint256 i = 0; i < 12; i++) {\r\n            express[i] = _get5Bits(_genes, i * 4);\r\n        }\r\n        return express;\r\n    }\r\n\r\n    /// @dev the function as defined in the breeding contract - as defined in CK bible\r\n    function mixGenes(uint256 _genes1, uint256 _genes2, uint256 _targetBlock) public view returns (uint256) {\r\n        /* if (_privilegedBirther == address(0) || tx.origin == _privilegedBirther) {\r\n            // Allow immediate births if there is no privileged birther, or if the originator\r\n            // of the transaction is the privileged birther\r\n            require(block.number > _targetBlock);\r\n        } else {\r\n            require(block.number > _targetBlock + privilegedBirtherWindowSize);\r\n        } */\r\n        require(block.number > _targetBlock);\r\n\r\n        // Try to grab the hash of the \"target block\". This should be available the vast\r\n        // majority of the time (it will only fail if no-one calls giveBirth() within 256\r\n        // blocks of the target block, which is about 40 minutes. Since anyone can call\r\n        // giveBirth() and they are rewarded with ether if it succeeds, this is quite unlikely.)\r\n        uint256 randomN = uint256(blockhash(_targetBlock));\r\n\r\n        if (randomN == 0) {\r\n            // We don't want to completely bail if the target block is no-longer available,\r\n            // nor do we want to just use the current block's hash (since it could allow a\r\n            // caller to game the random result). Compute the most recent block that has the\r\n            // the same value modulo 256 as the target block. The hash for this block will\r\n            // still be available, and  while it can still change as time passes  it will\r\n            // only change every 40 minutes. Again, someone is very likely to jump in with\r\n            // the giveBirth() call before it can cycle too many times.\r\n            _targetBlock = (block.number & maskFirst248Bits) + (_targetBlock & maskLast8Bits);\r\n\r\n            // The computation above could result in a block LARGER than the current block,\r\n            // if so, subtract 256.\r\n            if (_targetBlock >= block.number) _targetBlock -= 256;\r\n\r\n            randomN = uint256(blockhash(_targetBlock));\r\n\r\n            // DEBUG ONLY\r\n            // assert(block.number != _targetBlock);\r\n            // assert((block.number - _targetBlock) <= 256);\r\n            // assert(randomN != 0);\r\n        }\r\n\r\n        // generate 256 bits of random, using as much entropy as we can from\r\n        // sources that can't change between calls.\r\n        randomN = uint256(keccak256(abi.encodePacked(randomN, _genes1, _genes2, _targetBlock)));\r\n        uint256 randomIndex = 0;\r\n\r\n        uint8[] memory genes1Array = decode(_genes1);\r\n        uint8[] memory genes2Array = decode(_genes2);\r\n        // All traits that will belong to baby\r\n        uint8[] memory babyArray = new uint8[](48);\r\n        // A pointer to the trait we are dealing with currently\r\n        uint256 traitPos;\r\n        // Trait swap value holder\r\n        uint8 swap;\r\n        // iterate all 12 characteristics\r\n        uint256 rand;\r\n        for(uint256 i = 0; i < 12; i++) {\r\n            // pick 4 traits for characteristic i\r\n            uint256 j;\r\n            // store the current random value\r\n            \r\n            for(j = 3; j >= 1; j--) {\r\n                traitPos = (i * 4) + j;\r\n\r\n                rand = _sliceNumber(randomN, 2, randomIndex); // 0~3\r\n                randomIndex += 2;\r\n\r\n                // 1/4 of a chance of gene swapping forward towards expressing.\r\n                if (rand == 0) {\r\n                    // do it for parent 1\r\n                    swap = genes1Array[traitPos];\r\n                    genes1Array[traitPos] = genes1Array[traitPos - 1];\r\n                    genes1Array[traitPos - 1] = swap;\r\n\r\n                }\r\n\r\n                rand = _sliceNumber(randomN, 2, randomIndex); // 0~3\r\n                randomIndex += 2;\r\n\r\n                if (rand == 0) {\r\n                    // do it for parent 2\r\n                    swap = genes2Array[traitPos];\r\n                    genes2Array[traitPos] = genes2Array[traitPos - 1];\r\n                    genes2Array[traitPos - 1] = swap;\r\n                }\r\n            }\r\n\r\n        }\r\n\r\n        // DEBUG ONLY - We should have used 72 2-bit slices above for the swapping\r\n        // which will have consumed 144 bits.\r\n        // assert(randomIndex == 144);\r\n\r\n        // We have 256 - 144 = 112 bits of randomness left at this point. We will use up to\r\n        // four bits for the first slot of each trait (three for the possible ascension, one\r\n        // to pick between mom and dad if the ascension fails, for a total of 48 bits. The other\r\n        // traits use one bit to pick between parents (36 gene pairs, 36 genes), leaving us\r\n        // well within our entropy budget.\r\n\r\n        // done shuffling parent genes, now let's decide on choosing trait and if ascending.\r\n        // NOTE: Ascensions ONLY happen in the \"top slot\" of each characteristic. This saves\r\n        //  gas and also ensures ascensions only happen when they're visible.\r\n        for(traitPos = 0; traitPos < 48; traitPos++) {\r\n\r\n            // See if this trait pair should ascend\r\n            uint8 ascendedTrait = 0;\r\n\r\n            // There are two checks here. The first is straightforward, only the trait\r\n            // in the first slot can ascend. The first slot is zero mod 4.\r\n            //\r\n            // The second check is more subtle: Only values that are one apart can ascend,\r\n            // which is what we check inside the _ascend method. However, this simple mask\r\n            // and compare is very cheap (9 gas) and will filter out about half of the\r\n            // non-ascending pairs without a function call.\r\n            //\r\n            // The comparison itself just checks that one value is even, and the other\r\n            // is odd.\r\n            if ((traitPos % 4 == 0) && (genes1Array[traitPos] & 1) != (genes2Array[traitPos] & 1)) {\r\n                rand = _sliceNumber(randomN, 3, randomIndex);\r\n                randomIndex += 3;\r\n\r\n                ascendedTrait = _ascend(genes1Array[traitPos], genes2Array[traitPos], rand);\r\n            }\r\n\r\n            if (ascendedTrait > 0) {\r\n                babyArray[traitPos] = uint8(ascendedTrait);\r\n            } else {\r\n                // did not ascend, pick one of the parent's traits for the baby\r\n                // We use the top bit of rand for this (the bottom three bits were used\r\n                // to check for the ascension itself).\r\n                rand = _sliceNumber(randomN, 1, randomIndex);\r\n                randomIndex += 1;\r\n\r\n                if (rand == 0) {\r\n                    babyArray[traitPos] = uint8(genes1Array[traitPos]);\r\n                } else {\r\n                    babyArray[traitPos] = uint8(genes2Array[traitPos]);\r\n                }\r\n            }\r\n        }\r\n\r\n        return encode(babyArray);\r\n    }\r\n}",
  "sourcePath": "E:\\Solidity\\worldofdoge2\\contracts\\GeneScience.sol",
  "compiler": {
    "name": "solc",
    "version": "0.8.3+commit.8d00100c.Emscripten.clang"
  },
  "schemaVersion": "3.4.3",
  "updatedAt": "2022-01-24T00:46:55.043Z",
  "networkType": "ethereum",
  "devdoc": {
    "author": "Axiom Zen, Dieter Shirley <dete@axiomzen.co> (https://github.com/dete), Fabiano P. Soriani <fabianosoriani@gmail.com> (https://github.com/flockonus), Jordan Schalm <jordan.schalm@gmail.com> (https://github.com/jordanschalm), Abhishek Chadha <abhishek@dapperlabs.com> (https://github.com/achadha235)",
    "kind": "dev",
    "methods": {
      "decode(uint256)": {
        "details": "Parse a kitten gene and returns all of 12 \"trait stack\" that makes the characteristics",
        "params": {
          "_genes": "kitten gene"
        },
        "returns": {
          "_0": "the 48 traits that composes the genetic code, logically divided in stacks of 4, where only the first trait of each stack may express"
        }
      },
      "encode(uint8[])": {
        "details": "Given an array of traits return the number that represent genes"
      },
      "expressingTraits(uint256)": {
        "details": "return the expressing traits",
        "params": {
          "_genes": "the long number expressing cat genes"
        }
      },
      "mixGenes(uint256,uint256,uint256)": {
        "details": "the function as defined in the breeding contract - as defined in CK bible"
      }
    },
    "title": "GeneScience implements the trait calculation for new doges",
    "version": 1
  },
  "userdoc": {
    "kind": "user",
    "methods": {},
    "version": 1
  }
}