{
  "contractName": "RubyToken",
  "abi": [
    {
      "anonymous": false,
      "inputs": [
        {
          "indexed": true,
          "internalType": "address",
          "name": "owner",
          "type": "address"
        },
        {
          "indexed": true,
          "internalType": "address",
          "name": "spender",
          "type": "address"
        },
        {
          "indexed": false,
          "internalType": "uint256",
          "name": "value",
          "type": "uint256"
        }
      ],
      "name": "Approval",
      "type": "event"
    },
    {
      "anonymous": false,
      "inputs": [
        {
          "indexed": true,
          "internalType": "bytes32",
          "name": "role",
          "type": "bytes32"
        },
        {
          "indexed": true,
          "internalType": "bytes32",
          "name": "previousAdminRole",
          "type": "bytes32"
        },
        {
          "indexed": true,
          "internalType": "bytes32",
          "name": "newAdminRole",
          "type": "bytes32"
        }
      ],
      "name": "RoleAdminChanged",
      "type": "event"
    },
    {
      "anonymous": false,
      "inputs": [
        {
          "indexed": true,
          "internalType": "bytes32",
          "name": "role",
          "type": "bytes32"
        },
        {
          "indexed": true,
          "internalType": "address",
          "name": "account",
          "type": "address"
        },
        {
          "indexed": true,
          "internalType": "address",
          "name": "sender",
          "type": "address"
        }
      ],
      "name": "RoleGranted",
      "type": "event"
    },
    {
      "anonymous": false,
      "inputs": [
        {
          "indexed": true,
          "internalType": "bytes32",
          "name": "role",
          "type": "bytes32"
        },
        {
          "indexed": true,
          "internalType": "address",
          "name": "account",
          "type": "address"
        },
        {
          "indexed": true,
          "internalType": "address",
          "name": "sender",
          "type": "address"
        }
      ],
      "name": "RoleRevoked",
      "type": "event"
    },
    {
      "anonymous": false,
      "inputs": [
        {
          "indexed": true,
          "internalType": "address",
          "name": "from",
          "type": "address"
        },
        {
          "indexed": true,
          "internalType": "address",
          "name": "to",
          "type": "address"
        },
        {
          "indexed": false,
          "internalType": "uint256",
          "name": "value",
          "type": "uint256"
        }
      ],
      "name": "Transfer",
      "type": "event"
    },
    {
      "inputs": [],
      "name": "BURNER_ROLE",
      "outputs": [
        {
          "internalType": "bytes32",
          "name": "",
          "type": "bytes32"
        }
      ],
      "stateMutability": "view",
      "type": "function",
      "constant": true
    },
    {
      "inputs": [],
      "name": "DEFAULT_ADMIN_ROLE",
      "outputs": [
        {
          "internalType": "bytes32",
          "name": "",
          "type": "bytes32"
        }
      ],
      "stateMutability": "view",
      "type": "function",
      "constant": true
    },
    {
      "inputs": [],
      "name": "MINTER_ROLE",
      "outputs": [
        {
          "internalType": "bytes32",
          "name": "",
          "type": "bytes32"
        }
      ],
      "stateMutability": "view",
      "type": "function",
      "constant": true
    },
    {
      "inputs": [
        {
          "internalType": "address",
          "name": "owner",
          "type": "address"
        },
        {
          "internalType": "address",
          "name": "spender",
          "type": "address"
        }
      ],
      "name": "allowance",
      "outputs": [
        {
          "internalType": "uint256",
          "name": "",
          "type": "uint256"
        }
      ],
      "stateMutability": "view",
      "type": "function",
      "constant": true
    },
    {
      "inputs": [
        {
          "internalType": "address",
          "name": "spender",
          "type": "address"
        },
        {
          "internalType": "uint256",
          "name": "amount",
          "type": "uint256"
        }
      ],
      "name": "approve",
      "outputs": [
        {
          "internalType": "bool",
          "name": "",
          "type": "bool"
        }
      ],
      "stateMutability": "nonpayable",
      "type": "function"
    },
    {
      "inputs": [
        {
          "internalType": "address",
          "name": "account",
          "type": "address"
        }
      ],
      "name": "balanceOf",
      "outputs": [
        {
          "internalType": "uint256",
          "name": "",
          "type": "uint256"
        }
      ],
      "stateMutability": "view",
      "type": "function",
      "constant": true
    },
    {
      "inputs": [],
      "name": "decimals",
      "outputs": [
        {
          "internalType": "uint8",
          "name": "",
          "type": "uint8"
        }
      ],
      "stateMutability": "view",
      "type": "function",
      "constant": true
    },
    {
      "inputs": [
        {
          "internalType": "address",
          "name": "spender",
          "type": "address"
        },
        {
          "internalType": "uint256",
          "name": "subtractedValue",
          "type": "uint256"
        }
      ],
      "name": "decreaseAllowance",
      "outputs": [
        {
          "internalType": "bool",
          "name": "",
          "type": "bool"
        }
      ],
      "stateMutability": "nonpayable",
      "type": "function"
    },
    {
      "inputs": [
        {
          "internalType": "bytes32",
          "name": "role",
          "type": "bytes32"
        }
      ],
      "name": "getRoleAdmin",
      "outputs": [
        {
          "internalType": "bytes32",
          "name": "",
          "type": "bytes32"
        }
      ],
      "stateMutability": "view",
      "type": "function",
      "constant": true
    },
    {
      "inputs": [
        {
          "internalType": "bytes32",
          "name": "role",
          "type": "bytes32"
        },
        {
          "internalType": "address",
          "name": "account",
          "type": "address"
        }
      ],
      "name": "grantRole",
      "outputs": [],
      "stateMutability": "nonpayable",
      "type": "function"
    },
    {
      "inputs": [
        {
          "internalType": "bytes32",
          "name": "role",
          "type": "bytes32"
        },
        {
          "internalType": "address",
          "name": "account",
          "type": "address"
        }
      ],
      "name": "hasRole",
      "outputs": [
        {
          "internalType": "bool",
          "name": "",
          "type": "bool"
        }
      ],
      "stateMutability": "view",
      "type": "function",
      "constant": true
    },
    {
      "inputs": [
        {
          "internalType": "address",
          "name": "spender",
          "type": "address"
        },
        {
          "internalType": "uint256",
          "name": "addedValue",
          "type": "uint256"
        }
      ],
      "name": "increaseAllowance",
      "outputs": [
        {
          "internalType": "bool",
          "name": "",
          "type": "bool"
        }
      ],
      "stateMutability": "nonpayable",
      "type": "function"
    },
    {
      "inputs": [],
      "name": "name",
      "outputs": [
        {
          "internalType": "string",
          "name": "",
          "type": "string"
        }
      ],
      "stateMutability": "view",
      "type": "function",
      "constant": true
    },
    {
      "inputs": [
        {
          "internalType": "bytes32",
          "name": "role",
          "type": "bytes32"
        },
        {
          "internalType": "address",
          "name": "account",
          "type": "address"
        }
      ],
      "name": "renounceRole",
      "outputs": [],
      "stateMutability": "nonpayable",
      "type": "function"
    },
    {
      "inputs": [
        {
          "internalType": "bytes32",
          "name": "role",
          "type": "bytes32"
        },
        {
          "internalType": "address",
          "name": "account",
          "type": "address"
        }
      ],
      "name": "revokeRole",
      "outputs": [],
      "stateMutability": "nonpayable",
      "type": "function"
    },
    {
      "inputs": [
        {
          "internalType": "bytes4",
          "name": "interfaceId",
          "type": "bytes4"
        }
      ],
      "name": "supportsInterface",
      "outputs": [
        {
          "internalType": "bool",
          "name": "",
          "type": "bool"
        }
      ],
      "stateMutability": "view",
      "type": "function",
      "constant": true
    },
    {
      "inputs": [],
      "name": "symbol",
      "outputs": [
        {
          "internalType": "string",
          "name": "",
          "type": "string"
        }
      ],
      "stateMutability": "view",
      "type": "function",
      "constant": true
    },
    {
      "inputs": [],
      "name": "totalSupply",
      "outputs": [
        {
          "internalType": "uint256",
          "name": "",
          "type": "uint256"
        }
      ],
      "stateMutability": "view",
      "type": "function",
      "constant": true
    },
    {
      "inputs": [
        {
          "internalType": "address",
          "name": "recipient",
          "type": "address"
        },
        {
          "internalType": "uint256",
          "name": "amount",
          "type": "uint256"
        }
      ],
      "name": "transfer",
      "outputs": [
        {
          "internalType": "bool",
          "name": "",
          "type": "bool"
        }
      ],
      "stateMutability": "nonpayable",
      "type": "function"
    },
    {
      "inputs": [
        {
          "internalType": "address",
          "name": "sender",
          "type": "address"
        },
        {
          "internalType": "address",
          "name": "recipient",
          "type": "address"
        },
        {
          "internalType": "uint256",
          "name": "amount",
          "type": "uint256"
        }
      ],
      "name": "transferFrom",
      "outputs": [
        {
          "internalType": "bool",
          "name": "",
          "type": "bool"
        }
      ],
      "stateMutability": "nonpayable",
      "type": "function"
    },
    {
      "inputs": [],
      "name": "initialize",
      "outputs": [],
      "stateMutability": "nonpayable",
      "type": "function"
    },
    {
      "inputs": [
        {
          "internalType": "address",
          "name": "account",
          "type": "address"
        },
        {
          "internalType": "uint256",
          "name": "amount",
          "type": "uint256"
        }
      ],
      "name": "mint",
      "outputs": [],
      "stateMutability": "nonpayable",
      "type": "function"
    },
    {
      "inputs": [
        {
          "internalType": "address",
          "name": "account",
          "type": "address"
        },
        {
          "internalType": "uint256",
          "name": "amount",
          "type": "uint256"
        }
      ],
      "name": "burn",
      "outputs": [],
      "stateMutability": "nonpayable",
      "type": "function"
    }
  ],
  "bytecode": "0x608060405234801561001057600080fd5b5061158e806100206000396000f3fe608060405234801561001057600080fd5b506004361061014d5760003560e01c806340c10f19116100c3578063a217fddf1161007c578063a217fddf146102cd578063a457c2d7146102d5578063a9059cbb146102e8578063d5391393146102fb578063d547741f14610322578063dd62ed3e146103355761014d565b806340c10f191461025b57806370a082311461026e5780638129fc1c1461029757806391d148541461029f57806395d89b41146102b25780639dc29fac146102ba5761014d565b8063248a9ca311610115578063248a9ca3146101c7578063282c51f3146101ea5780632f2ff15d14610211578063313ce5671461022657806336568abe1461023557806339509351146102485761014d565b806301ffc9a71461015257806306fdde031461017a578063095ea7b31461018f57806318160ddd146101a257806323b872dd146101b4575b600080fd5b61016561016036600461135b565b61036e565b60405190151581526020015b60405180910390f35b6101826103a7565b60405161017191906113f8565b61016561019d3660046112f8565b610439565b6035545b604051908152602001610171565b6101656101c23660046112bd565b61044f565b6101a66101d5366004611321565b60009081526097602052604090206001015490565b6101a67f3c11d16cbaffd01df69ce1c404f6340ee057498f5f00246190ea54220576a84881565b61022461021f366004611339565b6104fe565b005b60405160128152602001610171565b610224610243366004611339565b61052a565b6101656102563660046112f8565b6105a8565b6102246102693660046112f8565b6105e4565b6101a661027c366004611271565b6001600160a01b031660009081526033602052604090205490565b610224610619565b6101656102ad366004611339565b610735565b610182610760565b6102246102c83660046112f8565b61076f565b6101a6600081565b6101656102e33660046112f8565b6107a4565b6101656102f63660046112f8565b61083d565b6101a67f9f2df0fed2c77648de5860a4cc508cd0818c85b8b8a1ab4ceeef8d981c8956a681565b610224610330366004611339565b61084a565b6101a661034336600461128b565b6001600160a01b03918216600090815260346020908152604080832093909416825291909152205490565b60006001600160e01b03198216637965db0b60e01b148061039f57506301ffc9a760e01b6001600160e01b03198316145b90505b919050565b6060603680546103b690611507565b80601f01602080910402602001604051908101604052809291908181526020018280546103e290611507565b801561042f5780601f106104045761010080835404028352916020019161042f565b820191906000526020600020905b81548152906001019060200180831161041257829003601f168201915b5050505050905090565b6000610446338484610870565b50600192915050565b600061045c848484610994565b6001600160a01b0384166000908152603460209081526040808320338452909152902054828110156104e65760405162461bcd60e51b815260206004820152602860248201527f45524332303a207472616e7366657220616d6f756e74206578636565647320616044820152676c6c6f77616e636560c01b60648201526084015b60405180910390fd5b6104f38533858403610870565b506001949350505050565b60008281526097602052604090206001015461051b81335b610b64565b6105258383610bc8565b505050565b6001600160a01b038116331461059a5760405162461bcd60e51b815260206004820152602f60248201527f416363657373436f6e74726f6c3a2063616e206f6e6c792072656e6f756e636560448201526e103937b632b9903337b91039b2b63360891b60648201526084016104dd565b6105a48282610c4e565b5050565b3360008181526034602090815260408083206001600160a01b038716845290915281205490916104469185906105df908690611476565b610870565b7f9f2df0fed2c77648de5860a4cc508cd0818c85b8b8a1ab4ceeef8d981c8956a661060f8133610516565b6105258383610cb5565b600054610100900460ff166106345760005460ff1615610638565b303b155b61069b5760405162461bcd60e51b815260206004820152602e60248201527f496e697469616c697a61626c653a20636f6e747261637420697320616c72656160448201526d191e481a5b9a5d1a585b1a5e995960921b60648201526084016104dd565b600054610100900460ff161580156106bd576000805461ffff19166101011790555b61070d60405180604001604052806012815260200171576f726c64204f6620446f6765205275627960701b815250604051806040016040528060048152602001635255425960e01b815250610d95565b610715610dce565b610720600033610e0f565b8015610732576000805461ff00191690555b50565b60009182526097602090815260408084206001600160a01b0393909316845291905290205460ff1690565b6060603780546103b690611507565b7f3c11d16cbaffd01df69ce1c404f6340ee057498f5f00246190ea54220576a84861079a8133610516565b6105258383610e19565b3360009081526034602090815260408083206001600160a01b0386168452909152812054828110156108265760405162461bcd60e51b815260206004820152602560248201527f45524332303a2064656372656173656420616c6c6f77616e63652062656c6f77604482015264207a65726f60d81b60648201526084016104dd565b6108333385858403610870565b5060019392505050565b6000610446338484610994565b6000828152609760205260409020600101546108668133610516565b6105258383610c4e565b6001600160a01b0383166108d25760405162461bcd60e51b8152602060048201526024808201527f45524332303a20617070726f76652066726f6d20746865207a65726f206164646044820152637265737360e01b60648201526084016104dd565b6001600160a01b0382166109335760405162461bcd60e51b815260206004820152602260248201527f45524332303a20617070726f766520746f20746865207a65726f206164647265604482015261737360f01b60648201526084016104dd565b6001600160a01b0383811660008181526034602090815260408083209487168084529482529182902085905590518481527f8c5be1e5ebec7d5bd14f71427d1e84f3dd0314c0f7b2291e5b200ac8c7c3b925910160405180910390a3505050565b6001600160a01b0383166109f85760405162461bcd60e51b815260206004820152602560248201527f45524332303a207472616e736665722066726f6d20746865207a65726f206164604482015264647265737360d81b60648201526084016104dd565b6001600160a01b038216610a5a5760405162461bcd60e51b815260206004820152602360248201527f45524332303a207472616e7366657220746f20746865207a65726f206164647260448201526265737360e81b60648201526084016104dd565b6001600160a01b03831660009081526033602052604090205481811015610ad25760405162461bcd60e51b815260206004820152602660248201527f45524332303a207472616e7366657220616d6f756e7420657863656564732062604482015265616c616e636560d01b60648201526084016104dd565b6001600160a01b03808516600090815260336020526040808220858503905591851681529081208054849290610b09908490611476565b92505081905550826001600160a01b0316846001600160a01b03167fddf252ad1be2c89b69c2b068fc378daa952ba7f163c4a11628f55a4df523b3ef84604051610b5591815260200190565b60405180910390a35b50505050565b610b6e8282610735565b6105a457610b86816001600160a01b03166014610f67565b610b91836020610f67565b604051602001610ba2929190611383565b60408051601f198184030181529082905262461bcd60e51b82526104dd916004016113f8565b610bd28282610735565b6105a45760008281526097602090815260408083206001600160a01b03851684529091529020805460ff19166001179055610c0a3390565b6001600160a01b0316816001600160a01b0316837f2f8788117e7eff1d82e926ec794901d17c78024a50270940304540a733656f0d60405160405180910390a45050565b610c588282610735565b156105a45760008281526097602090815260408083206001600160a01b0385168085529252808320805460ff1916905551339285917ff6391f5c32d9c69d2a47ea670b442974b53935d1edc7fd64eb21e047a839171b9190a45050565b6001600160a01b038216610d0b5760405162461bcd60e51b815260206004820152601f60248201527f45524332303a206d696e7420746f20746865207a65726f20616464726573730060448201526064016104dd565b8060356000828254610d1d9190611476565b90915550506001600160a01b03821660009081526033602052604081208054839290610d4a908490611476565b90915550506040518181526001600160a01b038316906000907fddf252ad1be2c89b69c2b068fc378daa952ba7f163c4a11628f55a4df523b3ef9060200160405180910390a36105a4565b600054610100900460ff16610dbc5760405162461bcd60e51b81526004016104dd9061142b565b610dc4611150565b6105a48282611177565b600054610100900460ff16610df55760405162461bcd60e51b81526004016104dd9061142b565b610dfd611150565b610e05611150565b610e0d611150565b565b6105a48282610bc8565b6001600160a01b038216610e795760405162461bcd60e51b815260206004820152602160248201527f45524332303a206275726e2066726f6d20746865207a65726f206164647265736044820152607360f81b60648201526084016104dd565b6001600160a01b03821660009081526033602052604090205481811015610eed5760405162461bcd60e51b815260206004820152602260248201527f45524332303a206275726e20616d6f756e7420657863656564732062616c616e604482015261636560f01b60648201526084016104dd565b6001600160a01b0383166000908152603360205260408120838303905560358054849290610f1c9084906114ad565b90915550506040518281526000906001600160a01b038516907fddf252ad1be2c89b69c2b068fc378daa952ba7f163c4a11628f55a4df523b3ef9060200160405180910390a3610525565b60606000610f7683600261148e565b610f81906002611476565b67ffffffffffffffff811115610fa757634e487b7160e01b600052604160045260246000fd5b6040519080825280601f01601f191660200182016040528015610fd1576020820181803683370190505b509050600360fc1b81600081518110610ffa57634e487b7160e01b600052603260045260246000fd5b60200101906001600160f81b031916908160001a905350600f60fb1b8160018151811061103757634e487b7160e01b600052603260045260246000fd5b60200101906001600160f81b031916908160001a905350600061105b84600261148e565b611066906001611476565b90505b60018111156110fa576f181899199a1a9b1b9c1cb0b131b232b360811b85600f16601081106110a857634e487b7160e01b600052603260045260246000fd5b1a60f81b8282815181106110cc57634e487b7160e01b600052603260045260246000fd5b60200101906001600160f81b031916908160001a90535060049490941c936110f3816114f0565b9050611069565b5083156111495760405162461bcd60e51b815260206004820181905260248201527f537472696e67733a20686578206c656e67746820696e73756666696369656e7460448201526064016104dd565b9392505050565b600054610100900460ff16610e0d5760405162461bcd60e51b81526004016104dd9061142b565b600054610100900460ff1661119e5760405162461bcd60e51b81526004016104dd9061142b565b81516111b19060369060208501906111c1565b5080516105259060379060208401905b8280546111cd90611507565b90600052602060002090601f0160209004810192826111ef5760008555611235565b82601f1061120857805160ff1916838001178555611235565b82800160010185558215611235579182015b8281111561123557825182559160200191906001019061121a565b50611241929150611245565b5090565b5b808211156112415760008155600101611246565b80356001600160a01b03811681146103a257600080fd5b600060208284031215611282578081fd5b6111498261125a565b6000806040838503121561129d578081fd5b6112a68361125a565b91506112b46020840161125a565b90509250929050565b6000806000606084860312156112d1578081fd5b6112da8461125a565b92506112e86020850161125a565b9150604084013590509250925092565b6000806040838503121561130a578182fd5b6113138361125a565b946020939093013593505050565b600060208284031215611332578081fd5b5035919050565b6000806040838503121561134b578182fd5b823591506112b46020840161125a565b60006020828403121561136c578081fd5b81356001600160e01b031981168114611149578182fd5b60007f416363657373436f6e74726f6c3a206163636f756e7420000000000000000000825283516113bb8160178501602088016114c4565b7001034b99036b4b9b9b4b733903937b6329607d1b60179184019182015283516113ec8160288401602088016114c4565b01602801949350505050565b60006020825282518060208401526114178160408501602087016114c4565b601f01601f19169190910160400192915050565b6020808252602b908201527f496e697469616c697a61626c653a20636f6e7472616374206973206e6f74206960408201526a6e697469616c697a696e6760a81b606082015260800190565b6000821982111561148957611489611542565b500190565b60008160001904831182151516156114a8576114a8611542565b500290565b6000828210156114bf576114bf611542565b500390565b60005b838110156114df5781810151838201526020016114c7565b83811115610b5e5750506000910152565b6000816114ff576114ff611542565b506000190190565b600181811c9082168061151b57607f821691505b6020821081141561153c57634e487b7160e01b600052602260045260246000fd5b50919050565b634e487b7160e01b600052601160045260246000fdfea2646970667358221220359412029288adfc36a8a04f98d8c2ef754a56a5868e59b70a4f88394e3f46e464736f6c63430008030033",
  "immutableReferences": {},
  "source": "// SPDX-License-Identifier: GPL-3.0\r\npragma solidity ^0.8.3;\r\n// import \"@openzeppelin/contracts/token/ERC20/ERC20.sol\";\r\n// import \"@openzeppelin/contracts/access/AccessControl.sol\";\r\nimport \"@openzeppelin/contracts-upgradeable/token/ERC20/ERC20Upgradeable.sol\";\r\nimport \"@openzeppelin/contracts-upgradeable/access/AccessControlUpgradeable.sol\";\r\ncontract RubyToken is ERC20Upgradeable, AccessControlUpgradeable{\r\n    bytes32 public constant MINTER_ROLE = keccak256(\"MINTER_ROLE\");\r\n    bytes32 public constant BURNER_ROLE = keccak256(\"BURNER_ROLE\");\r\n    /* constructor() ERC20(\"World Of Doge Ruby\", \"RUBY\"){\r\n        _setupRole(DEFAULT_ADMIN_ROLE, msg.sender);\r\n    } */\r\n    function initialize() public initializer{\r\n        __ERC20_init(\"World Of Doge Ruby\", \"RUBY\");\r\n        __AccessControl_init();\r\n        _setupRole(DEFAULT_ADMIN_ROLE, msg.sender);\r\n    }\r\n    function mint(address account, uint amount) external onlyRole(MINTER_ROLE){\r\n        _mint(account, amount);\r\n    }\r\n    function burn(address account, uint amount) external onlyRole(BURNER_ROLE){\r\n        _burn(account, amount);\r\n    }\r\n}",
  "sourcePath": "E:\\Solidity\\worldofdoge2\\contracts\\RubyToken.sol",
  "compiler": {
    "name": "solc",
    "version": "0.8.3+commit.8d00100c.Emscripten.clang"
  },
  "schemaVersion": "3.4.3",
  "updatedAt": "2022-01-24T00:46:55.026Z",
  "networkType": "ethereum",
  "devdoc": {
    "kind": "dev",
    "methods": {
      "allowance(address,address)": {
        "details": "See {IERC20-allowance}."
      },
      "approve(address,uint256)": {
        "details": "See {IERC20-approve}. Requirements: - `spender` cannot be the zero address."
      },
      "balanceOf(address)": {
        "details": "See {IERC20-balanceOf}."
      },
      "decimals()": {
        "details": "Returns the number of decimals used to get its user representation. For example, if `decimals` equals `2`, a balance of `505` tokens should be displayed to a user as `5.05` (`505 / 10 ** 2`). Tokens usually opt for a value of 18, imitating the relationship between Ether and Wei. This is the value {ERC20} uses, unless this function is overridden; NOTE: This information is only used for _display_ purposes: it in no way affects any of the arithmetic of the contract, including {IERC20-balanceOf} and {IERC20-transfer}."
      },
      "decreaseAllowance(address,uint256)": {
        "details": "Atomically decreases the allowance granted to `spender` by the caller. This is an alternative to {approve} that can be used as a mitigation for problems described in {IERC20-approve}. Emits an {Approval} event indicating the updated allowance. Requirements: - `spender` cannot be the zero address. - `spender` must have allowance for the caller of at least `subtractedValue`."
      },
      "getRoleAdmin(bytes32)": {
        "details": "Returns the admin role that controls `role`. See {grantRole} and {revokeRole}. To change a role's admin, use {_setRoleAdmin}."
      },
      "grantRole(bytes32,address)": {
        "details": "Grants `role` to `account`. If `account` had not been already granted `role`, emits a {RoleGranted} event. Requirements: - the caller must have ``role``'s admin role."
      },
      "hasRole(bytes32,address)": {
        "details": "Returns `true` if `account` has been granted `role`."
      },
      "increaseAllowance(address,uint256)": {
        "details": "Atomically increases the allowance granted to `spender` by the caller. This is an alternative to {approve} that can be used as a mitigation for problems described in {IERC20-approve}. Emits an {Approval} event indicating the updated allowance. Requirements: - `spender` cannot be the zero address."
      },
      "name()": {
        "details": "Returns the name of the token."
      },
      "renounceRole(bytes32,address)": {
        "details": "Revokes `role` from the calling account. Roles are often managed via {grantRole} and {revokeRole}: this function's purpose is to provide a mechanism for accounts to lose their privileges if they are compromised (such as when a trusted device is misplaced). If the calling account had been revoked `role`, emits a {RoleRevoked} event. Requirements: - the caller must be `account`."
      },
      "revokeRole(bytes32,address)": {
        "details": "Revokes `role` from `account`. If `account` had been granted `role`, emits a {RoleRevoked} event. Requirements: - the caller must have ``role``'s admin role."
      },
      "supportsInterface(bytes4)": {
        "details": "See {IERC165-supportsInterface}."
      },
      "symbol()": {
        "details": "Returns the symbol of the token, usually a shorter version of the name."
      },
      "totalSupply()": {
        "details": "See {IERC20-totalSupply}."
      },
      "transfer(address,uint256)": {
        "details": "See {IERC20-transfer}. Requirements: - `recipient` cannot be the zero address. - the caller must have a balance of at least `amount`."
      },
      "transferFrom(address,address,uint256)": {
        "details": "See {IERC20-transferFrom}. Emits an {Approval} event indicating the updated allowance. This is not required by the EIP. See the note at the beginning of {ERC20}. Requirements: - `sender` and `recipient` cannot be the zero address. - `sender` must have a balance of at least `amount`. - the caller must have allowance for ``sender``'s tokens of at least `amount`."
      }
    },
    "version": 1
  },
  "userdoc": {
    "kind": "user",
    "methods": {},
    "version": 1
  }
}