{
  "contractName": "SiringClockAuction",
  "abi": [
    {
      "anonymous": false,
      "inputs": [
        {
          "indexed": false,
          "internalType": "uint256",
          "name": "tokenId",
          "type": "uint256"
        }
      ],
      "name": "AuctionCancelled",
      "type": "event"
    },
    {
      "anonymous": false,
      "inputs": [
        {
          "indexed": false,
          "internalType": "uint256",
          "name": "tokenId",
          "type": "uint256"
        },
        {
          "indexed": false,
          "internalType": "uint256",
          "name": "startingPrice",
          "type": "uint256"
        },
        {
          "indexed": false,
          "internalType": "uint256",
          "name": "endingPrice",
          "type": "uint256"
        },
        {
          "indexed": false,
          "internalType": "uint256",
          "name": "duration",
          "type": "uint256"
        }
      ],
      "name": "AuctionCreated",
      "type": "event"
    },
    {
      "anonymous": false,
      "inputs": [
        {
          "indexed": false,
          "internalType": "uint256",
          "name": "tokenId",
          "type": "uint256"
        },
        {
          "indexed": false,
          "internalType": "uint256",
          "name": "totalPrice",
          "type": "uint256"
        },
        {
          "indexed": false,
          "internalType": "address",
          "name": "winner",
          "type": "address"
        }
      ],
      "name": "AuctionSuccessful",
      "type": "event"
    },
    {
      "anonymous": false,
      "inputs": [
        {
          "indexed": true,
          "internalType": "address",
          "name": "previousOwner",
          "type": "address"
        },
        {
          "indexed": true,
          "internalType": "address",
          "name": "newOwner",
          "type": "address"
        }
      ],
      "name": "OwnershipTransferred",
      "type": "event"
    },
    {
      "anonymous": false,
      "inputs": [
        {
          "indexed": false,
          "internalType": "address",
          "name": "account",
          "type": "address"
        }
      ],
      "name": "Paused",
      "type": "event"
    },
    {
      "anonymous": false,
      "inputs": [
        {
          "indexed": false,
          "internalType": "address",
          "name": "account",
          "type": "address"
        }
      ],
      "name": "Unpaused",
      "type": "event"
    },
    {
      "inputs": [],
      "name": "isSiringClockAuction",
      "outputs": [
        {
          "internalType": "bool",
          "name": "",
          "type": "bool"
        }
      ],
      "stateMutability": "view",
      "type": "function",
      "constant": true
    },
    {
      "inputs": [],
      "name": "nonFungibleContract",
      "outputs": [
        {
          "internalType": "contract ERC721EnumerableUpgradeable",
          "name": "",
          "type": "address"
        }
      ],
      "stateMutability": "view",
      "type": "function",
      "constant": true
    },
    {
      "inputs": [],
      "name": "owner",
      "outputs": [
        {
          "internalType": "address",
          "name": "",
          "type": "address"
        }
      ],
      "stateMutability": "view",
      "type": "function",
      "constant": true
    },
    {
      "inputs": [],
      "name": "ownerCut",
      "outputs": [
        {
          "internalType": "uint256",
          "name": "",
          "type": "uint256"
        }
      ],
      "stateMutability": "view",
      "type": "function",
      "constant": true
    },
    {
      "inputs": [],
      "name": "paused",
      "outputs": [
        {
          "internalType": "bool",
          "name": "",
          "type": "bool"
        }
      ],
      "stateMutability": "view",
      "type": "function",
      "constant": true
    },
    {
      "inputs": [],
      "name": "renounceOwnership",
      "outputs": [],
      "stateMutability": "nonpayable",
      "type": "function"
    },
    {
      "inputs": [
        {
          "internalType": "address",
          "name": "newOwner",
          "type": "address"
        }
      ],
      "name": "transferOwnership",
      "outputs": [],
      "stateMutability": "nonpayable",
      "type": "function"
    },
    {
      "inputs": [
        {
          "internalType": "address",
          "name": "_nftAddress",
          "type": "address"
        },
        {
          "internalType": "uint256",
          "name": "_cut",
          "type": "uint256"
        }
      ],
      "name": "initialize",
      "outputs": [],
      "stateMutability": "nonpayable",
      "type": "function"
    },
    {
      "inputs": [],
      "name": "withdrawBalance",
      "outputs": [],
      "stateMutability": "nonpayable",
      "type": "function"
    },
    {
      "inputs": [
        {
          "internalType": "uint256",
          "name": "_tokenId",
          "type": "uint256"
        }
      ],
      "name": "cancelAuction",
      "outputs": [],
      "stateMutability": "nonpayable",
      "type": "function"
    },
    {
      "inputs": [
        {
          "internalType": "uint256",
          "name": "_tokenId",
          "type": "uint256"
        }
      ],
      "name": "cancelAuctionWhenPaused",
      "outputs": [],
      "stateMutability": "nonpayable",
      "type": "function"
    },
    {
      "inputs": [
        {
          "internalType": "uint256",
          "name": "_tokenId",
          "type": "uint256"
        }
      ],
      "name": "getAuction",
      "outputs": [
        {
          "internalType": "address",
          "name": "seller",
          "type": "address"
        },
        {
          "internalType": "uint256",
          "name": "startingPrice",
          "type": "uint256"
        },
        {
          "internalType": "uint256",
          "name": "endingPrice",
          "type": "uint256"
        },
        {
          "internalType": "uint256",
          "name": "duration",
          "type": "uint256"
        },
        {
          "internalType": "uint256",
          "name": "startedAt",
          "type": "uint256"
        }
      ],
      "stateMutability": "view",
      "type": "function",
      "constant": true
    },
    {
      "inputs": [
        {
          "internalType": "uint256",
          "name": "_tokenId",
          "type": "uint256"
        }
      ],
      "name": "getCurrentPrice",
      "outputs": [
        {
          "internalType": "uint256",
          "name": "",
          "type": "uint256"
        }
      ],
      "stateMutability": "view",
      "type": "function",
      "constant": true
    },
    {
      "inputs": [
        {
          "internalType": "uint256",
          "name": "_tokenId",
          "type": "uint256"
        },
        {
          "internalType": "uint256",
          "name": "_startingPrice",
          "type": "uint256"
        },
        {
          "internalType": "uint256",
          "name": "_endingPrice",
          "type": "uint256"
        },
        {
          "internalType": "uint256",
          "name": "_duration",
          "type": "uint256"
        },
        {
          "internalType": "address",
          "name": "_seller",
          "type": "address"
        }
      ],
      "name": "createAuction",
      "outputs": [],
      "stateMutability": "nonpayable",
      "type": "function"
    },
    {
      "inputs": [
        {
          "internalType": "uint256",
          "name": "_tokenId",
          "type": "uint256"
        }
      ],
      "name": "bid",
      "outputs": [],
      "stateMutability": "payable",
      "type": "function",
      "payable": true
    },
    {
      "inputs": [
        {
          "internalType": "address",
          "name": "owner",
          "type": "address"
        }
      ],
      "name": "balanceOf",
      "outputs": [
        {
          "internalType": "uint256",
          "name": "",
          "type": "uint256"
        }
      ],
      "stateMutability": "view",
      "type": "function",
      "constant": true
    },
    {
      "inputs": [
        {
          "internalType": "uint256",
          "name": "tokenId",
          "type": "uint256"
        }
      ],
      "name": "ownerOf",
      "outputs": [
        {
          "internalType": "address",
          "name": "",
          "type": "address"
        }
      ],
      "stateMutability": "view",
      "type": "function",
      "constant": true
    },
    {
      "inputs": [
        {
          "internalType": "address",
          "name": "owner",
          "type": "address"
        },
        {
          "internalType": "uint256",
          "name": "index",
          "type": "uint256"
        }
      ],
      "name": "tokenOfOwnerByIndex",
      "outputs": [
        {
          "internalType": "uint256",
          "name": "",
          "type": "uint256"
        }
      ],
      "stateMutability": "view",
      "type": "function",
      "constant": true
    }
  ],
  "bytecode": "0x608060405234801561001057600080fd5b506115c2806100206000396000f3fe6080604052600436106101095760003560e01c806378bd79351161009557806396b5a7551161006457806396b5a755146102d7578063c55d0f56146102f7578063cd6dc68714610317578063dd1b7a0f14610337578063f2fde38b1461035757610109565b806378bd79351461023157806383b5ff8b14610283578063878eb368146102995780638da5cb5b146102b957610109565b80635fd8c710116100dc5780635fd8c7101461019a5780636352211e146101af57806370a08231146101e7578063715018a61461020757806376190f8f1461021c57610109565b806327ebe40a1461010e5780632f745c5914610130578063454a2ab3146101635780635c975abb14610176575b600080fd5b34801561011a57600080fd5b5061012e610129366004611305565b610377565b005b34801561013c57600080fd5b5061015061014b3660046112c4565b61042f565b6040519081526020015b60405180910390f35b61012e6101713660046112ed565b6104b6565b34801561018257600080fd5b5060335460ff165b604051901515815260200161015a565b3480156101a657600080fd5b5061012e6104fe565b3480156101bb57600080fd5b506101cf6101ca3660046112ed565b610559565b6040516001600160a01b03909116815260200161015a565b3480156101f357600080fd5b506101506102023660046112aa565b6105d0565b34801561021357600080fd5b5061012e61064f565b34801561022857600080fd5b5061018a600181565b34801561023d57600080fd5b5061025161024c3660046112ed565b610685565b604080516001600160a01b0390961686526020860194909452928401919091526060830152608082015260a00161015a565b34801561028f57600080fd5b5061015060985481565b3480156102a557600080fd5b5061012e6102b43660046112ed565b610711565b3480156102c557600080fd5b506065546001600160a01b03166101cf565b3480156102e357600080fd5b5061012e6102f23660046112ed565b6107ce565b34801561030357600080fd5b506101506103123660046112ed565b610828565b34801561032357600080fd5b5061012e6103323660046112c4565b61086c565b34801561034357600080fd5b506097546101cf906001600160a01b031681565b34801561036357600080fd5b5061012e6103723660046112aa565b610965565b836001600160801b0316841461038c57600080fd5b826001600160801b031683146103a157600080fd5b816001600160401b031682146103b657600080fd5b6097546001600160a01b031633146103cd57600080fd5b6103d781866109fd565b6040805160a0810182526001600160a01b03831681526001600160801b0380871660208301528516918101919091526001600160401b038084166060830152421660808201526104278682610a73565b505050505050565b600061043a836105d0565b821061048d5760405162461bcd60e51b815260206004820152601960248201527f4f776e657220696e646578206f7574206f6620626f756e64730000000000000060448201526064015b60405180910390fd5b506001600160a01b03919091166000908152609c60209081526040808320938352929052205490565b6097546001600160a01b031633146104cd57600080fd5b6000818152609960205260409020546001600160a01b03166104ef8234610b6e565b506104fa8183610c66565b5050565b6097546001600160a01b031661051c6065546001600160a01b031690565b6001600160a01b0316336001600160a01b031614806105435750336001600160a01b038216145b61054c57600080fd5b6105568147610cdb565b50565b6000818152609a60205260408120546001600160a01b0316806105c85760405162461bcd60e51b815260206004820152602160248201527f4f776e657220717565727920666f72206e6f6e6578697374656e7420746f6b656044820152603760f91b6064820152608401610484565b90505b919050565b60006001600160a01b0382166106335760405162461bcd60e51b815260206004820152602260248201527f42616c616e636520717565727920666f7220746865207a65726f206164647265604482015261737360f01b6064820152608401610484565b506001600160a01b03166000908152609b602052604090205490565b6065546001600160a01b031633146106795760405162461bcd60e51b81526004016104849061134d565b6106836000610d75565b565b600081815260996020526040812081908190819081906106b88160020154600160401b90046001600160401b0316151590565b6106c157600080fd5b805460018201546002909201546001600160a01b03909116986001600160801b038084169950600160801b90930490921696506001600160401b038082169650600160401b909104169350915050565b60335460ff1661075a5760405162461bcd60e51b815260206004820152601460248201527314185d5cd8589b194e881b9bdd081c185d5cd95960621b6044820152606401610484565b6065546001600160a01b031633146107845760405162461bcd60e51b81526004016104849061134d565b60008181526099602052604090206107af8160020154600160401b90046001600160401b0316151590565b6107b857600080fd5b80546104fa9083906001600160a01b0316610dc7565b60008181526099602052604090206107f98160020154600160401b90046001600160401b0316151590565b61080257600080fd5b80546001600160a01b031633811461081957600080fd5b6108238382610dc7565b505050565b60008181526099602052604081206108538160020154600160401b90046001600160401b0316151590565b61085c57600080fd5b61086581610e0a565b9392505050565b600054610100900460ff166108875760005460ff161561088b565b303b155b6108ee5760405162461bcd60e51b815260206004820152602e60248201527f496e697469616c697a61626c653a20636f6e747261637420697320616c72656160448201526d191e481a5b9a5d1a585b1a5e995960921b6064820152608401610484565b600054610100900460ff16158015610910576000805461ffff19166101011790555b610918610e80565b610920610eb7565b61271082111561092f57600080fd5b6098829055609780546001600160a01b0319166001600160a01b0385161790558015610823576000805461ff0019169055505050565b6065546001600160a01b0316331461098f5760405162461bcd60e51b81526004016104849061134d565b6001600160a01b0381166109f45760405162461bcd60e51b815260206004820152602660248201527f4f776e61626c653a206e6577206f776e657220697320746865207a65726f206160448201526564647265737360d01b6064820152608401610484565b61055681610d75565b6097546040516323b872dd60e01b81526001600160a01b03848116600483015230602483015260448201849052909116906323b872dd90606401600060405180830381600087803b158015610a5157600080fd5b505af1158015610a65573d6000803e3d6000fd5b505050506104fa8282610eee565b603c81606001516001600160401b03161015610a8e57600080fd5b600082815260996020908152604091829020835181546001600160a01b039091166001600160a01b031990911617815590830151828401516001600160801b03908116600160801b810291909216908117600184015560608501516002909301805460808701516001600160401b03908116600160401b026001600160801b031992909216951694851717905592517fa9c8dfcda5664a5a124c713e386da27de87432d5b668e79458501eb296389ba793610b62938793919293845260208401929092526040830152606082015260800190565b60405180910390a15050565b6000828152609960205260408120610b998160020154600160401b90046001600160401b0316151590565b610ba257600080fd5b6000610bad82610e0a565b905080841015610bbc57600080fd5b81546001600160a01b0316610bd086610fac565b8115610bfe576000610be183610fe3565b90506000610bef8285611549565b9050610bfb8382610cdb565b50505b6000610c0a8387611549565b90508015610c1c57610c1c3382610cdb565b6040805188815260208101859052338183015290517f4fcc30d90a842164dd58501ab874a101a3749c3d4747139cefe7c876f4ccebd29181900360600190a1509095945050505050565b6097546040516323b872dd60e01b81523060048201526001600160a01b03848116602483015260448201849052909116906323b872dd90606401600060405180830381600087803b158015610cba57600080fd5b505af1158015610cce573d6000803e3d6000fd5b505050506104fa81611000565b6000826001600160a01b03168260405160006040518083038185875af1925050503d8060008114610d28576040519150601f19603f3d011682016040523d82523d6000602084013e610d2d565b606091505b50509050806108235760405162461bcd60e51b81526020600482015260146024820152732330b4b632b2103a379039b2b7321022ba3432b960611b6044820152606401610484565b606580546001600160a01b038381166001600160a01b0319831681179093556040519116919082907f8be0079c531659141344cd1fd0a4f28419497f9722a3daafe3b4186f6b6457e090600090a35050565b610dd082610fac565b610dda8183610c66565b6040518281527f2809c7e17bf978fbc7194c0a694b638c4215e9140cacc6c38ca36010b45697df90602001610b62565b60028101546000908190600160401b90046001600160401b0316421115610e4d576002830154610e4a90600160401b90046001600160401b031642611549565b90505b60018301546002840154610865916001600160801b0380821692600160801b90920416906001600160401b031684611066565b600054610100900460ff16610ea75760405162461bcd60e51b815260040161048490611382565b610eaf6110bc565b6106836110e3565b600054610100900460ff16610ede5760405162461bcd60e51b815260040161048490611382565b610ee66110bc565b610683611116565b6001600160a01b038216610f445760405162461bcd60e51b815260206004820152601860248201527f4d696e7420746f20746865207a65726f206164647265737300000000000000006044820152606401610484565b610f5060008383611146565b6001600160a01b0382166000908152609b60205260408120805460019290610f7990849061140e565b90915550506000908152609a6020526040902080546001600160a01b0319166001600160a01b0392909216919091179055565b600090815260996020526040812080546001600160a01b0319168155600181019190915560020180546001600160801b0319169055565b600061271060985483610ff691906114eb565b6105c89190611454565b600061100b82610559565b905061101981600084611146565b6001600160a01b0381166000908152609b60205260408120805460019290611042908490611549565b9091555050506000908152609a6020526040902080546001600160a01b0319169055565b60008282106110765750826110b4565b6000611082868661150a565b90506000846110918584611468565b61109b9190611426565b905060006110a982896113cd565b93506110b492505050565b949350505050565b600054610100900460ff166106835760405162461bcd60e51b815260040161048490611382565b600054610100900460ff1661110a5760405162461bcd60e51b815260040161048490611382565b6033805460ff19169055565b600054610100900460ff1661113d5760405162461bcd60e51b815260040161048490611382565b61068333610d75565b6001600160a01b0383166111595761117c565b816001600160a01b0316836001600160a01b03161461117c5761117c83826111b2565b6001600160a01b03821661118f57610823565b826001600160a01b0316826001600160a01b03161461082357610823828261124f565b600060016111bf846105d0565b6111c99190611549565b6000838152609d602052604090205490915080821461121c576001600160a01b0384166000908152609c602090815260408083208584528252808320548484528184208190558352609d90915290208190555b506000918252609d602090815260408084208490556001600160a01b039094168352609c81528383209183525290812055565b600061125a836105d0565b6001600160a01b039093166000908152609c602090815260408083208684528252808320859055938252609d9052919091209190915550565b80356001600160a01b03811681146105cb57600080fd5b6000602082840312156112bb578081fd5b61086582611293565b600080604083850312156112d6578081fd5b6112df83611293565b946020939093013593505050565b6000602082840312156112fe578081fd5b5035919050565b600080600080600060a0868803121561131c578081fd5b8535945060208601359350604086013592506060860135915061134160808701611293565b90509295509295909350565b6020808252818101527f4f776e61626c653a2063616c6c6572206973206e6f7420746865206f776e6572604082015260600190565b6020808252602b908201527f496e697469616c697a61626c653a20636f6e7472616374206973206e6f74206960408201526a6e697469616c697a696e6760a81b606082015260800190565b600080821280156001600160ff1b03849003851316156113ef576113ef611560565b600160ff1b839003841281161561140857611408611560565b50500190565b6000821982111561142157611421611560565b500190565b60008261143557611435611576565b600160ff1b82146000198414161561144f5761144f611560565b500590565b60008261146357611463611576565b500490565b60006001600160ff1b038184138284138082168684048611161561148e5761148e611560565b600160ff1b848712828116878305891216156114ac576114ac611560565b8587129250878205871284841616156114c7576114c7611560565b878505871281841616156114dd576114dd611560565b505050929093029392505050565b600081600019048311821515161561150557611505611560565b500290565b60008083128015600160ff1b85018412161561152857611528611560565b6001600160ff1b038401831381161561154357611543611560565b50500390565b60008282101561155b5761155b611560565b500390565b634e487b7160e01b600052601160045260246000fd5b634e487b7160e01b600052601260045260246000fdfea2646970667358221220d5aa6d017b5df79629282ab846fc7fd875d239869a82f2ceb29f7d7e8184b44564736f6c63430008030033",
  "immutableReferences": {},
  "source": "// SPDX-License-Identifier: GPL-3.0\r\npragma solidity ^0.8.3;\r\n\r\nimport \"@openzeppelin/contracts-upgradeable/token/ERC721/extensions/ERC721EnumerableUpgradeable.sol\";\r\nimport \"@openzeppelin/contracts-upgradeable/security/PausableUpgradeable.sol\";\r\nimport \"@openzeppelin/contracts-upgradeable/access/OwnableUpgradeable.sol\";\r\n\r\n//import \"@openzeppelin/contracts/token/ERC721/extensions/ERC721Enumerable.sol\";\r\n//import \"@openzeppelin/contracts/security/Pausable.sol\";\r\n//import \"@openzeppelin/contracts/access/Ownable.sol\";\r\n\r\n/// @title Reverse auction modified for siring\r\n/// @notice We omit a fallback function to prevent accidental sends to this contract.\r\ncontract SiringClockAuction is PausableUpgradeable, OwnableUpgradeable {\r\n\r\n    // @dev Sanity check that allows us to ensure that we are pointing to the\r\n    //  right auction in our setSiringAuctionAddress() call.\r\n    bool public constant isSiringClockAuction = true;\r\n\r\n    // Represents an auction on an NFT\r\n    struct Auction {\r\n        // Current owner of NFT\r\n        address seller;\r\n        // Price (in wei) at beginning of auction\r\n        uint128 startingPrice;\r\n        // Price (in wei) at end of auction\r\n        uint128 endingPrice;\r\n        // Duration (in seconds) of auction\r\n        uint64 duration;\r\n        // Time when auction started\r\n        // NOTE: 0 if this auction has been concluded\r\n        uint64 startedAt;\r\n    }\r\n\r\n    // Reference to contract tracking NFT ownership\r\n    ERC721EnumerableUpgradeable public nonFungibleContract;\r\n\r\n    // Cut owner takes on each auction, measured in basis points (1/100 of a percent).\r\n    // Values 0-10,000 map to 0%-100%\r\n    uint256 public ownerCut;\r\n\r\n    // Map from token ID to their corresponding auction.\r\n    mapping (uint256 => Auction) tokenIdToAuction;\r\n\r\n    // Mapping from token ID to owner address\r\n    mapping(uint256 => address) private _owners;\r\n\r\n    // Mapping owner address to token count\r\n    mapping(address => uint256) private _balances;\r\n\r\n    // Mapping from owner to list of owned token IDs\r\n    mapping(address => mapping(uint256 => uint256)) private _ownedTokens;\r\n\r\n    // Mapping from token ID to index of the owner tokens list\r\n    mapping(uint256 => uint256) private _ownedTokensIndex;\r\n\r\n    event AuctionCreated(uint256 tokenId, uint256 startingPrice, uint256 endingPrice, uint256 duration);\r\n    event AuctionSuccessful(uint256 tokenId, uint256 totalPrice, address winner);\r\n    event AuctionCancelled(uint256 tokenId);\r\n\r\n    /// @dev Constructor creates a reference to the NFT ownership contract\r\n    ///  and verifies the owner cut is in the valid range.\r\n    /// @param _nftAddress - address of a deployed contract implementing\r\n    ///  the Nonfungible Interface.\r\n    /// @param _cut - percent cut the owner takes on each auction, must be\r\n    ///  between 0-10,000.        \r\n\r\n    function initialize(address _nftAddress, uint256 _cut) public initializer{\r\n        __Pausable_init();\r\n        __Ownable_init();\r\n        require(_cut <= 10000);\r\n        ownerCut = _cut;\r\n\r\n        nonFungibleContract = ERC721EnumerableUpgradeable(_nftAddress);\r\n    }\r\n\r\n    /// @dev Returns true if the claimant owns the token.\r\n    /// @param _claimant - Address claiming to own the token.\r\n    /// @param _tokenId - ID of token whose ownership to verify.\r\n    function _owns(address _claimant, uint256 _tokenId) internal view returns (bool) {\r\n        return (nonFungibleContract.ownerOf(_tokenId) == _claimant);\r\n    }\r\n\r\n    /// @dev Escrows the NFT, assigning ownership to this contract.\r\n    /// Throws if the escrow fails.\r\n    /// @param _owner - Current owner address of token to escrow.\r\n    /// @param _tokenId - ID of token whose approval to verify.\r\n    function _escrow(address _owner, uint256 _tokenId) internal {\r\n        // it will throw if transfer fails\r\n        nonFungibleContract.transferFrom(_owner, address(this), _tokenId);\r\n        _mint(_owner, _tokenId);\r\n    }\r\n\r\n    /// @dev Transfers an NFT owned by this contract to another address.\r\n    /// Returns true if the transfer succeeds.\r\n    /// @param _receiver - Address to transfer NFT to.\r\n    /// @param _tokenId - ID of token to transfer.\r\n    function _transfer(address _receiver, uint256 _tokenId) internal {\r\n        // it will throw if transfer fails\r\n        nonFungibleContract.transferFrom(address(this), _receiver, _tokenId);\r\n        _burn(_tokenId);\r\n    }\r\n\r\n    /// @dev Adds an auction to the list of open auctions. Also fires the\r\n    ///  AuctionCreated event.\r\n    /// @param _tokenId The ID of the token to be put on auction.\r\n    /// @param _auction Auction to add.\r\n    function _addAuction(uint256 _tokenId, Auction memory _auction) internal {\r\n        // Require that all auctions have a duration of\r\n        // at least one minute. (Keeps our math from getting hairy!)\r\n        require(_auction.duration >= 1 minutes);\r\n\r\n        tokenIdToAuction[_tokenId] = _auction;\r\n\r\n        emit AuctionCreated(\r\n            uint256(_tokenId),\r\n            uint256(_auction.startingPrice),\r\n            uint256(_auction.endingPrice),\r\n            uint256(_auction.duration)\r\n        );\r\n    }\r\n\r\n    /// @dev Cancels an auction unconditionally.\r\n    function _cancelAuction(uint256 _tokenId, address _seller) internal {\r\n        _removeAuction(_tokenId);\r\n        _transfer(_seller, _tokenId);\r\n        emit AuctionCancelled(_tokenId);\r\n    }\r\n\r\n    function _sendEther(address payable _to, uint _amount) internal {        \r\n        (bool sent,) = _to.call{value: _amount}(\"\");\r\n        require(sent, \"Failed to send Ether\");\r\n    }\r\n\r\n    /// @dev Computes the price and transfers winnings.\r\n    /// Does NOT transfer ownership of token.\r\n    function _bid(uint256 _tokenId, uint256 _bidAmount)\r\n        internal\r\n        returns (uint256)\r\n    {\r\n        // Get a reference to the auction struct\r\n        Auction storage auction = tokenIdToAuction[_tokenId];\r\n\r\n        // Explicitly check that this auction is currently live.\r\n        // (Because of how Ethereum mappings work, we can't just count\r\n        // on the lookup above failing. An invalid _tokenId will just\r\n        // return an auction object that is all zeros.)\r\n        require(_isOnAuction(auction));\r\n\r\n        // Check that the bid is greater than or equal to the current price\r\n        uint256 price = _currentPrice(auction);\r\n        require(_bidAmount >= price);\r\n\r\n        // Grab a reference to the seller before the auction struct\r\n        // gets deleted.\r\n        address payable seller = payable(auction.seller);\r\n\r\n        // The bid is good! Remove the auction before sending the fees\r\n        // to the sender so we can't have a reentrancy attack.\r\n        _removeAuction(_tokenId);\r\n\r\n        // Transfer proceeds to seller (if there are any!)\r\n        if (price > 0) {\r\n            // Calculate the auctioneer's cut.\r\n            // (NOTE: _computeCut() is guaranteed to return a\r\n            // value <= price, so this subtraction can't go negative.)\r\n            uint256 auctioneerCut = _computeCut(price);\r\n            uint256 sellerProceeds = price - auctioneerCut;\r\n\r\n            // NOTE: Doing a transfer() in the middle of a complex\r\n            // method like this is generally discouraged because of\r\n            // reentrancy attacks and DoS attacks if the seller is\r\n            // a contract with an invalid fallback function. We explicitly\r\n            // guard against reentrancy attacks by removing the auction\r\n            // before calling transfer(), and the only thing the seller\r\n            // can DoS is the sale of their own asset! (And if it's an\r\n            // accident, they can call cancelAuction(). )\r\n            _sendEther(seller, sellerProceeds);\r\n        }\r\n\r\n        // Calculate any excess funds included with the bid. If the excess\r\n        // is anything worth worrying about, transfer it back to bidder.\r\n        // NOTE: We checked above that the bid amount is greater than or\r\n        // equal to the price so this cannot underflow.\r\n        uint256 bidExcess = _bidAmount - price;\r\n\r\n        // Return the funds. Similar to the previous transfer, this is\r\n        // not susceptible to a re-entry attack because the auction is\r\n        // removed before any transfers occur.\r\n        if(bidExcess > 0){\r\n            _sendEther(payable(msg.sender), bidExcess);\r\n        }\r\n        \r\n        // Tell the world!\r\n        emit AuctionSuccessful(_tokenId, price, msg.sender);\r\n\r\n        return price;\r\n    }\r\n\r\n    /// @dev Removes an auction from the list of open auctions.\r\n    /// @param _tokenId - ID of NFT on auction.\r\n    function _removeAuction(uint256 _tokenId) internal {\r\n        delete tokenIdToAuction[_tokenId];\r\n    }\r\n\r\n    /// @dev Returns true if the NFT is on auction.\r\n    /// @param _auction - Auction to check.\r\n    function _isOnAuction(Auction storage _auction) internal view returns (bool) {\r\n        return (_auction.startedAt > 0);\r\n    }\r\n\r\n    /// @dev Returns current price of an NFT on auction. Broken into two\r\n    ///  functions (this one, that computes the duration from the auction\r\n    ///  structure, and the other that does the price computation) so we\r\n    ///  can easily test that the price computation works correctly.\r\n    function _currentPrice(Auction storage _auction)\r\n        internal\r\n        view\r\n        returns (uint256)\r\n    {\r\n        uint256 secondsPassed = 0;\r\n\r\n        // A bit of insurance against negative values (or wraparound).\r\n        // Probably not necessary (since Ethereum guarnatees that the\r\n        // now variable doesn't ever go backwards).\r\n        if (block.timestamp > _auction.startedAt) {\r\n            secondsPassed = block.timestamp - _auction.startedAt;\r\n        }\r\n\r\n        return _computeCurrentPrice(\r\n            _auction.startingPrice,\r\n            _auction.endingPrice,\r\n            _auction.duration,\r\n            secondsPassed\r\n        );\r\n    }\r\n\r\n    /// @dev Computes the current price of an auction. Factored out\r\n    ///  from _currentPrice so we can run extensive unit tests.\r\n    ///  When testing, make this function public and turn on\r\n    ///  `Current price computation` test suite.\r\n    function _computeCurrentPrice(\r\n        uint256 _startingPrice,\r\n        uint256 _endingPrice,\r\n        uint256 _duration,\r\n        uint256 _secondsPassed\r\n    )\r\n        internal\r\n        pure\r\n        returns (uint256)\r\n    {\r\n        // NOTE: We don't use SafeMath (or similar) in this function because\r\n        //  all of our public functions carefully cap the maximum values for\r\n        //  time (at 64-bits) and currency (at 128-bits). _duration is\r\n        //  also known to be non-zero (see the require() statement in\r\n        //  _addAuction())\r\n        if (_secondsPassed >= _duration) {\r\n            // We've reached the end of the dynamic pricing portion\r\n            // of the auction, just return the end price.\r\n            return _endingPrice;\r\n        } else {\r\n            // Starting price can be higher than ending price (and often is!), so\r\n            // this delta can be negative.\r\n            int256 totalPriceChange = int256(_endingPrice) - int256(_startingPrice);\r\n\r\n            // This multiplication can't overflow, _secondsPassed will easily fit within\r\n            // 64-bits, and totalPriceChange will easily fit within 128-bits, their product\r\n            // will always fit within 256-bits.\r\n            int256 currentPriceChange = totalPriceChange * int256(_secondsPassed) / int256(_duration);\r\n\r\n            // currentPriceChange can be negative, but if so, will have a magnitude\r\n            // less that _startingPrice. Thus, this result will always end up positive.\r\n            int256 currentPrice = int256(_startingPrice) + currentPriceChange;\r\n\r\n            return uint256(currentPrice);\r\n        }\r\n    }\r\n\r\n    /// @dev Computes owner's cut of a sale.\r\n    /// @param _price - Sale price of NFT.\r\n    function _computeCut(uint256 _price) internal view returns (uint256) {\r\n        // NOTE: We don't use SafeMath (or similar) in this function because\r\n        //  all of our entry functions carefully cap the maximum values for\r\n        //  currency (at 128-bits), and ownerCut <= 10000 (see the require()\r\n        //  statement in the ClockAuction constructor). The result of this\r\n        //  function is always guaranteed to be <= _price.\r\n        return _price * ownerCut / 10000;\r\n    }\r\n\r\n    \r\n    /// @dev Remove all Ether from the contract, which is the owner's cuts\r\n    ///  as well as any Ether sent directly to the contract address.\r\n    ///  Always transfers to the NFT contract, but can be called either by\r\n    ///  the owner or the NFT contract.\r\n    function withdrawBalance() external {\r\n        address nftAddress = address(nonFungibleContract);\r\n\r\n        require(\r\n            msg.sender == owner() ||\r\n            msg.sender == nftAddress\r\n        );\r\n        // We are using this boolean method to make sure that even if one fails it will still work\r\n        _sendEther(payable(nftAddress), address(this).balance);\r\n    }\r\n\r\n\r\n    /// @dev Cancels an auction that hasn't been won yet.\r\n    ///  Returns the NFT to original owner.\r\n    /// @notice This is a state-modifying function that can\r\n    ///  be called while the contract is paused.\r\n    /// @param _tokenId - ID of token on auction\r\n    function cancelAuction(uint256 _tokenId)\r\n        external\r\n    {\r\n        Auction storage auction = tokenIdToAuction[_tokenId];\r\n        require(_isOnAuction(auction));\r\n        address seller = auction.seller;\r\n        require(msg.sender == seller);\r\n        _cancelAuction(_tokenId, seller);\r\n    }\r\n\r\n    /// @dev Cancels an auction when the contract is paused.\r\n    ///  Only the owner may do this, and NFTs are returned to\r\n    ///  the seller. This should only be used in emergencies.\r\n    /// @param _tokenId - ID of the NFT on auction to cancel.\r\n    function cancelAuctionWhenPaused(uint256 _tokenId)\r\n        whenPaused\r\n        onlyOwner\r\n        external\r\n    {\r\n        Auction storage auction = tokenIdToAuction[_tokenId];\r\n        require(_isOnAuction(auction));\r\n        _cancelAuction(_tokenId, auction.seller);\r\n    }\r\n\r\n    /// @dev Returns auction info for an NFT on auction.\r\n    /// @param _tokenId - ID of NFT on auction.\r\n    function getAuction(uint256 _tokenId)\r\n        external\r\n        view\r\n        returns\r\n    (\r\n        address seller,\r\n        uint256 startingPrice,\r\n        uint256 endingPrice,\r\n        uint256 duration,\r\n        uint256 startedAt\r\n    ) {\r\n        Auction storage auction = tokenIdToAuction[_tokenId];\r\n        require(_isOnAuction(auction));\r\n        return (\r\n            auction.seller,\r\n            auction.startingPrice,\r\n            auction.endingPrice,\r\n            auction.duration,\r\n            auction.startedAt\r\n        );\r\n    }\r\n\r\n    /// @dev Returns the current price of an auction.\r\n    /// @param _tokenId - ID of the token price we are checking.\r\n    function getCurrentPrice(uint256 _tokenId)\r\n        external\r\n        view\r\n        returns (uint256)\r\n    {\r\n        Auction storage auction = tokenIdToAuction[_tokenId];\r\n        require(_isOnAuction(auction));\r\n        return _currentPrice(auction);\r\n    }\r\n\r\n    \r\n    /// @dev Creates and begins a new auction. Since this function is wrapped,\r\n    /// require sender to be DogeHero contract.\r\n    /// @param _tokenId - ID of token to auction, sender must be owner.\r\n    /// @param _startingPrice - Price of item (in wei) at beginning of auction.\r\n    /// @param _endingPrice - Price of item (in wei) at end of auction.\r\n    /// @param _duration - Length of auction (in seconds).\r\n    /// @param _seller - Seller, if not the message sender\r\n    function createAuction(\r\n        uint256 _tokenId,\r\n        uint256 _startingPrice,\r\n        uint256 _endingPrice,\r\n        uint256 _duration,\r\n        address _seller\r\n    )\r\n        external\r\n        \r\n    {\r\n        // Sanity check that no inputs overflow how many bits we've allocated\r\n        // to store them in the auction struct.\r\n        require(_startingPrice == uint256(uint128(_startingPrice)));\r\n        require(_endingPrice == uint256(uint128(_endingPrice)));\r\n        require(_duration == uint256(uint64(_duration)));\r\n\r\n        require(msg.sender == address(nonFungibleContract));\r\n        _escrow(_seller, _tokenId);\r\n        Auction memory auction = Auction(\r\n            _seller,\r\n            uint128(_startingPrice),\r\n            uint128(_endingPrice),\r\n            uint64(_duration),\r\n            uint64(block.timestamp)\r\n        );\r\n        _addAuction(_tokenId, auction);\r\n    }\r\n\r\n    /// @dev Places a bid for siring. Requires the sender\r\n    /// is the DogeHero contract because all bid methods\r\n    /// should be wrapped. Also returns the doge to the\r\n    /// seller rather than the winner.\r\n    function bid(uint256 _tokenId)\r\n        external        \r\n        payable\r\n    {\r\n        require(msg.sender == address(nonFungibleContract));\r\n        address seller = tokenIdToAuction[_tokenId].seller;\r\n        // _bid checks that token ID is valid and will throw if bid fails\r\n        _bid(_tokenId, msg.value);\r\n        // We transfer the doge back to the seller, the winner will get\r\n        // the offspring\r\n        _transfer(seller, _tokenId);\r\n    }\r\n\r\n    \r\n    function balanceOf(address owner) public view returns (uint256) {\r\n        require(owner != address(0), \"Balance query for the zero address\");\r\n        return _balances[owner];\r\n    }\r\n\r\n    function ownerOf(uint256 tokenId) public view returns (address) {\r\n        address owner = _owners[tokenId];\r\n        require(owner != address(0), \"Owner query for nonexistent token\");\r\n        return owner;\r\n    }\r\n    function tokenOfOwnerByIndex(address owner, uint256 index) public view returns (uint256) {\r\n        require(index < balanceOf(owner), \"Owner index out of bounds\");\r\n        return _ownedTokens[owner][index];\r\n    }\r\n    function _mint(address to, uint256 tokenId) internal {\r\n        require(to != address(0), \"Mint to the zero address\");\r\n        _beforeTokenTransfer(address(0), to, tokenId);\r\n        _balances[to] += 1;\r\n        _owners[tokenId] = to;\r\n    }\r\n\r\n    function _burn(uint256 tokenId) internal {\r\n        address owner = ownerOf(tokenId);\r\n        _beforeTokenTransfer(owner, address(0), tokenId);\r\n        _balances[owner] -= 1;\r\n        delete _owners[tokenId];\r\n    }\r\n    function _beforeTokenTransfer(\r\n        address from,\r\n        address to,\r\n        uint256 tokenId\r\n    ) internal {\r\n        if (from == address(0)) {\r\n            // _addTokenToAllTokensEnumeration(tokenId);\r\n        } else if (from != to) {\r\n            _removeTokenFromOwnerEnumeration(from, tokenId);\r\n        }\r\n        if (to == address(0)) {\r\n            // _removeTokenFromAllTokensEnumeration(tokenId);\r\n        } else if (to != from) {\r\n            _addTokenToOwnerEnumeration(to, tokenId);\r\n        }\r\n    }\r\n    function _addTokenToOwnerEnumeration(address to, uint256 tokenId) private {\r\n        uint256 length = balanceOf(to);\r\n        _ownedTokens[to][length] = tokenId;\r\n        _ownedTokensIndex[tokenId] = length;\r\n    }\r\n    function _removeTokenFromOwnerEnumeration(address from, uint256 tokenId) private {\r\n        // To prevent a gap in from's tokens array, we store the last token in the index of the token to delete, and\r\n        // then delete the last slot (swap and pop).\r\n\r\n        uint256 lastTokenIndex = balanceOf(from) - 1;\r\n        uint256 tokenIndex = _ownedTokensIndex[tokenId];\r\n\r\n        // When the token to delete is the last token, the swap operation is unnecessary\r\n        if (tokenIndex != lastTokenIndex) {\r\n            uint256 lastTokenId = _ownedTokens[from][lastTokenIndex];\r\n\r\n            _ownedTokens[from][tokenIndex] = lastTokenId; // Move the last token to the slot of the to-delete token\r\n            _ownedTokensIndex[lastTokenId] = tokenIndex; // Update the moved token's index\r\n        }\r\n\r\n        // This also deletes the contents at the last position of the array\r\n        delete _ownedTokensIndex[tokenId];\r\n        delete _ownedTokens[from][lastTokenIndex];\r\n    }\r\n}",
  "sourcePath": "E:\\Solidity\\worldofdoge2\\contracts\\SiringClockAuction.sol",
  "compiler": {
    "name": "solc",
    "version": "0.8.3+commit.8d00100c.Emscripten.clang"
  },
  "schemaVersion": "3.4.3",
  "updatedAt": "2022-01-24T00:08:47.175Z",
  "networkType": "ethereum",
  "devdoc": {
    "kind": "dev",
    "methods": {
      "bid(uint256)": {
        "details": "Places a bid for siring. Requires the sender is the DogeHero contract because all bid methods should be wrapped. Also returns the doge to the seller rather than the winner."
      },
      "cancelAuction(uint256)": {
        "details": "Cancels an auction that hasn't been won yet.  Returns the NFT to original owner.",
        "params": {
          "_tokenId": "- ID of token on auction"
        }
      },
      "cancelAuctionWhenPaused(uint256)": {
        "details": "Cancels an auction when the contract is paused.  Only the owner may do this, and NFTs are returned to  the seller. This should only be used in emergencies.",
        "params": {
          "_tokenId": "- ID of the NFT on auction to cancel."
        }
      },
      "createAuction(uint256,uint256,uint256,uint256,address)": {
        "details": "Creates and begins a new auction. Since this function is wrapped, require sender to be DogeHero contract.",
        "params": {
          "_duration": "- Length of auction (in seconds).",
          "_endingPrice": "- Price of item (in wei) at end of auction.",
          "_seller": "- Seller, if not the message sender",
          "_startingPrice": "- Price of item (in wei) at beginning of auction.",
          "_tokenId": "- ID of token to auction, sender must be owner."
        }
      },
      "getAuction(uint256)": {
        "details": "Returns auction info for an NFT on auction.",
        "params": {
          "_tokenId": "- ID of NFT on auction."
        }
      },
      "getCurrentPrice(uint256)": {
        "details": "Returns the current price of an auction.",
        "params": {
          "_tokenId": "- ID of the token price we are checking."
        }
      },
      "initialize(address,uint256)": {
        "details": "Constructor creates a reference to the NFT ownership contract  and verifies the owner cut is in the valid range.",
        "params": {
          "_cut": "- percent cut the owner takes on each auction, must be  between 0-10,000.        ",
          "_nftAddress": "- address of a deployed contract implementing  the Nonfungible Interface."
        }
      },
      "owner()": {
        "details": "Returns the address of the current owner."
      },
      "paused()": {
        "details": "Returns true if the contract is paused, and false otherwise."
      },
      "renounceOwnership()": {
        "details": "Leaves the contract without owner. It will not be possible to call `onlyOwner` functions anymore. Can only be called by the current owner. NOTE: Renouncing ownership will leave the contract without an owner, thereby removing any functionality that is only available to the owner."
      },
      "transferOwnership(address)": {
        "details": "Transfers ownership of the contract to a new account (`newOwner`). Can only be called by the current owner."
      },
      "withdrawBalance()": {
        "details": "Remove all Ether from the contract, which is the owner's cuts  as well as any Ether sent directly to the contract address.  Always transfers to the NFT contract, but can be called either by  the owner or the NFT contract."
      }
    },
    "title": "Reverse auction modified for siring",
    "version": 1
  },
  "userdoc": {
    "kind": "user",
    "methods": {
      "cancelAuction(uint256)": {
        "notice": "This is a state-modifying function that can  be called while the contract is paused."
      }
    },
    "notice": "We omit a fallback function to prevent accidental sends to this contract.",
    "version": 1
  }
}